:020000040000fa
:080000000002040000000000f2
:020000040000fa
:10000800c8020000c8020000c8020000c8020000c0
:10001800c8020000c8020000c8020000c8020000b0
:10002800c8020000c8020000c8020000c8020000a0
:10003800c8020000c8020000c8020000f0800000ea
:10004800c8020000c8020000c8020000c802000080
:10005800c8020000c8020000c8020000c802000070
:10006800c8020000c8020000c8020000c802000060
:10007800c8020000c8020000c8020000c802000050
:10008800c8020000c8020000c80200006681000023
:10009800c8020000c8020000c8020000c802000030
:1000a800c8020000c8020000c8020000c802000020
:1000b800c8020000c8020000c8020000c802000010
:1000c800c8020000c8020000c8020000c802000000
:1000d800c8020000c8020000c8020000c8020000f0
:1000e800c8020000c8020000c8020000c8020000e0
:1000f800c8020000c8020000c8020000c8020000d0
:10010800c8020000c8020000c8020000c8020000bf
:10011800c8020000c8020000c8020000c8020000af
:10012800c8020000c8020000c8020000c80200009f
:10013800c8020000c8020000c8020000c80200008f
:10014800c8020000c8020000c8020000c80200007f
:10015800c8020000c8020000c8020000c80200006f
:10016800c8020000c8020000c8020000c80200005f
:10017800c8020000c8020000c8020000c80200004f
:10018800c8020000c8020000c8020000c80200003f
:10019800c8020000c8020000c8020000c80200002f
:1001a800c8020000c8020000c8020000c80200001f
:1001b800c8020000c8020000c8020000c80200000f
:1001c800c8020000c8020000c8020000c8020000ff
:1001d800c8020000c8020000c8020000c8020000ef
:1001e800c8020000c8020000c8020000c8020000df
:0801f800c8020000c80200006b
:020000040000fa
:10020800c8020000c8020000c8020000c8020000be
:10021800c8020000c8020000c8020000c8020000ae
:10022800c8020000c8020000c8020000c80200009e
:10023800c8020000c8020000c8020000f0800000e8
:10024800c8020000c8020000c8020000c80200007e
:10025800c8020000c8020000c8020000c80200006e
:10026800c8020000c8020000c8020000c80200005e
:10027800c8020000c8020000c8020000c80200004e
:10028800c8020000c8020000c80200006681000021
:10029800c8020000c8020000c8020000c80200002e
:1002a800c8020000c8020000c8020000c80200001e
:1002b800c8020000c8020000c8020000c80200000e
:1002c800c8020000c8020000c8020000c8020000fe
:1002d800c8020000c8020000c8020000c8020000ee
:1002e800c8020000c8020000c8020000c8020000de
:1002f800c8020000c8020000c8020000c8020000ce
:10030800c8020000c8020000c8020000c8020000bd
:10031800c8020000c8020000c8020000c8020000ad
:10032800c8020000c8020000c8020000c80200009d
:10033800c8020000c8020000c8020000c80200008d
:10034800c8020000c8020000c8020000c80200007d
:10035800c8020000c8020000c8020000c80200006d
:10036800c8020000c8020000c8020000c80200005d
:10037800c8020000c8020000c8020000c80200004d
:10038800c8020000c8020000c8020000c80200003d
:10039800c8020000c8020000c8020000c80200002d
:1003a800c8020000c8020000c8020000c80200001d
:1003b800c8020000c8020000c8020000c80200000d
:1003c800c8020000c8020000c8020000c8020000fd
:1003d800c8020000c8020000c8020000c8020000ed
:1003e800c8020000c8020000c8020000c8020000dd
:0803f800c8020000c802000069
:020000040000fa
:100400006f4d23000eff27000e0188000000000042
:1004100000012000200288000c00070020db2700dc
:100420000100200011000700000020000000e00093
:10043000020032000000020000000000c45a020066
:10044000000000000040da000000fe004440a90067
:10045000c02520000000e000030032000000200062
:10046000a00188004440a800000006009101880017
:10047000800078000000eb0015003700e2804000ab
:1004800032a0b4009101ba00e280400032a0b40072
:100490009102ba00e280400032a0b4000002eb00fa
:1004a000472bde00f507b200602ce10004003a00a3
:1004b0000059eb008301e900fdff3e000400370016
:1004c0006128e100010032000082eb000400070017
:1004d0001101ba000200e000e8ff3a000000060047
:1004e0003159ba008301e9000c0032002159ba00e9
:1004f0008301e900080032000400e00003003a0034
:10050000e280400032a0b400f5ff370011d9ba00f4
:100510008301e900faff3a008100e800e180400031
:1005200032a0b40000000600fa5a040000000000e7
:100530006c5c040000000000445e04000000000049
:1005400006600400000000002a5b040000000000b8
:100550003a5b0400000000004a5b04000000000059
:10056000e85c040000000000962304000000000086
:10057000c023040000000000aa4a0400000000009c
:100580009e85040000000000847504000000000047
:100590000040da000000fe0003f0a200889fbe00c9
:1005a0008a9fbe008c1f78000001070007013300fe
:1005b0006450e1004f0032006420e100520032003c
:1005c00003826c0007003b000905d0000306d00041
:1005d000820f54000c065d00020039000200320058
:1005e00089017800030678008582550004003d00eb
:1005f0000003fd008103fd008502ea008b854200b7
:10060000840f720002003b0060001000e0801800c0
:100610006011b8000005eb007a28e1000a003900fb
:1006200006007800c75ddd00f707b200878075001f
:100630002d003700828171000a0178006105600099
:100640008180d1000080d3008502e900f9ff3b00e2
:10065000060440008784480002003b006004140048
:10066000e0841c000988a300070032008a81710021
:1006700082817100610164008904d1000884d30083
:100680008b05e800170037000978a30013003a0033
:100690000b00e000130034008b05e900080444005f
:1006a00089844c000a4474000978a3000d003a00c4
:1006b0000b00e000070034008b05e900080444004b
:1006c00089844c0001003a000b0020000978a30047
:1006d000f7ff32000001eb00020037008281710059
:1006e0000a017800760007000cf0a70001f0a000d6
:1006f000bf0037006420e10002003a00838f6c00e5
:10070000bf0033000801be000200be00b800370081
:10071000889fbe008a9fbe008c1f7800a300070040
:10072000aa00330003866c006450e1002e00320002
:100730006420e100330032006150e1002f003200fc
:100740006120e1003100320085855500eb07b000e3
:1007500009002000080420000500370008044400b8
:1007600089844c000a0031000603430087834b0054
:100770000001530081815b00f8ff33000203be00db
:100780000800a0000804440089844c00f6ff3900ea
:10079000c639dd0083017300010032001300200020
:1007a0008904d1000884d3000998a3000500320011
:1007b0000800a7000300a0008904d1000884d3002a
:1007c0008b05e8008904d1000884d3000001eb0008
:1007d0000281d2003a00070001f0a1000cf0a7004e
:1007e00001f0a000820037006420e10084003200a4
:1007f0000801be000200be00f7ff37006120e100e3
:100800007f0032006000b800f3ff370000002000d6
:1008100001f82700f0ff370014002000bf00370068
:10082000f4ff2f00bd0037000001be004a000700a2
:100830000470a70003f0a1006509b10016003200a2
:100840000d0035006828e10006003500f0ff2f009c
:10085000f1ff27000300e00013003b000100280027
:100860000000050000004000818048008502e9008a
:10087000fcff3a0008003700f88f420002003c00fd
:100880008000eb00000005008100d1000080d30053
:100890008502e800fcff3a000300e00002003b0094
:1008a00060001000e0801800000006004f89de00a4
:1008b00082017800b40037006011b800c200370030
:1008c00081002000618055000b003d000b002000de
:1008d00061fe2f000100e1001d00340082817100e3
:1008e000610164008904d1000884d3000000e8009d
:1008f000faff3a00710020006100640003007000fc
:10090000020060000900320061044400e0844c00f1
:100910000988a500050032008b05e8006808e100a1
:1009200002003a008904d1000884d300f20f2000ad
:100930000258e10005003d00c75ddd00f907b20087
:100940008980750008007800000006000bf8270079
:100950008b00780000000500c70ade00f107b20036
:10096000f50fb20008003200e1cf42000200320071
:100970000170a00024000500810f7000010032000a
:100980000408050044000500810f700002003a00d1
:10099000140005008502e9000000400081c0480005
:1009a000fcff3b000170a000240005000004be0015
:1009b000e9ff07000003be000405be000200be0000
:1009c000e5ff0700844f7500000006000200be002e
:1009d0006450e100050036006420e10002003600aa
:1009e0000968a30001003a000800be000160a000f1
:1009f0004f0678004f05be004f04be000000060001
:100a0000f0ff2f00f1ff2700f9ff3700889fbe009d
:100a10008a9fbe008c1f7800e4ff0700ebff3300c5
:100a200003866c006450e100240032006420e10081
:100a3000270032006150e100220032006120e10015
:100a4000210032008b854200eb07b1000134b80071
:100a5000003ab8000804420089844a00013ab8000c
:100a60000030b8008880400009014a0004003300cb
:100a70000000400081804800020149008b05e90028
:100a8000c909dd008301700001003200130020005d
:100a9000c814de004814dd004709de001200b20071
:100aa000c808de000884700085ff070001f0a1007f
:100ab0000cf0a70001f0a000cdff37006120e1009d
:100ac000cfff32000801be000200be00f7ff370072
:100ad0006150e100fcff3a00c9ff37006022b80016
:100ae000060220000000d0008180d2000482d200e3
:100af0008582d2000000a0000202520083825a00c8
:100b0000030031000202420083824a000000a1007b
:100b10000603e900f3ff3a0000000600889fbe00cc
:100b20008a9fbe00841f7800a0ff07004f00780056
:100b300011003300f0ff2f00838f6c0006003b0094
:100b4000040565000a00a7000800370009f0a600a8
:100b50001000200008003700820f5400838f5c00d3
:100b6000030039001000200001003e0000002000ba
:100b700009f0a7000000ea004f05be004f04be00c8
:100b80000000e00000000600881f780003047800e1
:100b90000300e00007003d0060001000e080180046
:100ba00060011900e081190002003b0001f02d00f6
:100bb000030037000400070008f0a70001f0a000c0
:100bc0004f04780000000600889fbe008a9fbe0088
:100bd000008270000402710004827100260032005d
:100be0000004be000200be006011b8006b092000c6
:100bf000950220000182cf000a0039000541b100b2
:100c00000082cf00070039000541b1000982cf0002
:100c1000040039000541b1000882cf00010039000d
:100c20000541b10005425200120032000a003b00ab
:100c300082817100610164008100d1000080d300d5
:100c40008984d3000884d3008b05e8000442e800bf
:100c5000f7ff3a00070037000804440089844c007d
:100c600000004800818048008b05e9000442e9004b
:100c7000f9ff3a0012ff07004f05be004f04be0007
:100c800000000600ef36b000889fbe008a9fbe00bd
:100c90008c9fbe008e1f78008004780001057800cc
:100ca00002047800d3b79f00f4312000840f540071
:100cb000060036000800e8005c04070080067800a3
:100cc000e08f560003003a006f0037006dcc2f0014
:100cd0008f8646000042eb0084767c000002eb0029
:100ce000b4879c000a05e900ca879c000006eb0057
:100cf0008802ea00c5b79f00e9b79f008804780022
:100d00004262dd0066c82f000f03430066047a00cc
:100d10000482e80066077a000c06e90088004700b4
:100d200025002000110009008500d800800078000f
:100d3000098ab9006fb39700840043000901780065
:100d40000d007800210507008e0578000805780061
:100d5000bcb79f0008067800010037000a05e800cc
:100d600009d2b9006fb39700040443008d007800e6
:100d7000080078005fb2970004000100e00f500007
:100d8000f6ff350009dab9006fb39700040243009b
:100d9000010037008b05e900840078000d00780021
:100da00084bf9f00f4b79f00dfb2970005000100e9
:100db0007fb297004fb39700060242000fb9970029
:100dc000e00f5000f3ff35008b0f550005003c008d
:100dd0008800780009007800320007000a05e80062
:100de0008b05e9008b0f5500ddff34000c04780003
:100df0003fb69700888255000a025700848f520040
:100e00000a003d008e0f550012003d000c06e80060
:100e10004262dd0065c82f008f82420004824200da
:100e20000a1a78000e0a78000a0037008b0f540067
:100e30000a003d000c06e8004262dd0066c82f0093
:100e40000f03430004024300081a78000b0a7800dd
:100e5000020037000b077800010037000a04780011
:100e60008e0f5400adff3500e00f5600a4ff3d008b
:100e700064cc2f000f024200848f56000200320023
:100e80000d0078008a0407004f0778004f06be0067
:100e90004f05be004f04be00ef1fb1000f17b10099
:100ea00000000600040037001142780092587800d4
:100eb000045978000000e900e00f5000faff3a0002
:100ec000000006000c00fa00889fbe0000047800b5
:100ed000f4ff2700d4bf9f008004eb0099bf9f0060
:100ee00088bf9f00a8bf9f00240c2000b4bf9f00b4
:100ef00078815700cfb09700708057000700070037
:100f00000fba9700094a78000fba970008005200fc
:100f10004f04be000080fa0000000600ef03b0009e
:100f2000889fbe008a9fbe008c9fbe008e1f7800e7
:100f300080067800d1af9f00a2b79f000007eb00aa
:100f40006a033700dfa897008100e800d1af9f0057
:100f500054c2b300844f500006003a0001027800ea
:100f60000006eb0001c3b30000c2b300b7c2b30078
:100f70000e0037003d0290000404b200040032006d
:100f80001d027800004a7800840ee8000500370052
:100f90000000fb008d00780060030700e10f4000b7
:100fa000520332000e07e800500337008402780035
:100fb00034437800d2c2b300824f5300090032009c
:100fc00005003c00804f530008003200874f53005b
:100fd0000c003a0007003700814f530009003a0027
:100fe000060037000c30a000f0ff37000c00a00016
:100ff000eeff37000c10a000ecff37000c20a00023
:10100000eaff370062026600010032000c00a10016
:1010100068026600010032000c20a1000602fb00fd
:101020000403b100e90f52000c003e0005037800f4
:101030000002eb006a22b900b603fb000703b1000f
:1010400004824300860278009603fb000703b10088
:10105000e98f5300f7ff3600080037000002eb006d
:10106000a7c2b300874f530004003a00afb1970006
:1010700043027800a3b79f008502e8000003eb005d
:1010800096b79f00e6c2b300954f13000c003a00dc
:101090000ce0a00064435300d54f1300030032005e
:1010a000050378000000eb0009003700afb397009c
:1010b00047047800a7b79f0098b79f008502e80013
:1010c00005037800090037006a00b900008043007a
:1010d00086027800b603fb000703b100e98f5300d6
:1010e000f9ff360090b79f00f5ff3700b642780051
:1010f000d6af9f00cac6b3008acf52002500320087
:101100000f003c0036c6b30086cf52009c00320070
:1011100004003c00e0cf5200f90232006b43530060
:101120000f00370046c6b30086cf520017003200ca
:101130006543430086cf5200af003a0013003700ea
:1011400036c7b30086cf52001f00320007003c00b4
:101150006443530086cf5200140032000643e80077
:1011600086cf5200a4003a001300370056c7b300e0
:1011700086cf5200a70032006343430086cf52005f
:101180009d003a00e5779f000d003700e5779f004e
:10119000a2003700f00366000501200001003200c4
:1011a0000500280005067600d0ff3700e5779f0090
:1011b0000c60a00099003700e5779f000c50a0005c
:1011c0000c70a00095003700e5779f00afb5970041
:1011d000cb027800abb79f00b5b79f00e08f5200fd
:1011e00002003a00e1452200b1b79f003fb39700eb
:1011f0008002eb00010037008502e800e6c37a00b8
:10120000e0cf5300fcff3a00c5b79f001fb1970025
:10121000e00f510005003200cfb19700830f51005d
:101220000200310082027800c5b79f00cfb297005c
:101230000004eb00850f5200010036000504520047
:101240006806660009c2b3000f00320029003700ab
:101250003d0290000404b200040032001d02780038
:10126000094a7800840ee800050037008d007800f8
:1012700000022000a9020700e10f40000100320037
:101280000e07e8000804e900e00f5400f0ff3a0000
:101290000084eb0017003700bd0290000504b20087
:1012a000090032009d0378008802780035437800f9
:1012b000864b7800870ee80005047800e04f530065
:1012c0000a003a0010003700880278003500fb0061
:1012d000050478008d00780084bf9f008f0207000e
:1012e0000fba9700e10f4000070032000e07e80038
:1012f00005003700080278003fb49700cfb497008c
:101300005fb59700efb59700890278008504e90082
:10131000e08f5200e0ff3a00b8b79f00c9b79f00c6
:10132000dab79f00ebb79f000404780009c2b3004e
:10133000e00f56000f003a006c0237003d029000ab
:101340000404b200040032001d027800094a78004b
:10135000840ee800050037008d00780000022000b0
:101360006e020700e10f4000010032000e07e800a6
:101370000804e900e00f5400f0ff3a005b02370078
:10138000afb0970041047800a1b79f00cfc4de0042
:10139000090578008a0578000800be000a01be0031
:1013a0004800de00c80add0000807200e0779f0080
:1013b0007003660009003200e04f50000700320061
:1013c000e14f400005003200f0779f00887f9f00ca
:1013d00026002000c6b79f0003003700f8779f0063
:1013e00017002000c7b79f0078fb2f000884470034
:1013f000b8b79f0085ff3700e5779f0069fb2f0096
:1014000089844700b9b79f001a002000cab79f001f
:101410007eff3700e5779f000c0cb3008c0278004c
:10142000050cb2003b003a00e00f560005003d00fd
:10143000afb297004501be004500be00a5b79f00b2
:101440000f003700f0026600120032002fb4970040
:101450004803be00a8b79f00f69f9f0087a79f0084
:1014600098029000cfaade0095a79f00a5a79f0035
:101470007f9897008fa097001fa19700afa19700ba
:10148000b0b79f00c1b79f00d2b79f00e3b79f00de
:101490000b003700afb09700c1027800a1b79f00e2
:1014a00005047800cfc4de00090578008a057800bd
:1014b000b8b79f00c9b79f00dab79f00ebb79f008e
:1014c0003fb09700cfb097005fb19700efb19700a2
:1014d000e00f5000e08f5800e00f5900e08f5900f6
:1014e00032003d003c00b3006000b8006011b8005d
:1014f0003fb49700cfb497005fb59700efb5970062
:1015000008045000898458000a0559008b85590049
:1015100022003700e00f560005003d00afb29700f3
:101520004501be004500be00a5b79f000f00370073
:10153000f0026600120032002fb497004803be008c
:10154000a8b79f0096af9f00a7af9f008004eb0055
:10155000b9af9f000005eb00caaf9f001fa897001e
:10156000afa897003fa99700cfa99700b0b79f00f9
:10157000c1b79f00d2b79f00e3b79f000b003700b1
:10158000afb09700c1027800a1b79f0005047800b2
:10159000090020000a0020000b002000b8b79f00bf
:1015a000c9b79f00dab79f00ebb79f009fb49700c1
:1015b000e08f54000d003a001a0020009ab79f00f7
:1015c0003fb09700cfb097005fb19700efb19700a1
:1015d000e00f5000e08f5800e00f5900e08f5900f5
:1015e000020032008000eb0091b79f000c017800f0
:1015f000020cb20082b79f0005042000850f510045
:101600003400320003003c00e00f510008003200bb
:1016100048003700050820008fb19700858f5100e2
:1016200014003200050c2000858f510041003a0063
:10163000463a220015c0b3003600be003601be0097
:101640003fb49700cfb497005fb59700efb5970010
:101650000040e10001c8e10002d0e10003d8e10050
:10166000330039008542e800f4cf5200f2ff3a001f
:101670002f00370015c0b30000012000010020003a
:101680006011b8003fb49700cfb497005fb59700e2
:10169000efb597000040e10001c8e10002d0e10091
:1016a00003d8e10022003900490020000000d000ea
:1016b0008180d2000281d2008381d2008904e900b6
:1016c000faff3a008542e800f0cf5200edff3a0001
:1016d0001700370015c0b300800020000100200073
:1016e0006011b8003fb49700cfb497005fb5970082
:1016f000efb597000040e10001c8e10002d0e10031
:1017000003d8e1000a003900390020000000d000b1
:101710008180d2000281d2008381d2008904e90055
:10172000faff3a008542e800f5cf5200edff3a009b
:10173000e5779f006f7597008a02fb009fb59700c1
:101740008b8f520002003d00eb779f0004003700b2
:101750001fb09700850f500001003d0095b79f0016
:10176000e00f520003003200e30266000100320085
:101770000402e9000500240085026600060032002c
:101780009fb09700810f5200020034000102520006
:10179000010037000002eb006f7197008202fb002e
:1017a0008001eb00f3af9f00850f52000200340070
:1017b00085025200f5af9f00640266003b003200d4
:1017c000e202660061026600e08f52001100320002
:1017d000bd0290000504b200080032009d027800ae
:1017e000b6c2b300e00f52000100320006c3e800a9
:1017f000864a7800850ee80015003700b002200008
:10180000e00f5200010032000080e8008d007800f7
:101810000c003700e00f52000e0032003d02900035
:101820000404b200050032001d02780005c2b300b6
:10183000054a7800840ee800050037008d00780026
:101840000002200035010700e10f400001003200d6
:101850000e07e8007faa9700e00f52004f00320009
:1018600008c3b300840478003d0290000404b20071
:10187000040032001d027800084a7800840ee80057
:10188000050037008d0078000003200023010700c9
:10189000e10f4000010032000e07e8008904e90072
:1018a000f1ff3a00f9af9f003c003700ffaa970014
:1018b000e08f5200140032006802660012003a0005
:1018c00008c2b300850478003d0290000404b20011
:1018d000040032001d027800084a7800840ee800f7
:1018e000050037008d007800000220000b01070082
:1018f000e10f4000010032000e07e8008904e90012
:10190000f1ff3a00f9af9f00e20266006102660053
:10191000e08f520011003200bd0290000504b200b9
:10192000080032009d027800b6c2b300e00f5200fa
:101930000100320006c3e800864a7800850ee80000
:1019400015003700b0022000e00f52000100320005
:101950000080e8008d0078000c003700e00f520096
:101960000e0032003d0290000404b2000500320077
:101970001d02780005c2b300054a7800840ee80015
:10198000050037008d00780000022000e30007000a
:10199000e10f4000010032000e07e8001fb397007e
:1019a0000602e900c223dd00c7a79f006323b90038
:1019b00006047800b8a79f004322dd00c539220045
:1019c00085024200e5af9f00f0046600e99f9f009a
:1019d0000c0578000a02b200da9f9f00aa003700c7
:1019e0009fb597008b05e9009bb79f000fb097004c
:1019f00001042000810f50007a00320003003c00f7
:101a0000e00f500008003200850037000408200075
:101a10000fb19700840f51005d003200040c2000cc
:101a2000840f51007e003a00e00f56001f003d0079
:101a3000efa997003304be002305be000802be00d4
:101a40000a03be003fb09700cfb097005fb1970088
:101a5000efb197002b030700e0779f000000fb0029
:101a6000cf80de0001017800820178000802be000c
:101a70000a03be008c0307003fb29700cfb2970065
:101a80005fb39700efb397000002520081825a00c3
:101a900002035b0083835b00b4b79f00c5b79f0060
:101aa000d6b79f00e7b79f0035003700ef9a970041
:101ab000e08f5200220032003fb29700cfb2970071
:101ac0006fab97003604be002605be000801be00bd
:101ad0000400be0084bf9f00f5b79f00fffb070016
:101ae000e0779f000000fb00cf80de000801be0011
:101af000530207000fba9700ffb29700000452008c
:101b000081845a00d8a79f00e9a79f008004eb00ba
:101b1000f9a79f000005eb008aaf9f005fa0970028
:101b2000efa097007fa197008fa99700b0b79f0003
:101b3000c1b79f00d2b79f00e3b79f0010003700e6
:101b4000efa89700110278003fb19700800278005b
:101b5000811f7800110009000481d8008002fd0077
:101b6000cf007800a4002000809fbe001100090073
:101b70008482d800010278004f00be00e4779f0005
:101b8000ef7197000343b000e3779f002400370014
:101b9000d4442200df9a9700e08f52000100320007
:101ba000c44322003fb09700cfb097005fb19700c9
:101bb000efb197004fa397000603e900050033003b
:101bc0008301d1000281d3008180d3000080d30043
:101bd000f9ff37006f00600064407800e0779f00f5
:101be0000f0037003fb29700cfb297005fb3970066
:101bf000efb397003fa497000804e9000500330005
:101c00008703d1000683d3008582d3000482d300ea
:101c1000f9ff3700674262000443b000e4779f0099
:101c20003d0290000404b200070032009d027800db
:101c30006f729700844a7800850ee800e04f5200ea
:101c400007003a0007003700ef7497000900fb0017
:101c50008d00780031000700e10f400001003200e4
:101c60000e07e8004fa5970064055500caa79f001e
:101c7000bfa59700e3855500bba79f006fa89700fd
:101c800068005000e0af9f009fb09700e08f5000c9
:101c900053ff3a0068066600140032007fa99700df
:101ca000e00f51001100340008c2b3008204780034
:101cb0003d0290000404b200040032001d027800ce
:101cc000084a7800840ee800050037008d0078008f
:101cd0000002200011000700e10f40000100320067
:101ce0000e07e8008904e900f1ff3a00dfa9970038
:101cf00013407800e0779f00e04f500091fc3a00dd
:101d00000e0078004f0778004f06be004f05be005a
:101d10004f04be00ef03b10000000600889fbe0024
:101d20000104780038029000e20262008084eb0037
:101d30003b003200040378000620b20098029000b5
:101d400002003a00e08f520035003a000490a000f3
:101d50003404980080047800f90fb200e08f52003c
:101d600002003a00a8029000050c7800ea8f5400a7
:101d700005003a000408b20003003a008800780029
:101d8000d0002000e5ff070018029000d802900064
:101d9000850f52000b0032000402e8001404980082
:101da00018027800094a7800040ce80015c0b30056
:101db000244c2200054a7800ea8f540018003a00ab
:101dc0000500370088007800094078000601070008
:101dd0008004780012003700380290000410b2002e
:101de0000f00320018019000a800900048009000f9
:101df0004101070018029000840f500004003200d7
:101e0000380290000403b300340498008084eb008f
:101e10000002eb001404980028029000040c7800e3
:101e2000090078004f04be0000000600e687470066
:101e3000889fbe008a9fbe008c9fbe008e1f7800c8
:101e4000244b220095258100e08f52000b003a00c0
:101e5000e402420095258900e525890024029800c6
:101e6000d4258900a44290000504a00025429800d2
:101e7000e44290000504a000654298006704400019
:101e80004244de004244dd00d02581006d4d220039
:101e9000694d23008d8454002400200080027800c6
:101ea000811f7800110009008404d8008002fd0021
:101eb000cf007800f5b79f000882e80004024200d6
:101ec00084bf9f000003eb00640744009c4d230087
:101ed0000d06560008064600010037000b0078008a
:101ee0002042900061026200020032000a003700c6
:101ef0001508780090027800254290006102620087
:101f0000fbff320008024000848f520002003900bb
:101f1000e00f54004e003d0090057800808f550082
:101f2000eeff3e008d8f550003003900244b220048
:101f3000848f5500e9ff3900e4258100840f5000ab
:101f400054003a00244b2200848f550051003a007f
:101f50000603e800e10f5300e0ff36007fb397006f
:101f6000860f540002003600890f54001200390019
:101f70006143b800614ab900b0ff2f0001002000a2
:101f80000402500085825800840f5300858f5b0047
:101f90000b003d0000027800811f7800110009004d
:101fa0000986d8000002fd00cf00780009a2b90020
:101fb00004057800030037000fbd970001003700cb
:101fc000080578000a007800fb000700e10f4000d8
:101fd00005003a000e0578000e007800f6000700b4
:101fe000e10f40002b003200e4258100000a780058
:101ff000e425810064034200a4429000860f500053
:10200000020032000504a000010037000504a10011
:1020100025429800640555000a0540000a0878002a
:10202000ea258900244b2200040d7800e525810073
:10203000254290000404a000a44298002042900091
:102040000404a100244098000003eb00a3ff370024
:10205000d4258900848f5200070036001403be0087
:10206000f625890007268900100a78008042eb00d7
:10207000d425810025429800d725810007087800e3
:10208000204290000404a000244098006400400016
:10209000010037000000eb004f0778004f06be003c
:1020a0004f05be004f04be006f00b10000000600e7
:1020b00064005000d4258100840f500001003100dd
:1020c000d0258900204290000404a10024409800fb
:1020d00000000600889fbe008a9fbe000004be006c
:1020e000e08f540005003a00e00f54003200320047
:1020f00008007800eeff070030003700e00f5400c2
:1021000004003a000900780048ff070080047800c6
:102110002a003700640254009405780068fa97009a
:10212000610262000200320008007800e0ff070050
:10213000090078003dff070080047800e08f54001c
:102140001e003200888f54001b00320069bd9700ca
:102150000905550042d5de0088855500c2ddde0048
:102160000a0178008b0f5500010036000b01780042
:102170004211dd0088007800090078001300070094
:10218000888f54000d0031004255dd000a8544005f
:10219000880f5500090036000804550042c4de00cf
:1021a0004244dd0008844400f425810005268100b6
:1021b000048cbe0001003700880478000900780014
:1021c0004f05be004f04be0000000600000278006c
:1021d00002003700315a78000201e900e00f510097
:1021e000fcff3a00000006000200fa00889fbe00d3
:1021f000a0ff9f000104780038029000840278005c
:102200000504b200020032000000fb003500370078
:10221000e202620005003a000403b30034049800af
:10222000150498000080eb002e003700d8049000c1
:10223000e08f540006003a0012002000e6805700ac
:10224000480090002c000700190498002300370074
:10225000a8029000e08f520008003a00554c22007e
:1022600025049800050c78002500200055049800ee
:10227000150498000430a000340498001801900060
:10228000a8009000480090001b0007002802900062
:102290008082eb0015049800affa9700054a780099
:1022a000040ce8002ffa9700ea4f52000b003a00a6
:1022b000380290000410b2000800320018019000ab
:1022c000a8009000480090000b0007000002eb00ff
:1022d00014049800a8029000050c78002ffa9700cb
:1022e0000400fb004f04be000080fa00000006005e
:1022f00000c0da00000006000a00fa00e20f5000f9
:1023000022003e0094268100e10f520006003200b8
:1023100087232000462320002423200005232000bb
:10232000e08f530004003a0087222000462220005c
:102330002422200005222000000028001500600053
:1023400003003a00800b780007002800958a73008c
:10235000054020009482620001003a0014a0a00011
:102360008202780006003700940378000710b2005c
:10237000fdff3200b103fb00070b78008502e90086
:10238000e08f5200f8ff3a000800370034002000c8
:10239000b4bf9f00c0bf9f00d1bf9f00e2bf9f009e
:1023a0006a805700d2ff07006fb9970002007800db
:1023b0000080fa0000000600889fbe0080047800bc
:1023c000a0268100e00f500004003a000e00070034
:1023d0000084eb00e00f500008003500a8268100c3
:1023e000e08f540005003200090044000600070099
:1023f000e00f500001003d000084eb000800780071
:102400004f04be0000000600e00f500004003a0038
:10241000644d2200a42689000002780006003700df
:102420000082eb00654d2300850f500002003e0046
:10243000a02689000002eb000400780000000600de
:10244000020ab900001bb9000200b8008100420076
:102450008100430000000600889fbe008a9fbe00e6
:102460003004be002005be000404440085844c00f6
:1024700006054d0087854d000898be000a90be00f5
:102480000440e10005c8e10006d0e10007d8e10002
:1024900002003100680040001008e8004f05be004f
:1024a0004f04be00000006001000fa00889fbe0026
:1024b0008a9fbe000605be000404be003002be00b6
:1024c0002003be00c4b79f00d5b79f00e6b79f00aa
:1024d000f7b79f000802520089825a000a035b0086
:1024e0008b835b0084bf9f0095bf9f00a6bf9f00aa
:1024f000b7bf9f000498be000698be0011002000e0
:102500004fb29700dfb297006fb39700ffb3970009
:102510000820e10009a8e1000ab0e1000bb8e100e1
:10252000010039008000eb00108810004f05be004c
:102530004f04be000080fa00000006001400fa00fc
:10254000889fbe008a9fbe008c9fbe003f00070090
:102550000605be000404be000006eb00ccb79f00d9
:10256000bcb79f00acb79f009cb79f008cb79f0083
:102570000d0420004fb39700bfb2970086034300bd
:102580002fb29700e00f530004003d003d0007000c
:102590000f004000b0ff07000300370039000700bc
:1025a0000f004000c0ff0700cfb2970095bf9f000b
:1025b000e08f5200090035002b00070014002000b6
:1025c000050020006033b8000000720081807200b6
:1025d00002017300838173001c0007000c06e800f1
:1025e0008d0f5600e3ff3a001fba9700e00f52002c
:1025f00005003d000802be000a03be0000fe2f00d9
:102600000f00400094ff07004faa9700e00f520010
:1026100008003a000fb497009fb497002fb59700b9
:10262000bfb59700d8b79f00e9b79f00fab79f00e2
:102630008bbf9f000c0007004f06be004f05be0079
:102640004f04be000080fa000000060001000700f1
:102650000000060090b79f00a1b79f00b2b79f008f
:10266000c3b79f000000060001000700000006003d
:102670001fb09700afb097003fb19700cfb1970060
:10268000000006004f2bde0087037300a7b79f00f2
:102690004f23de00858242008502730095b79f00bc
:1026a000ffaa97004f2bde000402420004027300d1
:1026b00084b79f006faa97004f23de0085824200f7
:1026c00085027300f5af9f00e9ff07004f18de0099
:1026d0000402420000027200e4af9f00e4ff070022
:1026e00000004000818048000201490083814900c8
:1026f000d8ff07000802be000a03be0000fe2f003c
:1027000000000600881f780018002000881f78004d
:102710008aff07008f87e9004f0478000000060059
:10272000801feb0085ff07008f87e900000006008f
:10273000889fbe008a9fbe00e00f5000e08f5800c7
:10274000e00f5900e08f59000c003d006044b800d4
:102750006055b8000000540081805c0002015d00fb
:1027600083815d00180020001500070008003d006f
:10277000180007000004eb00050037000004eb0020
:102780000f00070002003d001200070018002000a3
:10279000dcff0700e00f5400060032006022b800a2
:1027a0006033b8000000520081805a0002015b00d3
:1027b00083815b004f05be004f04be000000060091
:1027c000e00f5200e08f5a00e00f5b00e08f5b00eb
:1027d000000006006044b8006055b80004025400d0
:1027e00085825c0006035d0087835d0000000600b3
:1027f000889fbe008a9fbe008c1f7800e00f5000ab
:10280000e08f5800e00f5900e08f59000d003d00a7
:102810006044b8006055b8000000540081805c003e
:1028200002015d0083815d001c0020000820e100a2
:1028300009a8e1000ab0e1000bb8e1000d003d007d
:10284000080037000006eb00e00f5200e08f5a004e
:10285000e00f5b00e08f5b0006003d006044b800c5
:102860006055b8000402540085825c0006035d00d8
:1028700087835d00aaff0700e00f560006003200c4
:102880006022b8006033b8000000520081805a0016
:1028900002015b0083815b004f0678004f05be009c
:1028a0004f04be0000000600889fbe008a9fbe0045
:1028b0008c1f78000006eb00e00f5000e08f5800fe
:1028c000e00f5900e08f590007003d006044b80058
:1028d0006055b8000000540081805c0002015d007a
:1028e00083815d001c002000e00f5200e08f5a0041
:1028f000e00f5b00e08f5b0007003d006044b80024
:102900006055b8000402540085825c0006035d0037
:1029100087835d000c00a2000c000700e00f56004a
:10292000060032006022b8006033b8000000520098
:1029300081805a0002015b0083815b004f067800b2
:102940004f05be004f04be0000000600889fbe0079
:102950008a9fbe008c9fbe000404b8000506b80024
:102960008904460060854e000606b8000a05460048
:10297000e0854e000706b8008b054600040eb8003f
:10298000890446000a854e00e0854d00050eb8001a
:102990000a0546008b854e00060eb8008b054600e2
:1029a0000416b8000a0546008b854e000516b800cf
:1029b0008b054600041eb8008b0546000800be00cb
:1029c0000a01be004f06be004f05be004f04be0008
:0429d00000000600fd
:020000040000fa
:1029d40000000000010000000200000001000000ef
:1029e40003000000010000000200000001000000dc
:1029f40004000000010000000200000001000000cb
:102a040003000000010000000200000001000000bb
:102a140005000000010000000200000001000000a9
:102a2400030000000100000002000000010000009b
:102a3400040000000100000002000000010000008a
:102a4400030000000100000002000000010000007b
:102a54000600000001000000020000000100000068
:102a6400030000000100000002000000010000005b
:102a7400040000000100000002000000010000004a
:102a8400030000000100000002000000010000003b
:102a94000500000001000000020000000100000029
:102aa400030000000100000002000000010000001b
:102ab400040000000100000002000000010000000a
:102ac40003000000010000000200000001000000fb
:102ad40007000000010000000200000001000000e7
:102ae40003000000010000000200000001000000db
:102af40004000000010000000200000001000000ca
:102b040003000000010000000200000001000000ba
:102b140005000000010000000200000001000000a8
:102b2400030000000100000002000000010000009a
:102b34000400000001000000020000000100000089
:102b4400030000000100000002000000010000007a
:102b54000600000001000000020000000100000067
:102b6400030000000100000002000000010000005a
:102b74000400000001000000020000000100000049
:102b8400030000000100000002000000010000003a
:102b94000500000001000000020000000100000028
:102ba400030000000100000002000000010000001a
:102bb4000400000001000000020000000100000009
:102bc40003000000010000000200000001000000fa
:102bd400754300002f4f0000532d000049490000a9
:102be40020490000646c000065000000754300008b
:102bf4002f4f0000532d00004949000020530000ce
:102c040074610000740000005374000061720000dd
:102c14007420000054610000736b00000044000045
:102c240069730000706c000061790000205400009a
:102c3400617300006b000000504900004420000054
:102c440054610000736b0000004400004143000025
:102c540020540000617300006b0000004469000010
:102c6400737000006c61000079200000546900005a
:102c74006d6500007200000050490000442000000f
:102c8400546900006d6500007200000044410000ba
:102c940043200000546900006d65000072000000cc
:102ca400435300002034000033310000204700006b
:102cb400726f00007570000020340000204c00008a
:102cc40061620000203900000055000070740000ab
:102cd400696d0000653a0000202500006c64000066
:102ce40020730000656300006f6e000064730000d1
:102cf400005800003a200000257500002020000044
:102d0400593a000020250000752000002020000012
:102d1400200000000100000078560000341200007a
:102d2400140000001000000001000000200000005a
:102d34008002000001000000160000000c000000ea
:102d44000200000005000000100000003f00000029
:102d54000100000001000000050000001000000058
:102d640020000000a000000001000000020000009c
:102d740001000000040000000e0000000800000034
:102d8400010000000200000000000000010000003b
:102d940001000000a0000000010000001600000077
:102da4001000000001000000a0000000010000006d
:102db400010000004000000048000000e80300009b
:102dc400010000001e0100000100000010000000ce
:102dd4001000000008000000e803000028000000c4
:102de400800200000400000020000000da0f000050
:102df4004f5300002d5400006d7200004c6f000012
:102e0400636b0000004f0000532d0000546d000060
:102e1400725300006967000000750000432f000032
:102e24004f5300002d49000049200000546d00005c
:102e340072000000507200006f6200006520000004
:102e44004f530000205000006c75000067490000db
:102e54006e000000754300002f500000726f0000e8
:102e640062650000204300006f6d00000000000058
:102e7400754300002f4c000043440000204c000028
:082e84006f6300006b00000009
:020000040000fa
:102e8c000a00fa00200798003107980042079800c2
:102e9c000002eb00040f780024c4200014427800d8
:102eac00e04f520005003200ce02900014c1b30076
:102ebc00844a78000042eb001f0037002e0290007d
:102ecc00144278000482fb000402e900e30f520074
:102edc0015003e0014028000040f780014028000dc
:102eec000450a0000460a0000470a000140288002c
:102efc002e0290006f024200840078003e00900089
:102f0c00da05070000427800244798001e0278007a
:102f1c0014028800ce0290000042eb00844a780034
:102f2c002e42900004003700ce02900014c0b30073
:102f3c00844a78000042eb00044078000080fa00dc
:102f4c00000006000a00fa002007980031079800dc
:102f5c00420798000002eb00040f780024c4200004
:102f6c0014427800e04f520004003200ce02900070
:102f7c0024c1b300844a7800290037002e02900047
:102f8c00144278000482fb000402e900e30f5200b3
:102f9c000f003e0014028000040f78001402800021
:102fac000450a0000460a0000470a000140288006b
:102fbc003e009000c90507000042780024479800a5
:102fcc002e429000ef4f520005003e000a003700e1
:102fdc00ce02900014c0b300844a78001000370071
:102fec001e02780014028800ce029000b4c0b30018
:102ffc00844a78000a0037002e0290006f024200cb
:10300c00be00900004007800980507001e027800ae
:10301c0014028800ce0290000042eb00844a780033
:10302c000080fa00000006001800fa0070079800f3
:10303c00010f9800120f9800230f9800340f98007e
:10304c000002eb00540798000e0a90008002eb007f
:10305c00050a78007e029000040f78001e027800aa
:10306c009402780015079800170037001e02900094
:10307c00144278000482fb00e20f52000900320077
:10308c00e30f520009003200e10f52000900320038
:10309c00be0a900014c0b300844a78000002eb0012
:1030ac005c01370000000000030037000000000046
:1030bc0001003700000000001e8fe8001e0278009f
:1030cc0094027800150798001e029000e00f520041
:1030dc00e6ff3a0024c4200014427800e04f52006e
:1030ec0005003200be0a900024c0b300844a780068
:1030fc000002eb004701370034c420001442780072
:10310c00e04f520005003200be0a9000d4c0b3005c
:10311c00844a78000002eb003e0137001402800064
:10312c0054079800140280000450a0000460a00012
:10313c000470a000140288000042eb004447980081
:10314c000002eb00340798000042eb00044f98009b
:10315c00fe029000050f78001e02780094027800a1
:10316c0015079800860037001e0290001442780064
:10317c000482fb00e20f520042003200e30f5200c7
:10318c0003003200e10f5200200032006e003700c5
:10319c001e02900024029000e00f52001700320033
:1031ac001e029000240290008402e9001e0290008e
:1031bc00250298000e0a90009e029000050a7800e5
:1031cc000e0a90000482e800040f980014c0b300ab
:1031dc00444798001e0a90008002eb00050a780014
:1031ec001e0a90000482e800140f98003e02900022
:1031fc000402e800340798005d0037000e4a900086
:10320c000404a000044f9800590037001e029000df
:10321c0014029000e00f5200160032001e029000c3
:10322c00940290001e0a9000050a78001e0a900075
:10323c000482e800140f98001e0290008002eb003c
:10324c00150298000e0a90009e029000050a780064
:10325c000e0a90000482e800040f980014c0b3001a
:10326c00444798003e0290000402e800340798009e
:10327c003f0037000e4a90000414a000044f980041
:10328c003b0037001e029000140290006407980067
:10329c006e02900064029000e00f52002600320093
:1032ac006e02900044029000140378009e0a900075
:1032bc00860a78009e0a90008582e800150f980017
:1032cc008482e8006e029000450298006e02900025
:1032dc00c40290006e02900024029000848f520071
:1032ec0004003a006e029000940290006e0290006e
:1032fc00450298006e029000640290008402e9007e
:10330c006e029000650298000e0a90009e029000da
:10331c00050a78000e0a90000482e800040f980059
:10332c0014c0b300444798003e0290000402e80029
:10333c00340798000e0037000e4a90000424a000b9
:10334c00044f98000a0037005e02900014028800b7
:10335c000e0a90008002eb00050a7800be0a90006d
:10336c0014c0b300844a78003e029000a9003700d4
:10337c001e8fe8001e027800940278001507980052
:10338c001e029000e00f520077ff3a004e42900070
:10339c00e14f52000a003a000e0a90008002eb0046
:1033ac00050a78005e02900014028800be0a9000a4
:1033bc000042eb00844a78003e02900095003700f2
:1033cc00b66c8000b46c8000e45a90000e4a9000f9
:1033dc0084c2720004c8b30004c27200645b98001b
:1033ec00b56c80000042eb00f45a9800b46c80007d
:1033fc00ae0a9000650a98007e00900099020700c2
:10340c005e02900014028800500407001502800030
:10341c0055079800140280000450a0000460a0001e
:10342c000470a00014028800b46c8000745a9000e0
:10343c000482fb00e00f520002003200e20f520047
:10344c001b003a00b46c8000940a90001507980099
:10345c001e029000e00f52000d0032000e0a900088
:10346c009e029000050a78000e0a90000482e80083
:10347c00040f98000e0a90008002eb00050a7800f9
:10348c003e0290000402e800340798000d0037005b
:10349c00b56c800014c0b300f45a9800b46c800072
:1034ac00fe00900004007800e302070005003700de
:1034bc00b46c8000fe00900004007800de0207006f
:1034cc0000000000b46c8000745a90000482fb0071
:1034dc00e00f520003003200e20f520027003200ce
:1034ec00300037001e029000144278000482fb006a
:1034fc00e10f520013003500e20f520009003400b6
:10350c00e30f52000f003a001e0a90008002eb00fd
:10351c00050a78001e0a90000482e800140f980037
:10352c0012003700b46c8000b40a90001e0a9000a0
:10353c00050a78001e0a90000482e800140f980017
:10354c000a0037005e029000140288000e0a9000f8
:10355c008002eb00050a7800be0a900014c0b3008c
:10356c00844a78003e0290002a003700be0a900080
:10357c000042eb00844a7800140037001e0a9000c9
:10358c008002eb00050a78001e0a90000482e80015
:10359c00140f9800be0a9000e4c0b300844a78006f
:1035ac000a0037001e0a90008002eb00050a780022
:1035bc001e0a90000482e800140f9800be0a9000c6
:1035cc00a4c0b300844a780000000000b56c8000f1
:1035dc000042eb00e45a9800b56c80000042eb000e
:1035ec00f45a9800b46c80008002eb00150a980025
:1035fc00b46c80008002eb00250a9800b46c80004b
:10360c008002eb00350a9800de029000150288005b
:10361c003e029000040078000080fa0000000600d2
:10362c000000fa00452f07000503070025030700db
:10363c006f030700d0020700030f0700212b0700c0
:10364c006b1f07003e03070053030700a616070075
:10365c00412f0700553307000080fa0000000600d8
:10366c000000fa00f4c4200014427800e14f52002c
:10367c0009003a0024c4200014427800e14f4200b3
:10368c000500320024c42000144278000442e800f3
:10369c0025c42000844a78000080fa00000006004f
:1036ac000200fa000002eb00040f7800f4c42000c2
:1036bc0014427800e14f520037003a0014028000a7
:1036cc00040f7800140280000450a0000460a000d5
:1036dc000470a0001402880024c420001442780056
:1036ec00e04f52000500320024c420001442780040
:1036fc000442e90025c42000844a780024c4200038
:10370c0014427800e04f520021003a0034c42000eb
:10371c0014427800e04f52001d003a00be0307002f
:10372c0054c420009442780044c420001442780011
:10373c0084cf52001600320054c42000144278008a
:10374c000482fb0084024200e4d92000048242007f
:10375c0014027800d46c8800d66c8000361290006d
:10376c00c612900061024200e0824a0034139800b5
:10377c00451398000440800015408000610242000f
:10378c00e0824a000440880015408800703207002f
:10379c001e027800140288000080fa000000060067
:1037ac000200fa000002eb00040f7800f4c42000c1
:1037bc0014427800e14f520016003a0014028000c7
:1037cc00040f7800140280000450a0000460a000d4
:1037dc000470a0001402880024c420001442780055
:1037ec00e04f520009003a0034c420001442780023
:1037fc00e14f42000500320034c42000144278002e
:10380c000442e80035c42000844a78001e02780087
:10381c00140288000080fa00000006000200fa0082
:10382c000002eb00040f7800f4c42000144278006e
:10383c00e14f520024003a0014028000040f78007b
:10384c00140280000450a0000460a0000470a000ca
:10385c001402880034c4200014427800e04f520057
:10386c001700320034c42000144278000442e900ee
:10387c0035c42000844a780034c4200014427800f7
:10388c00e04f52000b003a0024c420001442780090
:10389c00e04f520004003a001e0278001402880027
:1038ac002a030700080037001e0278001402880063
:1038bc00050037001e027800140288000200370051
:1038cc001e027800140288000080fa000000060036
:1038dc000000fa00f4c4200014427800e04f5200bb
:1038ec0010003a004c03070054c420001442780026
:1038fc0045c42000844a780054c420001442780047
:10390c000482fb0084024200e4d9200004824200bd
:10391c0014027800d46c8800d46c8000b46c8800dd
:10392c00aa3107000080fa00000006000200fa002d
:10393c000002eb00040f7800200020003a2d070055
:10394c0014028000040f7800140280000450a000c0
:10395c000460a0000470a000140288006022b8006b
:10396c0094628800a56288001e0278001402880008
:10397c00400620002c2d070014028000040f780054
:10398c00140280000450a0000460a0000470a00089
:10399c001402880094628000a5628000c4578800dd
:1039ac00d557880005b0200014c0b300844a7800b5
:1039bc001e027800140288000080fa000000060045
:1039cc000600fa000002eb0024079800832e070083
:1039dc001402800024079800140280000450a000f8
:1039ec000460a0000470a0001402880064a9800088
:1039fc0075a9800061024200e0824a0064a9880037
:103a0c0075a98800ae02900015028800f4c420004d
:103a1c0014427800e14f52006f003a00e444210058
:103a2c00144278000482fb00e10f520007003200c0
:103a3c00e20f520008003200e00f52000c003a0076
:103a4c0014c0b300244798000f0037000042eb006d
:103a5c00244798000c00370014c0b300244798008a
:103a6c00e544210014c0b300844a780006003700f6
:103a7c0014c0b30024479800e54421000042eb0039
:103a8c00844a7800000000002e429000e04f520063
:103a9c0050003200e46c8000040f780047003700bf
:103aac001502800025079800140280000450a00025
:103abc000460a0000470a000140288001e027800ac
:103acc00640a9000e00f5200370032001e027800aa
:103adc00640a90008402e9001e027800650a9800ce
:103aec001e027800640a9000e00f52002e003a008b
:103afc001e027800645a90008482fb00740320003c
:103b0c0004826200e00f52000a0032001e027800ac
:103b1c00e45a900084ccb30004c262009e02780088
:103b2c00e45a98009e02780014c0b300f45a98002e
:103b3c00030037009e0278000042eb00f45a980014
:103b4c001e027800645a90000482fb006802620036
:103b5c00e00f520014003a001e027800c46290007c
:103b6c0064c420001442780004c2720065c42000b2
:103b7c00844a78001e027800246290000483fb00c3
:103b8c001e027800246290000482fb0075c42000a1
:103b9c00e5427a001e0278003462900004c2720082
:103bac0075c4200084727b001e027800f402900021
:103bbc00050f78002e029000140288001e02780077
:103bcc0084629000f4c3b30084cf5200b4ff3a0077
:103bdc0001003700000000000080fa000000060021
:103bec000000fa00e4112000040078000080fa00c4
:103bfc00000006000000fa000080fa000000060039
:103c0c000c00fa003007980041079800224f9800ea
:103c1c00334f98003e029000644290000482fb00f7
:103c2c00a54e2900654f7a009e4278000582fb0064
:103c3c00be029000660242000482420014429000d0
:103c4c000482fb00a54e290065437a0016479800b4
:103c5c001e427800350020008522dd001e429000b7
:103c6c0004c24200244798002e4290000482fb00bc
:103c7c0084024200e4d920000482420094027800bd
:103c8c00250798002e0290008002eb00650a980030
:103c9c002e0290004e039000360a98002e029000df
:103cac00645a9000844278002e4a900004c2ea00c4
:103cbc0004c26200ae029000e45a98002e029000fa
:103ccc00be4a9000755a98002e029000645a9000db
:103cdc000482fb0068026200e00f520012003a00fe
:103cec002e029000c462900064c42000144278003c
:103cfc0004c2720065c42000844a78001e42780019
:103d0c000483fb009e4278000582fb0075c42000f2
:103d1c00e5427a002e0290003462900004c27200d8
:103d2c0075c4200084727b00be0090002e009000b1
:103d3c00980007002e029000240a9000e00f520019
:103d4c00080032002e029000240a900084007800b3
:103d5c002e009000b80007002e0290003e03900049
:103d6c00160a98002e429000044078000080fa0059
:103d7c00000006000400fa0010079800b46c8000e4
:103d8c009e029000150a9800b46c8000246290008a
:103d9c000483fb00b46c8000246290000482fb005e
:103dac009e029000660242000482420094429000ff
:103dbc00b46c80003462900004c272009e029000c9
:103dcc0086824200f44298001e029000e442900069
:103ddc00b46c80004462900004c272009e02900099
:103dec00e4429800b46c8000a4629000054f780007
:103dfc001e4278000483fb009e4278000582fb0083
:103e0c0075c4200065427a0084427800b46c80004e
:103e1c003462900004c2ea0004c2620075c420003f
:103e2c0084727b009e4278000582fb0075c42000e2
:103e3c0065427a00e04f520008003a00b46c8000f2
:103e4c004462900084c2ea0064c4200014427800ea
:103e5c0004c2620065c42000844a78000080fa0025
:103e6c00000006000800fa0030079800b46c8000cf
:103e7c008002eb00150a9800b46c8000be02900022
:103e8c00250a98003e029000040f78001e0278006c
:103e9c0094027800150798001b003700b46c800062
:103eac00246290000483fb00b46c800024629000b8
:103ebc000482fb009e0290006602420004824200d3
:103ecc0094429000b46c80003462900004c2720082
:103edc009e02900086824200f44298001e029000de
:103eec00e4429000b46c80004462900004c2720002
:103efc009e029000e44298001e8fe8001e0278009b
:103f0c0094027800150798001e029000e00f5200f2
:103f1c00e2ff3a00b46c8000a46290004547980020
:103f2c004e4290000483fb004e4290000482fb0042
:103f3c0075c4200065427a0084427800b46c80001d
:103f4c003462900004c2ea0004c2620075c420000e
:103f5c0084727b004e4290000482fb0075c42000ea
:103f6c0065427a00e04f520008003a00b46c8000c1
:103f7c004462900084c2ea0064c4200014427800b9
:103f8c0004c2620065c42000844a78000080fa00f4
:103f9c00000006000600fa001007980021079800a0
:103fac001e029000a4629000054f78001e4278001b
:103fbc000483fb009e4278000582fb00ae02900059
:103fcc00660242000482420014429000844278004f
:103fdc001e0290003462900004c2ea0004c2620027
:103fec00ae02900086824200f44298009e42780015
:103ffc000582fb00ae029000660242000482420081
:10400c0014429000e04f520009003a002e0290003a
:10401c0064429000844278001e029000446290003a
:10402c0004c2ea0004c26200ae029000e4429800ae
:10403c000080fa00000006000c00fa00400798000f
:10404c00510798004e029000a462900045479800da
:10405c004e029000c4629000554798004e029000aa
:10406c00b4629000654798005e029000040f7800df
:10407c001e02780094027800150798002300370080
:10408c004e4290000483fb004e4290000482fb00e1
:10409c009e0290006602420004824200144290008c
:1040ac00844278006e42900004c2ea0004c26200ae
:1040bc009e02900086824200f44298004e4290008c
:1040cc000482fb009e0290006602420004824200c1
:1040dc0014429000e04f520008003a001e0290007b
:1040ec0064429000844278005e42900004c2ea0070
:1040fc0004c262009e029000e44298001e8fe80009
:10410c001e02780094027800150798001e02900099
:10411c00e00f5200daff3a000080fa0000000600bf
:10412c000600fa0020079800ae0290000042eb0057
:10413c00e44298002e029000670f42000042eb0010
:10414c0024479800070037009e0278000042eb00dd
:10415c00844a78001e0fe8002e4290000442e800ca
:10416c00244798002e429000e74f5200f6ff36008d
:10417c000080fa00000006000600fa0064802000af
:10418c000128200004007800cb0007006480200088
:10419c001407980064822000240798000002eb00aa
:1041ac00040f7800130037009e0290000042eb00d1
:1041bc00844a78001e029000ae029000150298000e
:1041cc009e029000f4c3b300f44a98009e02900043
:1041dc000042eb00845298001e0290000402b000d2
:1041ec00140798002e0290000402b00024079800d7
:1041fc001e0fe8001e027800f20f5200eaff360094
:10420c009e0290000042eb00844a78001e0290004f
:10421c008002eb00150298009e029000f4c3b300dc
:10422c00f44a98009e0290000042eb0084529800e1
:10423c0064802000244088000080fa000000060002
:10424c000000fa006022b80064a9880075a98800f3
:10425c0025c420000042eb00844a780035c42000bd
:10426c000042eb00844a780005c520000042eb00b8
:10427c00844a7800f5c420000042eb00844a7800a0
:10428c006022b80004408800154088006022b80005
:10429c0094628800a56288006022b800e457880008
:1042ac00f55788006022b800c4578800d55788009d
:1042bc0005b020000042eb00844a78000080fa0030
:1042cc00000006000400fa0065c420000042eb0068
:1042dc00844a780074c42000140798000042eb0054
:1042ec00044f7800070037009e0290000042eb005c
:1042fc00844a78001e0290000402e800140798001b
:10430c001e4fe8001e427800e74f5200f6ff3600c1
:10431c0045c420000042eb00844a780055c42000bc
:10432c000042eb00844a78000002eb00d46c880059
:10433c000002eb00b46c88000080fa00000006005c
:10434c000200fa0034002000841f78000002eb0009
:10435c00841f7800060a20000700200045d92000a1
:10436c000082eb00f3c3b30062c520008000eb00b9
:10437c0060392200690d0700e4875700a45e29000c
:10438c000e01780084007800f0c3b300160f07000c
:10439c000080fa00000006000200fa003400200041
:1043ac00841f78000002eb00841f7800060a2000ae
:1043bc000700200005c42000e4ff2f00e3c3b30076
:1043cc0022b020008000eb00003c2200530d0700bf
:1043dc00e4875700845f29000e0178008400780080
:1043ec00e0c3b300000f07000080fa0000000600d5
:1043fc000600fa00e4e120000163200004007800cc
:10440c002d000700e4d920000108200004007800ea
:10441c0029000700e4e120001407980064e620005e
:10442c00240798000042eb00044f7800100037007e
:10443c001e029000ae029000750298009e02900041
:10444c00f4c3b300847a98009e0290000042eb0003
:10445c00947a98001e0290008404b000140798000f
:10446c002e0290008404b000240798001e4fe80030
:10447c001e427800f44f5200edff36001e029000f1
:10448c008002eb00750298009e029000f4c3b3000a
:10449c00847a98009e0290000042eb00947a980077
:1044ac000002eb00e46c8800e4e12000c46c88009e
:1044bc000080fa00000006000400fa00000f7800eb
:1044cc0011079800070037009e0278000042eb00ad
:1044dc00844a78001e0fe8001e0290000402e900d6
:1044ec00140798001e029000e00f5200f6ff3a00ed
:1044fc000080fa00000006000600fa00000f7800a9
:10450c0011079800220798000b0037001e0290003c
:10451c00144278009e027800844a78001e0fe8004e
:10452c001e0290000402e800140798002e0290006e
:10453c000402e900240798002e029000e00f5200bc
:10454c00f2ff3a000080fa00000006000200fa00b8
:10455c000002eb00040f780014028000040f7800b6
:10456c00140280000450a0000460a0000470a0009d
:10457c001402880024c4200014427800e04f52003a
:10458c0021003a0034c4200014427800e04f52005d
:10459c001d003a002000070054c42000944278000b
:1045ac0044c420001442780084cf5200160032001c
:1045bc0054c42000144278000482fb0084024200a0
:1045cc00e4d920000482420014027800d46c8800e4
:1045dc00d66c800036129000c61290006102420028
:1045ec00e0824a0034139800451398000440800080
:1045fc001540800061024200e0824a0004408800bd
:10460c0015408800912e07001e02780014028800c5
:10461c000080fa00000006000200fa0064c42000ca
:10462c00144278000482fb00a54e2900654f7a00e5
:10463c001e427800350020008522dd001e437800e4
:10464c000682fb0076c4200066427a000482fb00de
:10465c00a64e290066427a0004c2420055c42000ce
:10466c00844a78000080fa00000006000600fa0078
:10467c0010079800210798000042eb00044f7800c7
:10468c000b0037002e029000144278009e0290001e
:10469c00844a78001e0290000402e8001407980077
:1046ac002e0290000402e800240798001e4fe80038
:1046bc002e02900014427800e04f5200f1ff3a00b5
:1046cc009e0290000042eb00844a78001e42780063
:1046dc00044078000080fa00000006000400fa0094
:1046ec00100798000042eb00044f780004003700dc
:1046fc001e0290000402e800140798001e4fe80008
:10470c001e02900014427800e04f5200f8ff3a006d
:10471c001e427800044078000080fa000000060079
:10472c000400fa00100798000002eb00040f780058
:10473c0014028000040f7800140280000450a000c2
:10474c000460a0000470a000140288009462800031
:10475c00a562800061024200e0824a0094628800f7
:10476c00a56288001e02780014028800092b07003d
:10477c00efff37000400fa00100798000002eb006e
:10478c00040f780002003700800c2000a6290700d7
:10479c0004b0200014427800e04f5200faff3200bf
:1047ac00c4578000d557800042062000030020002b
:1047bc000400be00c6f007000002be00c45788000b
:1047cc00d5578800c4578000d5578000e00f5200a1
:1047dc00e08f5a0005003a0065af20000042eb0064
:1047ec00844a780000c0eb00130f0700140280000d
:1047fc00040f7800140280000450a0000460a00094
:10480c000470a0001402880094628000a5628000ed
:10481c00e4578800f55788006022b800946288003d
:10482c00a56288001e02780014028800e6578000fa
:10483c00f7578000c4578000d55780000401be0094
:10484c000600be00a2f007000002be000442780081
:10485c0045c6b30004c2520065af2000844a7800fc
:10486c00d02a070003000700400620006e2907002d
:10487c00deff37000c00fa000042eb00044f78001a
:10488c002700370064024700840078001e4078003f
:10489c007f0e070000427800144798001e429000db
:1048ac00e04f52001d003a009e4278000582fb004a
:1048bc0084024200e4d92000048242009402780071
:1048cc00150798001e029000e00f520013003200f2
:1048dc001e029000e10f5200100032001e029000e8
:1048ec00240390001e029000c40290003402900039
:1048fc0004027800040242000402ea00840243002d
:10490c001e029000151a98004e029000de029000d4
:10491c001e039000241b9800351b98001e4fe800c6
:10492c00f4c3b3009e42780084cf5200d5ff36000a
:10493c000080fa00000006001400fa0040479800be
:10494c0031079800420798005307980064079800b5
:10495c0075079800060f9800170f98000002eb00df
:10496c00040f780014028000040f780014028000f9
:10497c000450a0000460a0000470a0001402880081
:10498c00c56c8000150798001e029000e00f5200c5
:10499c00a40032001e02900074029000c46c8800c7
:1049ac001e037800160288001e029000be039000c1
:1049bc00070a78001e029000ce4290000562980013
:1049cc009e0290000042eb00e45a98009e02900078
:1049dc000042eb00f45a98001e0290008002eb009b
:1049ec00650a98001e0290000e0b900016029800ab
:1049fc001e0290006e039000fe0390003602980099
:104a0c00470298001e029000ce03900027029800e7
:104a1c001e0290009e0a9000550298001e02900003
:104a2c005e039000660298009e0290000042eb002c
:104a3c00d46298004e4290000482fb004322de00b8
:104a4c00044278009e029000a46298004e429000ae
:104a5c00674262009e029000946298001e029000d1
:104a6c00246290000482fb0015002000042add0063
:104a7c00044278009e029000c46298001e029000ce
:104a8c00146290000482fb0015002000042add0053
:104a9c00044278009e029000b46298001e029000be
:104aac008002eb00150a98001e0290008002eb00b9
:104abc00250a98001e0290008002eb00450a98001f
:104acc001e0290008002eb00350a98001e03900035
:104adc006022b80034139800451398001e03900010
:104aec006022b80074139800051b98001e039000f8
:104afc006022b80054139800651398001e029000b1
:104b0c008002eb00151a98001e0390006022b8007a
:104b1c00241b9800351b98009e029000f4c3b30030
:104b2c00847a98009e0290000042eb00947a9800e0
:104b3c001e009000232a07001e009000092a07007f
:104b4c0017028000070f7800140280000450a000a8
:104b5c000460a0000470a000140288004e42900073
:104b6c000482fb0084024200e4d92000048242004b
:104b7c009e029000050a7800e56c80001e029000f1
:104b8c00750298001e0290008002eb00050a980046
:104b9c00e46c8000e00f520003003200e46c8000f3
:104bac001e039000060a98009e039000e76c880094
:104bbc001e029000c462900064c42000144278006d
:104bcc0004c2720065c42000844a78001e02900062
:104bdc00246290000483fb001e029000246290006b
:104bec000482fb0075c42000e5427a001e0290008e
:104bfc003462900004c2720075c4200084727b0081
:104c0c0004c52000144278000442e80005c52000c9
:104c1c00844a78001e027800140288000042eb00df
:104c2c00030037009e0278001502880024c4b300ec
:104c3c00044078000080fa00000006000000fa0032
:104c4c000002eb00841889000002eb009418890024
:104c5c007b2e07006022b800841789009517890005
:104c6c006022b800a4178900b51789006022b8002b
:104c7c00c4178900d51789006022b800e417890091
:104c8c00f51789006022b8000418890015188900ee
:104c9c006022b80024188900351889006022b800f9
:104cac0044188900551889006022b80064188900de
:104cbc00751889008467250045232100b41c8900e0
:104ccc00c51c89000002eb00d41c89000002eb001b
:104cdc00a41c89000080fa00000006001000fa00f5
:104cec0040079800510798006207980073079800d6
:104cfc006e029000e10f520002003e000002eb0039
:104d0c007a0037004e029000140798005e02900063
:104d1c00240798001e0290000402e8001442780058
:104d2c000482fb00c822dd001e02900014427800b1
:104d3c000482fb0004824200340798001e0290009b
:104d4c000482e800140798008417810095178100ed
:104d5c0061024200e0824a0084178900951789009d
:104d6c00a4178100b517810061024200e0824a005d
:104d7c00a4178900b51789003e0290006123b80082
:104d8c000082eb008082eb000602420087824a0020
:104d9c009600200007002000860f5200878f5a00d3
:104dac004b003e000460010009003700180037007a
:104dbc00270037000e00370045003700440037004d
:104dcc001b0037002a00370031003700380037004d
:104ddc00fe0190006e019000ae0090001e0090004d
:104dec000f01070000027800040f78003e00370026
:104dfc00fe0190006e019000ae0090001e0090002d
:104e0c00b301070000027800040f78003600370069
:104e1c00fe0190006e019000ae0090001e0090000c
:104e2c00e901070000027800040f78002e0037001b
:104e3c00fe0190006e019000ae0090001e009000ec
:104e4c002f02070000027800040f780026003700bc
:104e5c00fe0190006e019000ae0090001e009000cc
:104e6c009e02070000027800040f78001e00370035
:104e7c00fe0190006e019000ae0090001e009000ac
:104e8c00dd02070000027800040f780016003700de
:104e9c00fe0190006e019000ae0090001e0090008c
:104eac004903070000027800040f78000e00370059
:104ebc00fe0190006e019000ae0090001e0090006c
:104ecc00eb03070000027800040f7800060037009f
:104edc0091cfb3002e009000b900070000027800bb
:104eec00040f7800000000001e0278000400780017
:104efc000080fa00000006000400fa001007980079
:104f0c0014028000040f7800140280000450a000ea
:104f1c000460a0000470a000140288001e0290001f
:104f2c00d41c89001e027800140288000080fa004c
:104f3c00000006000400fa0010079800140280001c
:104f4c00040f7800140280000450a0000460a0003c
:104f5c000470a000140288001e029000a41c89009a
:104f6c001e027800140288000080fa00000006007f
:104f7c001400fa00000f9800110f98001e0a900000
:104f8c00e00f520005003a000040eb00cc2d07006a
:104f9c0000427800044f78000400370010c0b300c2
:104fac00c72d070000427800044f78001e4278009d
:104fbc00e04f520002003a000042eb005f00370065
:104fcc000e089000221c070000027800050020004b
:104fdc001407980025079800510037009418810099
:104fec00640798008418810074079800ee02900002
:104ffc007e029000848f520006003600ee02900074
:10500c007e029000048252000402e90044079800da
:10501c000c0037006e029000e00f520005003a00c1
:10502c00f50720007e02900004825200440798008d
:10503c0004003700050820007e0290000482520014
:10504c00440798004e029000e00f520009003a000d
:10505c001e0a9000e00f520003003a00b82d070022
:10506c000042eb00350037001e089000812d070030
:10507c002b0037004e0290006123b8001e029000f6
:10508c00ae029000840f5300858f5b000300360046
:10509c001e02900054079800020037004e02900048
:1050ac0054079800fe0290005e02900004824200b9
:1050bc0034079800be02900004082000848f520030
:1050cc0002003a000002eb0034079800fe02900048
:1050dc0044312200048242005e0190008e08900050
:1050ec00040078000a2507003e029000841889000d
:1050fc008e0a90005e02900004824200040f980019
:10510c005e029000050020001e039000ae0390008c
:10511c000402530085825b00140798002507980051
:10512c001e029000ae029000e00f5200e08f5a0079
:10513c00aaff3a00822d070014c0b3000440780087
:10514c000080fa00000006000600fa0084188100b6
:10515c001407980094188100240798009e02900070
:10516c002e029000848f520003003a000042eb00a4
:10517c00044f78000200370014c0b300044f7800cd
:10518c001e427800044078000080fa0000000600ff
:10519c000200fa000042eb00044f7800eaff07001f
:1051ac0000427800e14f520001003a001e04a000ba
:1051bc001e427800044078000080fa0000000600cf
:1051cc000400fa00000f78002147980004188100b1
:1051dc001518810061024200e0824a00041889001f
:1051ec0015188900010028000e00780098030700ac
:1051fc00ae4090000e00780089030700e4ff070022
:10520c0000427800844078000e0078008403070088
:10521c0044002000040078000080fa000000060022
:10522c001000fa0040079800510798006207980098
:10523c00730798000002eb00140798000002eb00c3
:10524c00040f78006e029000e40f5200060032004a
:10525c005e029000e1cfb30004007800d8ff070095
:10526c0000027800970037006802470004007800bd
:10527c004203070000027800140798001e029000f9
:10528c0015202000850f52000a0032001520200046
:10529c00850f520004003e001410b100e10f5200c3
:1052ac0027003e000300370015002100850f520037
:1052bc0023003a006a02470011002800040078001d
:1052cc00630307006a02470011c0b30004007800b2
:1052dc0053030700aeff070000427800ea024700c4
:1052ec0084407800050078004d0307001e029000f2
:1052fc0015202000850f520054003200152020008c
:10530c00850f520007003e0015102000850f52003b
:10531c001100320025102000850f520019003200b8
:10532c006300370015002100850f52002000320069
:10533c0025002100850f5200500032005c00370020
:10534c005e029000c1cfb300040078009cff070000
:10535c00000278005b0037006a024700010420005d
:10536c00040078003a0307006a0247008000eb0053
:10537c00040078003603070044002000040f780076
:10538c004e0037006a024700010420000400780038
:10539c002f0307006a0247008000eb00040078002e
:1053ac002b03070044002000040f78004300370053
:1053bc006a02470011002000040078002403070053
:1053cc006a02470041002000040078002003070017
:1053dc006a02470021002000040078001c0307002b
:1053ec006a024700710020000400780018030700cf
:1053fc0084002000040f78006a024700310020006e
:10540c0004007800120307006a02470081002000a4
:10541c00040078000e0307001e027800640f42009f
:10542c006a0247009100200004007800080307007e
:10543c006a024700a1002000040078000403070062
:10544c009e027800648f42001c00370084672500a0
:10545c0045232100b41c8900c51c89005e02900004
:10546c004200200061392200040078002824070043
:10547c0044002000040f780010003700840c20003a
:10548c000500200024079800350798005e02900064
:10549c00e4024700420020008500780004007800f8
:1054ac001b24070044002000040f78000300370081
:1054bc000002eb00040f7800000000009e02780050
:1054cc0064824200040078000080fa0000000600ac
:1054dc001200fa00500798006107980072079800b4
:1054ec00030f98007e029000e80f52000600320075
:1054fc006e029000e1cfb3000400780030ff07008b
:10550c00000278002d00370014028000040f780090
:10551c00140280000450a0000460a0000470a000dd
:10552c0014028800d41c8100140798001e02780015
:10553c00140288001e029000e00f5200100032008e
:10554c006a024700040078008c0207000002780011
:10555c00240798006a0247000400780099020700ab
:10556c000002be0034079800450798001e02900008
:10557c003e019000ce0190002e009000040001002e
:10558c006c0247004100280004007800b0020700bc
:10559c006c02470011c0b30004007800a0020700a1
:1055ac00fbfe070000427800ec02470084407800c4
:1055bc00050078009a0207004400200004007800df
:1055cc000080fa00000006000c00fa00200798008a
:1055dc003107980042079800530798000002eb002f
:1055ec00040f78000002eb00140798004e029000a4
:1055fc00e80f5200060032003e029000e1cfb300eb
:10560c0004007800eefe0700000278003900370035
:10561c00640247000400780058020700000278007a
:10562c001407980064024700040078005302070036
:10563c0000027800040f78001e029000e402420081
:10564c005e029000848f5200060036003e029000ed
:10565c00d1cfb30004007800d9fe07000002780017
:10566c0024003700c4178100d51781006102420065
:10567c00e0824a00c4178900d51789001e029000e9
:10568c006123b800e4178100f5178100060242007f
:10569c0087824a00e4178900f517890066024700e3
:1056ac002100280004007800690207006602470008
:1056bc0011c0b3000400780059020700b4fe0700c3
:1056cc0000427800e602470084407800050078002c
:1056dc00530207009e0278003e0290001e019000cb
:1056ec008500780004007800892307001e029000d2
:1056fc0064024200040078000080fa0000000600fa
:10570c001600fa00881f780070079800010f9800a7
:10571c00120f9800230f98001e0a9000e60f5200fb
:10572c0005003e00e1cfb3000e089000a4fe070078
:10573c0000027800650037000e0a900044079800bc
:10574c0044002000040f78008e0a900074c0b3004f
:10575c00844a78000e0a90008402e80004c8b30062
:10576c00844a78000e0a90008482e80014c0b300ca
:10577c00844a78000e0a90006304420084fe0700fd
:10578c0000427800044c78000e0a9000640242003b
:10579c00040f980074002000140798000002eb001e
:1057ac00240798000002eb00340798003200370001
:1057bc007e029000144278000482fb00540798008b
:1057cc007e0290000482e800144278000482fb0000
:1057dc00c822dd007e0290000402e800144278002a
:1057ec000482fb0004824200640798007e02900051
:1057fc0065024200740798001e0290006502420088
:10580c00140798005e0290001e0f42002e0a9000b2
:10581c009e027800848f5200070036004e029000e2
:10582c00040f9800d1cfb3000e08900064fe07005f
:10583c0000027800250037002e0290000402e800d8
:10584c0024079800be0290005e0290000482420081
:10585c00340798006e0290005e019000840078007e
:10586c000e0890002a2307008e0a90005e0290001a
:10587c0004824200040f98009e0290001e0a9000c1
:10588c00848f5200caff36002e0290006123b800ac
:10589c00c4178100d51781000602420087824a0096
:1058ac00c4178900d51789003e0290006123b80007
:1058bc00e4178100f51781000602420087824a0036
:1058cc00e4178900f51789001e027800040078009f
:1058dc004f0478000080fa00000006000e00fa0069
:1058ec00300798004107980052079800630798000a
:1058fc005e029000e70f520006003e004e02900040
:10590c00e1cfb300040078002dfe07000002780000
:10591c003600370066024700040078009701070044
:10592c0000027800040f780066024700040078003b
:10593c009201070000027800140798003e029000c4
:10594c000482e800340798001e027800e802420046
:10595c005e029000848f5200060032004e029000ce
:10596c00e1cfb3000400780015fe070000027800b8
:10597c001e003700140280002407980014028000d7
:10598c000450a0000460a0000470a0001402880061
:10599c00be0290001e0290001e0178008500780067
:1059ac0004007800da2207002e029000140288000e
:1059bc00680247003100280004007800a4010700a9
:1059cc006802470011c0b30004007800940107007e
:1059dc00effd070000427800e802470084407800a1
:1059ec00050078008e0107004400200004007800b8
:1059fc000080fa00000006001400fa00600798000e
:105a0c0071079800020f9800130f98000e0a90006f
:105a1c00e60f520006003e007e029000e1cfb3007c
:105a2c0004007800e6fd07000002780063003700f0
:105a3c0074002000040f78000002eb00140798009b
:105a4c000002eb0024079800390037006e0290002a
:105a5c00144278000482fb00340798006e02900018
:105a6c000482e800144278000482fb00c822dd00a6
:105a7c006e0290000402e800144278000482fb00dd
:105a8c0004824200440798006e02900065024200b6
:105a9c00640798003e0290009e0242000e0a90009d
:105aac00848f5200060036007e029000e1cfb300d6
