:020000040000fa
:080000000002040000000000f2
:020000040000fa
:10000800b4020000b4020000b4020000b402000010
:10001800b4020000b4020000b4020000b402000000
:10002800b4020000b4020000b40200002026000060
:10003800b4020000b4020000b4020000b4020000e0
:10004800b4020000b4020000b4020000b4020000d0
:10005800b4020000b4020000b4020000b4020000c0
:10006800b4020000b4020000b4020000b4020000b0
:10007800b4020000b4020000b4020000b4020000a0
:10008800b4020000b4020000b4020000b402000090
:10009800b4020000b4020000b4020000b402000080
:1000a800b4020000b4020000b4020000b402000070
:1000b800b4020000b4020000b4020000b402000060
:1000c800b4020000b4020000b4020000b402000050
:1000d800b4020000b4020000b4020000b402000040
:1000e800b4020000b4020000b4020000b402000030
:1000f800b4020000b4020000b4020000b402000020
:10010800b4020000b4020000b4020000b40200000f
:10011800b4020000b4020000b4020000b4020000ff
:10012800b4020000b4020000b4020000b4020000ef
:10013800b4020000b4020000b4020000b4020000df
:10014800b4020000b4020000b4020000b4020000cf
:10015800b4020000b4020000b4020000b4020000bf
:10016800b4020000b4020000b4020000b4020000af
:10017800b4020000b4020000b4020000b40200009f
:10018800b4020000b4020000b4020000b40200008f
:10019800b4020000b4020000b4020000b40200007f
:1001a800b4020000b4020000b4020000b40200006f
:1001b800b4020000b4020000b4020000b40200005f
:1001c800b4020000b4020000b4020000b40200004f
:1001d800b4020000b4020000b4020000b40200003f
:1001e800b4020000b4020000b4020000b40200002f
:0801f800b4020000b402000093
:020000040000fa
:10020800b4020000b4020000b4020000b40200000e
:10021800b4020000b4020000b4020000b4020000fe
:10022800b4020000b4020000b4020000202600005e
:10023800b4020000b4020000b4020000b4020000de
:10024800b4020000b4020000b4020000b4020000ce
:10025800b4020000b4020000b4020000b4020000be
:10026800b4020000b4020000b4020000b4020000ae
:10027800b4020000b4020000b4020000b40200009e
:10028800b4020000b4020000b4020000b40200008e
:10029800b4020000b4020000b4020000b40200007e
:1002a800b4020000b4020000b4020000b40200006e
:1002b800b4020000b4020000b4020000b40200005e
:1002c800b4020000b4020000b4020000b40200004e
:1002d800b4020000b4020000b4020000b40200003e
:1002e800b4020000b4020000b4020000b40200002e
:1002f800b4020000b4020000b4020000b40200001e
:10030800b4020000b4020000b4020000b40200000d
:10031800b4020000b4020000b4020000b4020000fd
:10032800b4020000b4020000b4020000b4020000ed
:10033800b4020000b4020000b4020000b4020000dd
:10034800b4020000b4020000b4020000b4020000cd
:10035800b4020000b4020000b4020000b4020000bd
:10036800b4020000b4020000b4020000b4020000ad
:10037800b4020000b4020000b4020000b40200009d
:10038800b4020000b4020000b4020000b40200008d
:10039800b4020000b4020000b4020000b40200007d
:1003a800b4020000b4020000b4020000b40200006d
:1003b800b4020000b4020000b4020000b40200005d
:1003c800b4020000b4020000b4020000b40200004d
:1003d800b4020000b4020000b4020000b40200003d
:1003e800b4020000b4020000b4020000b40200002d
:0803f800b4020000b402000091
:020000040000fa
:100400006fe820000eff27000e01880000000000aa
:1004100000012000200288000c000700a0722200ca
:10042000010020001f000700000020000000e00085
:10043000020032000000020000000000a0240200c0
:10044000000000000040da000000fe004440a90067
:10045000c00620000000e000030032000000200081
:10046000a00188004440a80000000600f03fb10051
:100470000180b10006003500ee0309000000000015
:10048000403fb1000180b100fbff3d001000b00013
:10049000203fb0000200350000800900000000008d
:1004a0000000060091018800800078000000eb0049
:1004b00015003700e280400032a0b4009101ba007c
:1004c000e280400032a0b4009102ba00e280400015
:1004d00032a0b4000002eb00472bde00f507b200ab
:1004e000602ce10004003a000059eb008301e900b0
:1004f000fdff3e00040037006128e10001003200ea
:100500000082eb00040007001101ba000200e000c5
:10051000e8ff3a00000006003159ba008301e90003
:100520000c0032002159ba008301e90008003200b2
:100530000400e00003003a00e280400032a0b40072
:10054000f5ff370011d9ba008301e900faff3a003c
:100550008100e800e180400032a0b4000000060005
:100560003e250400000000000040da000000fe000c
:1005700000c0da00000006000a00fa00e20f500096
:1005800022003e0014548000e10f520006003200a9
:100590008723200046232000242320000523200059
:1005a000e08f530004003a008722200046222000fa
:1005b00024222000052220000000280015006000f1
:1005c00003003a00800b780007002800958a73002a
:1005d000054020009482620001003a0014a0a000af
:1005e0008202780006003700940378000710b200fa
:1005f000fdff3200b103fb00070b78008502e90024
:10060000e08f5200f8ff3a00080037003400200065
:10061000b4bf9f00c0bf9f00d1bf9f00e2bf9f003b
:100620006a805700d2ff07006fb997000200780078
:100630000080fa0000000600889fbe008004780059
:1006400020548000e00f500004003a000e00070024
:100650000084eb00e00f50000800350028548000b3
:10066000e08f540005003200090044000600070036
:10067000e00f500001003d000084eb00080078000e
:100680004f04be0000000600e00f500004003a00d6
:1006900064a8200024548800000278000600370077
:1006a0000082eb0065e82000850f500002003e004c
:1006b000205488000002eb000400780000000600cf
:1006c0004f89de0082017800fb003700889fbe0062
:1006d0008a9fbe008c1f7800070107000e013300bf
:1006e00003866c006450e100240032006420e100c5
:1006f000270032006150e100220032006120e10059
:10070000210032008b854200eb07b1000134b800b4
:10071000003ab8000804420089844a00013ab8004f
:100720000030b8008880400009014a00040033000e
:100730000000400081804800020149008b05e9006b
:10074000c909dd00830170000100320013002000a0
:10075000c814de004814dd004709de001200b200b4
:10076000c808de0008847000fb00070001f0a1004b
:100770000cf0a70001f0a000f00037006120e100bc
:10078000f20032000801be000200be00f7ff370091
:100790006150e100fcff3a00ec0037000001be00b0
:1007a000130107000470a70003f0a1006509b10060
:1007b000160032000d0035006828e1000600350003
:1007c000f0ff2f00f1ff27000300e00013003b00c3
:1007d0000100280000000500000040008180480062
:1007e0008502e900fcff3a0008003700f88f42005c
:1007f00002003c008000eb00000005008100d100f9
:100800000080d3008502e800fcff3a000300e0000e
:1008100002003b0060001000e080180000000600ad
:100820001400200007013700f4ff2f0005013700f6
:1008300003f0a200889fbe008a9fbe008c1f780034
:10084000ad000700b40033006450e1004f003200f7
:100850006420e1005200320003826c0007003b007c
:100860000905d0000306d000820f54000c065d007d
:100870000200390002003200890178000306780086
:100880008582550004003d000003fd008103fd004a
:100890008502ea008b854200840f720002003b0053
:1008a00060001000e08018006011b8000005eb0047
:1008b0007a28e1000a00390006007800c75ddd00f3
:1008c000f707b200878075002d0037008281710024
:1008d0000a017800610560008180d1000080d300aa
:1008e0008502e900f9ff3b000604400087844800c8
:1008f00002003b0060041400e0841c000988a3008f
:10090000070032008a8171008281710061016400f8
:100910008904d1000884d3008b05e8001700370054
:100920000978a30013003a000b00e0001300340024
:100930008b05e9000804440089844c000a447400d3
:100940000978a3000d003a000b00e0000700340016
:100950008b05e9000804440089844c0001003a003a
:100960000b0020000978a300f7ff32000001eb0024
:1009700002003700828171000a01780076000700ca
:100980000cf0a70001f0a0006c0037006420e1002b
:1009900002003a00838f6c006c0033000801be0037
:1009a0000200be0065003700889fbe008a9fbe001f
:1009b0008c1f7800500007005700330003866c003e
:1009c0006450e1002e0032006420e1003300320068
:1009d0006150e1002f0032006120e100310032005f
:1009e00085855500eb07b0000900200008042000b1
:1009f000050037000804440089844c000a003100d7
:100a00000603430087834b000001530081815b0094
:100a1000f8ff33000203be000800a00008044400f1
:100a200089844c00f6ff3900c639dd00830173006c
:100a300001003200130020008904d1000884d30093
:100a40000998a300050032000800a7000300a000d9
:100a50008904d1000884d3008b05e8008904d10003
:100a60000884d3000001eb000281d2003a000700a5
:100a700001f0a1000cf0a70001f0a0002f0037004a
:100a80006420e100310032000801be000200be0017
:100a9000f7ff37006120e1002c0032006000b80051
:100aa000f3ff37000000200001f82700f0ff3700b7
:100ab0006011b8007e003700881f780003047800ba
:100ac0000300e00007003d0060001000e080180017
:100ad00060011900e081190002003b0001f02d00c7
:100ae000030037007200070008f0a70001f0a00023
:100af0004f047800000006000004be003c00070020
:100b00000003be000405be000200be00380007005e
:100b1000844f7500000006000200be006450e10032
:100b2000050036006420e100020036000968a300d9
:100b300001003a000800be000160a0004f067800e6
:100b40004f05be004f04be0000000600f0ff2f005e
:100b5000f1ff2700f9ff3700810020006180550078
:100b60000b003d000b00200061fe2f000100e100a2
:100b70001d00340082817100610164008904d1008c
:100b80000884d3000000e800faff3a00710020005a
:100b90006100640003007000020060000900320080
:100ba00061044400e0844c000988a500050032007f
:100bb0008b05e8006808e10002003a008904d100d2
:100bc0000884d300f20f20000258e10005003d0028
:100bd000c75ddd00f907b200898075000800780064
:100be000000006000bf827008b00780000000500cd
:100bf000c70ade00f107b200f50fb20008003200ac
:100c0000e1cf4200020032000170a0002400050084
:100c1000810f700001003200040805004400050047
:100c2000810f700002003a00140005008502e900ff
:100c30000000400081c04800fcff3b000170a000a4
:100c400024000500889fbe008a9fbe00841f780094
:100c5000a9ff07004f00780011003300f0ff2f00bc
:100c6000838f6c0006003b00040565000a00a700a6
:100c70000800370009f0a600100020000800370027
:100c8000820f5400838f5c000300390010002000a5
:100c900001003e000000200009f0a7000000ea006b
:100ca0004f05be004f04be000000e000000006003b
:100cb000889fbe008a9fbe000082700004027100ff
:100cc00004827100260032000004be000200be0053
:100cd0006011b8006b092000950220000182cf004e
:100ce0000a0039000541b1000082cf000700390039
:100cf0000541b1000982cf00040039000541b1006f
:100d00000882cf00010039000541b10005425200c0
:100d1000120032000a003b00828171006101640010
:100d20008100d1000080d3008984d3000884d300df
:100d30008b05e8000442e800f7ff3a00070037009f
:100d40000804440089844c00000048008180480069
:100d50008b05e9000442e900f9ff3a007eff070035
:100d60004f05be004f04be00000006002800fa0038
:100d7000889fbe008a9fbe008c9fbe0003866b00ca
:100d8000450307000028a30064003a000128a300df
:100d900067003a000008a30062003a000108a300bf
:100da00065003a001e009000be08900081064000d9
:100db000ed3fb100f4805700ee019000111ab80029
:100dc0008e099000311bb8009e099000311cb800bc
:100dd000511db800f485570046000700fe01900041
:100de0003a0007008b85e8003e0007008e0990005e
:100df00040000700ee019000340007008b85e800fa
:100e0000380007008e099000400007009e099000fe
:100e10001b18b800890440000a854800fe019000b4
:100e2000340007008b85e80038000700ee019000d1
:100e3000300007008e0990001b18b800890440009c
:100e40000a8548000a98a30008003a0004024200fc
:100e500085824a0006034b0087834b0008044c0040
:100e600089844c000a054d008d06e90084827200d9
:100e7000850273004c3add008502720001003200e9
:100e800015002000443ade001400b2004538de00b0
:100e9000cb45dd000b007000c540de00cb4ddd0012
:100ea0008b8070004549de00cb55dd000b017100e1
:100eb000c551de000d0378001003070003f0a10008
:100ec0000cf0a70003f0a000070337001b18b800c0
:100ed0008502400006834800e0834b0060044c001c
:100ee000070037001b18b80006034000878348003e
:100ef000faff37001b18b800870340000884480039
:100f0000e0844c0060054d00000006001b18b8008e
:100f10000804400089844800faff37000108a30054
:100f2000ee023a005800be005801be00e3ff370051
:100f30000008a300e9023a0009047800f9ff37002d
:100f4000810378002aff07000001be006000b8009e
:100f50000478a30013003a006220e10015003e006f
:100f60000d0039008301d1000281d3008180d300bc
:100f70008301d1000281d3008180d3008301d1009d
:100f80000281d3008180d3000538b000c42add007f
:100f9000f300b2008381720007f0a70003f0a00005
:100fa00000000600f3ff2700f2ff2f006110b900d8
:100fb000fbff370003ff2700f7ff37008f1fd1002b
:100fc000fa0207008f87e9000000e0000000060039
:100fd000801feb00f50207008f87e9000000e000aa
:100fe000000006001400fa00889fbe008a9fbe0021
:100ff0008c9fbe000005be000206be0068004700d0
:101000000c90be000a90be00110307006400e100ce
:101010001a00320016003e006100e1001a003200a2
:101020006e049000fe0490000e0b90009e0b90004a
:101030006011b8009e0590000b38b100d50120006a
:1010400082817100610164008703d1000683d300af
:101050008984d3000884d3008502e900f8ff3a00b0
:10106000bdfe07000df0a70001f0a0009e023700b2
:10107000f1ff2700f0ff2f009b02370001f8270047
:1010800000002000f7ff37006000b800f5ff3700d0
:10109000160307000509780000000600809feb009a
:1010a000c20207008f87e9000000e0000000060090
:1010b0002800fa00889fbe008a9fbe008c9fbe0059
:1010c00007067800878669000c003b00030478005f
:1010d0008704780008f0a10009f0a100840f5000f7
:1010e000858f5800860f5900890f5c00030033007c
:1010f0000cf0a20001003a000cf0a100660207000b
:101100006400e1005f003200780147006408e100fc
:10111000610032006c014700748557003200be0048
:101120001201be003a04be001a05be001e03900064
:10113000be0a90008503530006003d000004fd0038
:101140008104fd000205fd008305fd008703ea0020
:10115000050378000df8a3000400320060041400b9
:10116000e0841c0060051d00e0851d006022b800c1
:101170007d0320000d38e1008006eb000b003900f4
:101180004433dd00f300b2008301730039003700ff
:10119000848272000d027800e10664008b85d10024
:1011a0000a85d3008984d3000884d3008703e9002b
:1011b000f7ff3b0008004000898048000a01490011
:1011c0008b81490004003b0060001000e0801800a3
:1011d00060011900e08119000358a30009003200e2
:1011e0008d82720084827200610260008301d100ee
:1011f0000281d3008180d3000080d3000603e80081
:101200001b0037000348a30017003a000600e00067
:10121000170034000603e9000d00a3000000480099
:101220008180480002014900838149000348a300ee
:101230000f003a000600e000090034000603e90050
:10124000000040008180480002014900838149007c
:1012500001003a000003eb000348a300f5ff320051
:101260006022b8000200370084827200618266004a
:101270002202070003f0a1000cf0a70003f0a00079
:1012800019023700640147006408e10002003a00d7
:101290000df8a30011023a003200be001201be0098
:1012a000110237001400fa00889fbe008a9fbe001a
:1012b0008c9fbe000004be000205be00680047000f
:1012c0000a90be000890be00610207000070a700ef
:1012d0000bf0a1000bf8a30020003a009e0990003b
:1012e0000e099000fe0090006e0090009e0290009b
:1012f0003443200084825200fb0132000a003c008b
:10130000b4fc2f000428e100140034008301d10054
:101310000281d3008180d3000080d3008502e800e1
:10132000faff3a00f0013700b40020000428e10081
:1013300007003c0000004000818048000201490095
:10134000838149008502e900faff3a00e60137008f
:101350000300280002002000010037006011b800df
:101360006000b800e00137002800fa00889fbe0046
:101370008a9fbe008c9fbe0003866b00c6010700db
:101380006400e100440032006408e1004a003200d9
:101390006100e100460032006108e10049003200ce
:1013a000ec0647006000b8003d02be003d03be00f1
:1013b000f48657006011b8003d04be003d05be0034
:1013c0007d0320000b0037000000a0008d06e9001f
:1013d000130032000402420085824a0006034b00db
:1013e00087834b00000040008180480002014900d3
:1013f000838149000802520089825a000a035b0077
:101400008b835b00f0ff3b000802420089824a00a8
:101410000a034b008b834b008d06e900edff3a0079
:101420008482720086827200f707b200878272009f
:1014300001003200150020001e0490003e0b9000b9
:1014400006035400e63fb0000368a3000700320023
:101450000000a7000500a0008301d1000281d30095
:101460008180d3000080d3000603e8008301d1000f
:101470000281d3008180d3000080d3000002eb0002
:101480000482d2009d01070003f0a1000cf0a70028
:1014900003f0a00094013700640247006408e100f3
:1014a0008e0132003400be003401be00f6ff37006a
:1014b0006108e100890132006011b8006000b800e5
:1014c000f1ff370003ff270002002000fbff370079
:1014d000889fbe00008270000402710004827100c7
:1014e0002400320036432000c50020008383cf0053
:1014f0000a0039000541b1008283cf00070039009e
:101500000541b1008183cf00040039000541b100dd
:101510008083cf00010039000541b10085c353002d
:101520006022b800120032000a003b008482720080
:10153000610260008301d1000281d3008180d30069
:101540000080d3000603e8008743e800f7ff3a0075
:101550000700370000004000818048000201490078
:10156000838149000603e9008743e900f9ff3a0057
:10157000620107004f04be000000060007f0a20051
:10158000cbfe3700889fbe008a9fbe003004be009d
:101590002005be000404440085844c0006054d006f
:1015a00087854d000898be000a90be000440e10007
:1015b00005c8e10006d0e10007d8e10002003100d3
:1015c000680040001008e8004f05be004f04be0050
:1015d000000006001000fa00889fbe008a9fbe002f
:1015e0000605be000404be003002be002003be009b
:1015f000c4b79f00d5b79f00e6b79f00f7b79f001d
:101600000802520089825a000a035b008b835b0048
:1016100084bf9f0095bf9f00a6bf9f00b7bf9f00dc
:101620000498be000698be00110020004fb297003b
:10163000dfb297006fb39700ffb39700b2000700c7
:10164000010039008000eb00108810004f05be003b
:101650004f04be000080fa00000006001400fa00eb
:10166000889fbe008a9fbe008c9fbe007900070045
:101670000605be000404be000006eb00ccb79f00c8
:10168000bcb79f00acb79f009cb79f008cb79f0072
:101690000d0420004fb39700bfb2970086034300ac
:1016a0002fb29700e00f530004003d009b0007009d
:1016b0000f004000b3ff070003003700970007004a
:1016c0000f004000c3ff0700cfb2970095bf9f00f7
:1016d000e08f52000900350065000700140020006b
:1016e000050020006033b8000000720081807200a5
:1016f0000201730083817300560007000c06e800a6
:101700008d0f5600e3ff3a001fba9700e00f52001a
:1017100005003d000802be000a03be0000fe2f00c7
:101720000f00400097ff07004faa9700e00f5200fc
:1017300008003a000fb497009fb497002fb59700a8
:10174000bfb59700d8b79f00e9b79f00fab79f00d1
:101750008bbf9f00460007004f06be004f05be002e
:101760004f04be000080fa0000000600881f7800c9
:1017700018002000881f7800b8ff07008f87e90055
:101780004f04780000000600801feb00b3ff070045
:101790008f87e90000000600889fbe008a9fbe0078
:1017a0004100070007003d0044000700180020002a
:1017b0004900070008003d002f0007000004eb006f
:1017c000050037000004eb004300070002003d0065
:1017d0002900070018002000e4ff0700e00f540074
:1017e00001003200410007004f05be004f04be005b
:1017f00000000600889fbe008a9fbe008c1f7800f4
:101800002900070005003d002c0007001c002000f7
:101810003d00070007003d00050037000006eb0013
:101820002d00070003003d006044b8006055b8007b
:1018300013000700d4ff0700e00f5600010032003c
:101840002a0007004f0678004f05be004f04be0077
:1018500000000600010007000000060090b79f008e
:10186000a1b79f00b2b79f00c3b79f00000006005a
:1018700008000700000006006044b8006055b8008a
:101880000402540085825c0006035d0087835d00ce
:10189000000006001fb09700afb097003fb197005f
:1018a000cfb1970000000600e00f5000e08f580015
:1018b000e00f5900e08f5900000006006044b800b6
:1018c0006055b8000000540081805c0002015d009a
:1018d00083815d0000000600e00f5200e08f5a0097
:1018e000e00f5b00e08f5b00000006006022b800a4
:1018f0006033b8000000520081805a0002015b0092
:1019000083815b00000006000820e10009a8e100d7
:101910000ab0e1000bb8e100000006004f2bde002a
:1019200087037300a7b79f004f23de008582420024
:101930008502730095b79f00ffaa97004f2bde002a
:10194000040242000402730084b79f006faa97004c
:101950004f23de008582420085027300f5af9f00b1
:10196000ccff07004f18de000402420000027200a4
:10197000e4af9f00c7ff07000000400081804800df
:101980000201490083814900b4ff07000802be003c
:101990000a03be0000fe2f0000000600889fbe0064
:1019a0008a9fbe008c1f78000006eb00e00f5000fd
:1019b000e08f5800e00f5900e08f590007003d000c
:1019c0006044b8006055b8000000540081805c009d
:1019d00002015d0083815d001c002000e00f5200c9
:1019e000e08f5a00e00f5b00e08f5b0007003d00d6
:1019f0006044b8006055b8000402540085825c0061
:101a000006035d0087835d000c00a200c400070090
:101a1000e00f5600060032006022b8006033b800c4
:101a20000000520081805a0002015b0083815b004c
:101a30004f0678004f05be004f04be0000000600b0
:101a40006022b800060220000000d0008180d20091
:101a50000482d2008582d2000000a000020252005f
:101a600083825a00030031000202420083824a004e
:101a70000000a1000603e900f3ff3a0000000600a1
:101a8000020ab900001bb9000200b8008100420040
:101a90008100430000000600680447000294be0075
:101aa0000094be00fc0447008694be008494be00ef
:101ab000090078006600070008007800640007004d
:101ac00099007800814f70000b003b000800be00b9
:101ad000b50007004f00b10003003700f3ff2700f7
:101ae000f2ff2f006110b9004f06be004f05be0087
:101af0004f04be000080fa0000000600180020001d
:101b000057002000080453000d003d00060020008f
:101b100097fc2f000740e1001e0034008482720011
:101b2000610260008301d1000281d3008180d30073
:101b30000080d3000804e800f8ff3a0047002000c6
:101b40006104600005047400040464000d003200a8
:101b500061004000e080480060014900e0814900e8
:101b600003b8a500070032000603e8006538e1006d
:101b700004003a008301d1000281d3008180d300a8
:101b80000080d300f87f20000830e100030035001a
:101b9000080378006000b8006011b8004433dd002d
:101ba000f300b2008301730000000600889fbe00ae
:101bb0008a9fbe008c9fbe000404be000605be00c6
:101bc000809fbe00829fbe0085000700040678004b
:101bd0000800be000a01be008100070084067800ec
:101be0004f03be004f02be008d4f76007fb09700be
:101bf00013003300f0ff2f008b8f6b0006003b00bb
:101c00000d0666000c00a7000a00370007f0a600ca
:101c1000100020000a003700880f5200898f5a00f8
:101c20008a0f5b008b8f5b000300390010002000df
:101c300001003e000000200007f0a7000000ea00bd
:101c40004f06be004f05be004f04be000000060058
:101c5000800078005002be005003be004439de0010
:101c6000f700b200f37f2000030161000900320099
:101c70000218e10016003a0085017200830173002a
:101c8000838173000008200015003a004000200006
:101c90001300370085017200830173008381730094
:101ca00005003a0004a8be0006a8be0010002000ef
:101cb0000b0037000201e9000402420085824a005d
:101cc00006034b0087834b000748a300f9ff32004f
:101cd0000740a00004a8be0006a8be002000200007
:101ce0008000980092009800000006000003be00eb
:101cf000bffb07006220e100020032000600be00c8
:101d000005000500e507b100f107b20004f023006b
:101d10008480700007f0a70001f0a00024000500f7
:101d2000889fbe008a9fbe008c9fbe000404b8003e
:101d30000506b8008904460060854e000606b80016
:101d40000a054600e0854e000706b8008b054600f0
:101d5000040eb800890446000a854e00e0854d0057
:101d6000050eb8000a0546008b854e00060eb80029
:101d70008b0546000416b8000a0546008b854e0008
:101d80000516b8008b054600041eb8008b054600fa
:101d90000800be000a01be004f06be004f05be008f
:101da0004f04be0000000600e48240001078a3004b
:101db00007003200640240001178a3003400be0026
:101dc0001401be00040032000330a700000006002a
:101dd0003500be001501be000330a0000000060063
:101de00005ff270005826100070032000428e1009a
:101df00001003200240005000600070001003a003f
:101e0000440005000408050002000700f9ff3a003d
:101e1000140005006f82610081027000850271006c
:101e2000850272000000060042118800001188003f
:101e300011118800000006000000fa0068815700b8
:101e4000cfb8970020a52000600107000080fa00ad
:101e500000000600881f7800000478003800900019
:101e6000000278001420b200e10f520005003a0091
:101e70000002eb001404980028029000040c780083
:101e800019003700800278002520b2000000eb0026
:101e900024202000848f520016003a00a8009000f1
:101ea000808f50001300320018019000800f510005
:101eb0001000320048009000aff9070018029000af
:101ec000840f500003003200380290000403b30076
:101ed000340498000002eb001404980028029000db
:101ee000040c7800380090000002b20001003200bb
:101ef0000080eb004f04780000000600ef36b000d1
:101f0000889fbe008a9fbe008c9fbe008e1f7800f7
:101f1000800478000105780002047800d3b79f00a0
:101f2000f4312000840f5400060036000800e80059
:101f30002107070080067800e08f560003003a0072
:101f40006f0037006dcc2f008f8646000042eb00fb
:101f500084767c000002eb00b4879c000a05e9004f
:101f6000ca879c000006eb008802ea00c5b79f0004
:101f7000e9b79f00880478004262dd0066c82f0040
:101f80000f03430066047a000482e80066077a00c3
:101f90000c06e90088004700250020001100090018
:101fa0008500d80080007800098ab9006fb39700d7
:101fb00084004300090178000d007800e60707005f
:101fc0008e05780008057800bcb79f0008067800e9
:101fd000010037000a05e80009d2b9006fb3970085
:101fe000040443008d007800080078005fb2970079
:101ff00004000100e00f5000f6ff350009dab900d7
:102000006fb3970004024300010037008b05e9001d
:10201000840078000d00780084bf9f00f4b79f0013
:10202000dfb29700050001007fb297004fb3970021
:10203000060242000fb99700e00f5000f3ff350091
:102040008b0f550005003c008800780009007800df
:10205000c80707000a05e8008b05e9008b0f55004b
:10206000ddff34000c0478003fb6970088825500ed
:102070000a025700848f52000a003d008e0f55005f
:1020800012003d000c06e8004262dd0065c82f002a
:102090008f824200048242000a1a78000e0a7800f9
:1020a0000a0037008b0f54000a003d000c06e800c0
:1020b0004262dd0066c82f000f03430004024300a4
:1020c000081a78000b0a7800020037000b07780026
:1020d000010037000a0478008e0f5400adff350070
:1020e000e00f5600a4ff3d0064cc2f000f02420019
:1020f000848f5600020032000d0078004f07070061
:102100004f0778004f06be004f05be004f04be00cb
:10211000ef1fb1000f17b10000000600889fbe003e
:102120008a9fbe000084fb00d4c6b300844f5000d9
:10213000220036004b062000110009000b84d80055
:1021400081057800720040004300dd00c98c20004a
:10215000008044006022b8000600200007fe230033
:102160005001be004000be0000fb0700aa00200096
:10217000809fbe00110009008a85d8008005780084
:102180004f00be00e9854500c35ddd008b8544003e
:102190003b02be002b03be00f4fa0700809fbe0086
:1021a000110009000a84d800010478004f00be0025
:1021b0004344dd008884440013003700ea4f500098
:1021c00014003600aa002000110009000a84d8007b
:1021d0000004780001057800690444004344dd00f0
:1021e000c98c2000088444006022b800060020004a
:1021f00007fe23003800be002801be00dbfa0700fe
:102200004355dd008a8444003902be002903be0024
:10221000080037004344dd00c48c2000080442005d
:102220006022b8000600200007fe23003800be0030
:102230002801be00cdfa07004f05be004f04be00c6
:1022400000000600889fbe008a9fbe00d4c6b3006f
:10225000e04f500029003d000040ea000004fb0070
:10226000844f50001000340044062000809fbe00c0
:10227000110009000404d800010278004f00be00dc
:10228000a9002000809fbe00110009000902d800ab
:10229000000278004f00be00690242004322dd00c8
:1022a000ca8c200023003700ea4f50001000340091
:1022b000a4002000110009000404d80001047800e3
:1022c000690040004300dd00c48c20000000420093
:1022d0004344dd00080242005403be004402be0035
:1022e0005001be004000be00a0fa070034003700d5
:1022f0004344dd00c48c20002e0037000004fb00a6
:10230000844f50001d0034004406200011000900d5
:102310000404d80001027800a9002000110009007f
:102320000902d80000027800690242004322dd0061
:10233000ca812000040245005403be004402be00ce
:102340008b0920008a8545003b00be002b01be00a2
:1023500086fa0700809fbe00110009000904d8001a
:10236000010478004f00be004344dd00080545002d
:102370003a02be002a03be00dbff3700ea4f5000de
:102380000a003400a4002000811f78001100090019
:102390000404d80001047800cf00780069004000f0
:1023a0004300dd00c4812000c8ff37004344dd0046
:1023b000c4812000080442003800be002801be008d
:1023c0004f05be004f04be0000000600ef05b00040
:1023d000889fbe008a9fbe008c9fbe008e1f780023
:1023e00000067800e19f9f0082af9f000007eb008e
:1023f000e5053700ef9897008100e800e19f9f0016
:1024000054c2b300844f500006003a000103780024
:102410008006eb0007c3b30000c2b300b1c2b30033
:102420000e0037003c0290000404b20004003200a9
:102430001c027800004a7800040ee800050037000e
:102440000000fb008c007800d2060700e10f40007e
:10245000cd0532000e07e800cb05370006027800f4
:10246000b6427800d2c2b30082cf520009003200d7
:1024700005003c0080cf52000800320081cf52009e
:102480000c003a000700370087cf520009003a00dd
:10249000060037000d30a000f0ff37000d00a0004f
:1024a000eeff37000d10a000ecff37000d20a0005c
:1024b000eaff370062836600010032000d00a100d0
:1024c00068836600010032000d20a1000503fb00b7
:1024d0000603b100e90f53000d003e0084027800ae
:1024e000070020006a3bb9003502fb000403b1007d
:1024f00086034200050278001503fb000603b100c5
:10250000e90f5300f7ff360097b79f000a00370026
:102510000003eb0096b79f00a6c2b30086cf52001f
:1025200005003a008fab97004700780087af9f0007
:1025300090b79f000402e800e5c2b30094cf1200f8
:1025400017003a000de0a000e4c25200d4cf120000
:1025500003003200840278000700200009003700e1
:102560000fa99700c201780082af9f00d3af9f00f0
:102570000402e800c6c6b3000d0037006a38b9008f
:1025800080034300050278003503fb000603b10019
:10259000e90f5300f9ff3600d7af9f00f5ff370072
:1025a0000dc0a0008002eb00d5af9f00f1ff370007
:1025b00084037800b74278000702780086cf520083
:1025c0002d003200e79f9f00c4c6b30084cf5200a5
:1025d00014003c006842520084cf520024003200b4
:1025e00009003c006c42520084cf52002e003200a1
:1025f0006b42420084cf520099003200e0cf52007b
:1026000066053200b600370064c6b30084cf5200be
:102610001f0032006342420084cf5200b0003a00f3
:102620001300370034c7b30084cf520022003200b9
:1026300007003c006442520084cf52001700320071
:102640000442e80084cf5200a5003a00160037008b
:1026500054c7b30084cf5200a60032006342420048
:1026600084cf52009e003a00e5579f0010003700cb
:10267000e5579f00a1003700f083660005012000a8
:10268000010032000500280085867600c8ff37006b
:10269000e5579f000da0a00098003700e5579f0068
:1026a0000d60a00095003700e5579f000d50a00079
:1026b0000d70a00091003700e5579f000fab970009
:1026c0004602780086af9f0004047800e00f5200b5
:1026d00001003a00e8a32000880278000002eb0025
:1026e000010037000402e80065437a00e04f530020
:1026f000fcff3a0084047800dfab9700e08f5300c2
:1027000003003200898f53000100310087047800f4
:102710000002eb001fb09700890f50000100360047
:1027200009025000e8866600ddaf9f008d0078004a
:10273000e08f50002d003a008406780004c2b300f8
:1027400010003700bc0290000504b2000400320003
:102750009c027800844a7800050ee80007003700e4
:102760008c0078000002200084bf9f00090607004b
:102770000fba9700e10f4000010032000e07e80099
:102780008d06e900e08f5600eeff3a000082eb0074
:1027900016003700bc0290000504b20009003200a8
:1027a0009c0378008802780035437800864b7800d7
:1027b000070ee80005047800e04f53000a003a00d5
:1027c0000a003700880278003500fb000504780015
:1027d0008c00780084bf9f00ee0507000fba9700b9
:1027e000e10f4000010032000e07e8008902780086
:1027f0008504e900e08f5200e6ff3a005fa99700e8
:10280000e00f5100e00432008406780004c2b300f7
:1028100010003700bc0290000504b2000400320032
:102820009c027800844a7800050ee8000700370013
:102830008c0078000002200084bf9f00d5050700af
:102840000fba9700e10f4000010032000e07e800c8
:102850008d06e900e08f5600eeff3a00ca0437000b
:102860008fa997004302780083af9f00040078008f
:10287000cf80de00010178008201780090af9f00d8
:10288000a1af9f00b2af9f00c3af9f004800de0022
:10289000480add0000007200e0579f00f0826600e9
:1028a00009003200e04f500007003200e14f4000c5
:1028b00005003200f0579f00afd29700855f9f0060
:1028c00029002000030037002fd39700f6579f0000
:1028d0001900200078f92f000f04440086ff37000c
:1028e000e5579f0068f92f000f04440019002000ed
:1028f00081ff3700e5579f000d0cb30004702000e6
:10290000048266006c02320004002100048266002a
:102910000200320067002000d7af9f00708266007f
:10292000090032000faa97004401be004400be0017
:1029300084af9f0090af9f00a1af9f00b2af9f00f8
:10294000c3af9f000a0037008faa97004500be0062
:1029500085af9f007af907000002be000203be00a7
:1029600094af9f00a5af9f00b6af9f00c7af9f0079
:102970006022b8006033b8001fa89700afa8970086
:102980003fa99700cfa997008cf90700e00f5000ee
:102990000a003d001fa89700afa897003fa9970025
:1029a000cfa9970003f0a20090af9f00a1af9f00b6
:1029b000b2af9f00c3af9f003d00b3000002eb0029
:1029c000d48f9f006022b8006033b8001fa8970022
:1029d000afa897003fa99700cfa997007cf90700ff
:1029e000e00f5000390032001fa89700afa89700f1
:1029f0003fa99700cfa997007af90700a2f92f0005
:102a00000f014100a2f907005f8b97000603e90060
:102a10006333b900a500200000027800811f780010
:102a2000110009000503d8000002fd00cf00780066
:102a3000d48f9f00e00f520002003d000402e90025
:102a4000d48f9f005f8c97000840ea00fdfd0700cf
:102a50001faa9700afaa97003fab9700cfab970094
:102a6000c2f807000002be000203be0084a79f0058
:102a700095a79f00a6a79f00b7a79f006022b80058
:102a80000600200007ff23004cf90700e00f50006c
:102a900002003d000804e9000b0037006022b80086
:102aa00006002000470224000fa097009fa0970077
:102ab0002fa19700bfa1970078f90700e00f500001
:102ac000020035000804e800d88f9f00dfaa9700b5
:102ad000f88f52000f003c00054078008ffd070082
:102ae0000002be000203be001fa89700afa8970017
:102af0003fa99700cfa997006df907000002be001b
:102b00000203be0094af9f00a5af9f00b6af9f0029
:102b1000c7af9f005f8c9700e90f540015003c0081
:102b20006022b8006033b8001fa89700afa89700d4
:102b30003fa99700cfa9970025f90700e00f5000a3
:102b4000320032001fa89700afa897003fa9970056
:102b5000cfa99700d3f90700e00f5000e08f58008d
:102b6000e00f5900e08f590028003a00e10f5400af
:102b7000260034000400200005002e00b6e02200ec
:102b8000170124000fa097009fa097002fa1970086
:102b9000bfa1970009f90700e00f500002003d00b7
:102ba000730454000100370072045400d88f9f0052
:102bb0002f589700a3fd07000002be000203be00cd
:102bc00084a79f0095a79f00a6a79f00b7a79f0077
:102bd0001fa89700afa897003fa99700cfa997001b
:102be000e1f90700aff907000205be000004be00ce
:102bf0006000b8006011b80090af9f00a1af9f00c7
:102c0000b2af9f00c3af9f00170037001fa8970007
:102c1000afa897003fa99700cfa99700a1f9070097
:102c20000205be000004be0029fa07000002be0033
:102c30000203be001fa89700afa897003fa9970006
:102c4000cfa997004dfa07000002be000203be00a4
:102c500094af9f00a5af9f00b6af9f00c7af9f0086
:102c60000002eb00d48f9f004198200010c0b300f9
:102c7000080037003102be003103be000440e1000d
:102c800005c8e10006d0e10007d8e10003003900e3
:102c90000040e800f44f5000f6ff3a00e0579f0074
:102ca0005f8a97009fb29700048252005fab970043
:102cb000060252000000fb000000520090b79f0087
:102cc000e00f5300020032000000e90090b79f00bf
:102cd00063826600030032009fb397008703e90018
:102ce00097b79f00648266004500320062826600ea
:102cf000e1826600e00f5200110032003c029000b9
:102d00000404b200080032001c037800b4c2b3000f
:102d1000e08f52000100320004c2e800044b78004a
:102d2000060ee80015003700b0022000e08f5200c8
:102d3000010032000080e8008c0078000c003700b1
:102d4000e08f5200200032003c0290000404b200e8
:102d5000050032009c02780004c2b300844a780067
:102d6000050ee800050037008c0078000002200006
:102d700088040700e10f4000130032000e07e8004e
:102d8000110037003c0290000404b200040032003d
:102d90001c027800054a7800040ee800070037009e
:102da0008c00780000032000f5b79f00790407002d
:102db000ffb29700e10f4000010032000e07e8006b
:102dc0008904e9000600370005c3b300c8a79f00c7
:102dd000d9a79f00eaa79f00fba79f009fb4970079
:102de000e08f5400e7ff3c0099b79f004fa4970085
:102df000dfa497006fa59700ffa597006f0037002d
:102e0000688266001f003a00110037003c02900003
:102e10000404b200040032001c027800054a780065
:102e2000040ee800070037008c0078000002200044
:102e3000f5b79f0057040700ffb29700e10f40006d
:102e4000010032000e07e8008904e900060037009f
:102e500005c2b300c8a79f00d9a79f00eaa79f009b
:102e6000fba79f009fb49700e08f5400e7ff3c0052
:102e700099b79f004fa49700dfa497006fa5970014
:102e8000ffa5970062826600e1826600e00f5200b3
:102e9000110032003c0290000404b200080032002d
:102ea0001c037800b4c2b300e08f5200010032006e
:102eb00004c2e800044b7800060ee8003e0037002c
:102ec000b0022000e08f5200010032000080e800d4
:102ed0008c00780035003700e08f52003700320058
:102ee0003c0290000404b200050032009c0278000d
:102ef00004c2b300844a7800050ee8002e003700b3
:102f00008c00780000022000280037003c0290006e
:102f10000404b2008502fb00e00f520013003200ef
:102f20009c007800c1a79f00c32add00c297200043
:102f3000850241005503be004502be000800be00e8
:102f40000a01be0009fa0700a400200005002000c5
:102f50006033b8000cfa070005c3b3004fa2970016
:102f6000054a4000040ee80013003700c32add00c4
:102f7000c6972000850243005503be004502be00ef
:102f80000800be000a01be00f8f90700a4002000f6
:102f9000050020006033b800fbf90700040320009f
:102fa000000242008c00780004007800f90307005a
:102fb000e10f4000010032000e07e8006f52970059
:102fc0008442e900e5579f00e04f5200cfff3a00ee
:102fd000110037003c0290000404b20004003200eb
:102fe0001c027800084a7800040ee800050037004b
:102ff0008c00780000032000e6030700e10f40008a
:10300000010032000e07e8005f8a97000402e90021
:10301000d48f9f000100370008c3b3005f8a970078
:10302000e00f5200ebff3c00dfab9700f28f530044
:103030000300340024c1b300e4579f0002003700ae
:103040002fd89700e0579f006f5297008402fb0033
:10305000dfa8970085825000c5a79f00e04f52006f
:103060000e0032003c0290000404b2000500320061
:103070001c027800e5c2b300054a7800040ee8009f
:10308000050037008c007800e0022000c103070033
:10309000e10f4000010032000e07e8006f5097007a
:1030a00068fc07000002be000203be001fa89700d4
:1030b000afa897003fa99700cfa997002bf707006b
:1030c00078f80700360037003c0290000404b20094
:1030d0008502fb00e00f5200130032001c01780053
:1030e000d2af9f00c32add00c39720008582410034
:1030f0005503be004502be000800be000a01be0026
:103100009af90700a4002000050020006033b800f1
:103110009df9070005c3b3005faa9700054a400068
:10312000040ee80013003700c32add00c697200014
:10313000850243005503be004502be000800be00e4
:103140000a01be0089f90700a40020000500200044
:103150006033b8008cf9070004032000000242002d
:103160008c007800040078008a030700e10f40001b
:10317000010032000e07e800ef5397000702fb0042
:103180004322dd00c0972000040240005403be002b
:103190004402be000800be000a01be007af9070022
:1031a0000205be000004be006f5297008442e90091
:1031b000e5579f00e04f5200c3ff3a00110037006f
:1031c000bc0290000504b200040032009c027800aa
:1031d000844a7800050ee800070037008c0078006c
:1031e0000003200084bf9f006a0307000fba970006
:1031f000e10f4000010032000e07e8008904e900f9
:103200000600370004c3b300d0af9f00e1af9f00ba
:10321000f2af9f0083b79f00cfa49700e08f5400c8
:10322000e7ff3a005fac9700efac97007fad9700e7
:103230008fb59700e8866600530232009fb0970072
:10324000e08f5000500234000dc2b3000802be00ef
:103250000a03be00810478003c0090000004b20024
:10326000040032001c0078000d487800000ee800d1
:103270000d0037008c0078000002200084bf9f0002
:10328000f5b79f00d6b79f00e7b79f00410307003f
:103290000fba9700ffb297005fb39700efb39700a4
:1032a000e10f4000010032000e07e8008904e90048
:1032b000e9ff3a00340237008d027800050cb200b5
:1032c0002a003a00e08f560005003d000fa9970044
:1032d0004205be004204be0082af9f0016003700c8
:1032e000708266000e0032000fab97004602be00ef
:1032f00086af9f00c4979f00d5979f00160290004d
:103300004fa2de00e4979f00f4979f004f94970030
:10331000df9497006f959700ff95970006003700a0
:103320000fa897004004780080af9f00cfc4de0054
:10333000090578008a057800e00f5400e08f5c00f2
:10334000e00f5d00e08f5d0023003d003d00b30015
:103350006022b8006033b8000804520089845a0023
:103360000a055b008b855b001b003700e08f560071
:1033700005003d008fa897004105be004104be0036
:1033800081af9f0014003700f08266000c0032000d
:103390008faa97004501be0085af9f0082979f00ce
:1033a00093979f00a4979f00b4979f000f94970056
:1033b0009f9497002f959700bf95970006003700c0
:1033c0008fab97004704780087af9f00090020006b
:1033d0000a0020000b0020005fa89700e00f5000bb
:1033e00009003a0011002000d1af9f00e00f540007
:1033f000e08f5c00e00f5d00e08f5d0002003200b6
:103400000001eb00d2af9f008d017800030cb200e9
:1034100093af9f0004042000848f51002c003200e1
:1034200003003c00e08f5100080032003c003700f0
:10343000040820009faa9700848f520010003200d9
:10344000040c2000848f520035003a00459820007b
:1034500014c0b3003500be003501be000040e100dd
:1034600001c8e10002d0e10003d8e1002b003900df
:103470000442e800f44f5200f6ff3a0027003700fc
:1034800014c0b30000012000010020006011b8004a
:103490000040e10001c8e10002d0e10003d8e100f2
:1034a0001e003900460020000000d0008180d200bc
:1034b0000281d2008381d2000603e900faff3a00bc
:1034c0000442e800f04f5200f1ff3a0013003700c9
:1034d00014c0b30080002000010020006011b8007b
:1034e0000040e10001c8e10002d0e10003d8e100a2
:1034f0000a003900370020000000d0008180d2008f
:103500000281d2008381d2008703e900faff3a00ea
:103510000442e800f54f5200f1ff3a00e4579f00e3
:103520006f5097000002fb00dfa89700810f520048
:1035300002003d00e1579f00040037005fa997009b
:10354000840f510001003d00d4af9f009fb1970050
:10355000e08f5100040032006382660002003200f6
:103560008301e90093b79f000400240004826600f1
:10357000090032001fb29700dfaa9700850f5200a2
:10358000030034000502520094b79f000200370088
:103590000003eb0096b79f00ef5397000702fb0074
:1035a0000000eb00c0a79f009fb09700848f5000e1
:1035b0000200340004825000c4a79f0064826600a9
:1035c00045003200e282660061826600e08f5200b0
:1035d00011003200bc0290000504b2000800320065
:1035e0009c027800b6c2b300e00f52000100320026
:1035f00006c3e800864a7800050ee800150037008b
:10360000b0022000e00f5200010032000080e8000c
:103610008c0078000c003700e00f52000e003200e2
:103620003c0290000404b200050032001c02780045
:1036300005c2b300054a7800040ee8000500370013
:103640008c0078000002200052020700e10f4000c9
:10365000010032000e07e8004fa19700e00f510073
:103660006300320004c3b30098b79f00a9b79f005e
:10367000bab79f00cbb79f00cfa49700bc029000c1
:103680000504b200040032009c027800844a7800ed
:10369000050ee800070037008c00780000032000ca
:1036a00084bf9f003b0207000fba9700e10f400064
:1036b000010032000e07e8008904e900efff3a003c
:1036c000c9a79f001fb49700afb497003fb59700fc
:1036d000cfb5970046003700cfa09700e08f50008d
:1036e0001e003200688266001c003a0004c2b3006b
:1036f00098b79f00a9b79f00bab79f00cbb79f00ac
:10370000cfa49700bc0290000504b2000400320070
:103710009c027800844a7800050ee8000700370014
:103720008c0078000002200084bf9f00190207006f
:103730000fba9700e10f4000010032000e07e800c9
:103740008904e900efff3a00c9a79f001fb4970062
:10375000afb497003fb59700cfb59700e2826600ff
:1037600061826600e08f520011003200bc029000be
:103770000504b200080032009c027800b6c2b30013
:10378000e00f52000100320006c3e800864a7800cc
:10379000050ee80015003700b0022000e00f5200cf
:1037a000010032000080e8008c0078000c00370037
:1037b000e00f52000e0032003c0290000404b20000
:1037c000050032001c02780005c2b300054a7800eb
:1037d000040ee800050037008c007800000220008d
:1037e000ec010700e10f4000010032000e07e80085
:1037f000dfa897000102e9004221dd00929f9f00af
:103800006323b90086017800839f9f004322dd0077
:10381000c597200085024200f59f9f0070826600d8
:10382000f48f9f008d0278000502b200e58f9f00a3
:1038300098b79f00a9b79f00bab79f00cbb79f006a
:10384000aa003700dfa897008100e900d1af9f00f0
:103850001fa9970003042000830f51007a00320053
:1038600003003c00e00f51000800320085003700e3
:10387000040820009faa9700848f52005d00320048
:10388000040c2000848f52007e003a00e08f560026
:103890001f003d007f9b97003604be002605be003a
:1038a0000802be000a03be001fb09700afb0970029
:1038b0003fb19700cfb19700acf70700e0579f00ea
:1038c0000000fb00cf80de0001017800820178005b
:1038d0000802be000a03be0030f807001fb29700be
:1038e000afb297003fb39700cfb3970000025200ea
:1038f00081825a0002035b0083835b0094b79f00c0
:10390000a5b79f00b6b79f00c7b79f003500370027
:10391000ff8a9700e08f5200220032001fb297000a
:10392000afb297007f9b97003604be002605be000d
:103930000801be000400be0084bf9f00f5b79f00d1
:103940003ff80700e0579f000000fb00cf80de003b
:103950000801be004af807000fba9700ffb29700af
:103960000001520081815a00a29f9f00b39f9f00d7
:103970008001eb00c39f9f000002eb00d49f9f00db
:103980002f989700bf9897004f999700df9997005d
:1039900090b79f00a1b79f00b2b79f00c3b79f0029
:1039a00010003700ff989700110278001fb19700b0
:1039b00080027800811f7800110009000481d8007e
:1039c0008002fd00cf007800a4002000809fbe0090
:1039d000110009008482d800010278004f00be0067
:1039e000e4579f00ef5197000343b000e3579f0057
:1039f00024003700d4a22000ef8a9700e08f520005
:103a000001003200c4a120001fb09700afb09700a2
:103a10003fb19700cfb197001f9b97000603e900c5
:103a2000050033008301d1000281d3008180d300df
:103a30000080d300f9ff37006f0060006440780019
:103a4000e0579f000f0037001fb29700afb29700fa
:103a50003fb39700cfb397000f9897000000e9009d
:103a6000050033008703d1000683d3008582d3008d
:103a70000482d300f9ff3700674262000443b000bc
:103a8000e4579f003c0290000404b200070032009b
:103a90009c0278006f529700844a7800050ee80077
:103aa000e04f520007003a0007003700ef50970040
:103ab0000100fb008c00780036010700e10f400098
:103ac000010032000e07e8001f99970064015100c1
:103ad000929f9f008f999700e3815100839f9f00e1
:103ae0007f9a970068025200f49f9f00dfaa970018
:103af000e08f520053ff3a001fb49700afb4970015
:103b00003fb59700cfb59700e88666001e003200eb
:103b10004fa39700e00f53001b0034000dc2b30009
:103b20000802be000a03be00cfa497003c0090002c
:103b30000004b200040032001c0078000d48780038
:103b4000000ee8000d0037008c0078000002200015
:103b500084bf9f00f5b79f00d6b79f00e7b79f00cf
:103b60000c0107000fba9700ffb297005fb39700f0
:103b7000efb39700e10f4000010032000e07e800ac
:103b80008904e900e9ff3a00ef9b970017407800ad
:103b9000e0579f00e04f500016fa3a000e00780000
:103ba0004f0778004f06be004f05be004f04be0011
:103bb000ef05b10000000600e6874700889fbe00c1
:103bc0008a9fbe008c9fbe008e1f7800c4a6200076
:103bd00065538000e08f52000b003a00e40242007f
:103be00065538800b553880024029800a4538800c8
:103bf000a44290000504a00025429800e4429000f1
:103c00000504a00065429800670440004244de00bd
:103c10004244dd00a05380006da8200069e8200028
:103c20008d8454002400200080027800811f7800d9
:103c3000110009008404d8008002fd00cf00780044
:103c4000f5b79f000882e8000402420084bf9f008d
:103c50000003eb00640744009ce820000d065600ba
:103c600008064600010037000b0078002042900053
:103c700061026200020032000a0037001508780075
:103c8000900278002542900061026200fbff320042
:103c900008024000848f520002003900e00f5400f7
:103ca0004e003d0090057800808f5500eeff3e00ed
:103cb0008d8f550003003900c4a62000848f550065
:103cc000e9ff3900b4538000840f500054003a00db
:103cd000c4a62000848f550051003a000603e80076
:103ce000e10f5300e0ff36007fb39700860f5400ca
:103cf00002003600890f5400120039006143b800f9
:103d0000614ab900b0ff2f000100200004025000fa
:103d100085825800840f5300858f5b000b003d00a7
:103d200000027800811f7800110009000986d80080
:103d30000002fd00cf00780009a2b9000405780058
:103d4000030037000fbd9700010037000805780019
:103d50000a00780038f20700e10f400005003a0041
:103d60000e0578000e00780033f20700e10f4000e6
:103d70002b003200b4538000000a7800b453800056
:103d800064034200a4429000860f500002003200fb
:103d90000504a000010037000504a1002542980099
:103da000640555000a0540000a087800ba538800e7
:103db000c4a62000040d7800b55380002542900071
:103dc0000404a000a4429800204290000404a10032
:103dd000244098000003eb00a3ff3700a4538800a1
:103de000848f5200070036001403be00c6538800bb
:103df000d7538800100a78008042eb00a45380005b
:103e000025429800a75380000708780020429000c0
:103e10000404a00024409800640040000100370022
:103e20000000eb004f0778004f06be004f05be00b4
:103e30004f04be006f00b100000006006400500097
:103e4000a4538000840f500001003100a05388006b
:103e5000204290000404a1002440980000000600c5
:103e6000889fbe008a9fbe000004be00e08f540001
:103e700005003a00e00f54003200320008007800dc
:103e8000eeff070030003700e00f540004003a0056
:103e90000900780048ff0700800478002a003700f6
:103ea000640254009405780068fa97006102620089
:103eb0000200320008007800e0ff070009007800e7
:103ec0003dff070080047800e08f54001e003200a0
:103ed000888f54001b00320069bd9700090555000a
:103ee00042d5de0088855500c2ddde000a0178007b
:103ef0008b0f5500010036000b0178004211dd00e8
:103f0000880078000900780013000700888f5400ab
:103f10000d0031004255dd000a854400880f550030
:103f2000090036000804550042c4de004244dd00aa
:103f300008844400c4538000d5538000048cbe0024
:103f40000100370088047800090078004f05be00a2
:103f50004f04be0000000600000278000200370097
:103f6000315a78000201e900e00f5100fcff3a00ed
:103f700000000600040037001142780092587800d3
:103f8000045978000000e900e00f5000faff3a0001
:103f900000000600889fbe000104780038029000ef
:103fa000e20262008084eb003b00320004037800f0
:103fb0000620b2009802900002003a00e08f520002
:103fc00035003a000490a000340498008004780082
:103fd000f90fb200e08f520002003a00a8029000f0
:103fe000050c7800ea8f540005003a000408b2007e
:103ff00003003a0088007800d0002000e5ff0700a9
:1040000018029000d8029000850f52000b00320079
:104010000402e8001404980018027800094a7800a5
:10402000040ce80015c0b300c4a72000054a7800be
:10403000ea8f540018003a00050037008800780025
:10404000094078001700070080047800120037004c
:10405000380290000410b2000f00320018019000e6
:10406000a80090004800900043f10700180290005b
:10407000840f500004003200380290000403b300a3
:10408000340498008084eb000002eb0014049800d4
:1040900028029000040c7800090078004f04be004c
:1040a000000006000200fa00889fbe00a0ff9f00eb
:1040b0000104780038029000840278000504b20000
:1040c000020032000000fb0035003700e20262000f
:1040d00005003a000403b300340498001504980066
:1040e0000080eb002e003700d8049000e08f5400d1
:1040f00006003a0012002000e680570048009000b9
:104100001df107001904980023003700a802900051
:10411000e08f520008003a00f5a72000250498001f
:10412000050c78002500200055049800150498001f
:104130000430a0003404980018019000a8009000fa
:10414000480090000cf10700280290008082eb00ec
:1041500015049800affa9700054a7800040ce800af
:104160002ffa9700ea4f52000b003a0038029000f5
:104170000410b2000800320018019000a80090005e
:1041800048009000fcf007000002eb0014049800c7
:10419000a8029000050c78002ffa97000400fb009d
:0c41a0004f04be000080fa000000060082
:020000040000fa
:1041ac004b7000003a200000252e00003266000003
:1041bc0020200000202000000d4b0000643a00007d
:1041cc00202500002e320000662000002020000078
:1041dc00200d00004b6900003a200000252e000045
:1041ec003566000020200000202000000d53000048
:1041fc00657400005f7800003a2000002564000020
:10420c0020200000202000000d5000005f5800000e
:10421c003a2000002564000020200000202000002f
:10422c000d4400005f7800003a200000252e0000ad
:10423c003266000020200000202000000d49000004
:10424c005f7800003a200000252e00003266000046
:10425c0020200000202000000d4600005f780000a8
:10426c003a200000252e00003266000020200000bd
:08427c00202000000d000000ed
:020000040000fa
:104284000000fa0062002000014020000000280025
:10429400e4f6070000802e003100200072f00700d1
:1042a4000080fa00000006000200fa00004f7800c7
:1042b400010037000000000023c2bf00624060001c
:1042c4000004e000fbff3a001e80fb002011880080
:1042d400010037000000000023c2bf0061406000fd
:1042e4000004e000fbff32000080fa00000006003a
:1042f4000600fa0010079800414798000040eb00c0
:10430400004f7800070037001e80fb008000780013
:104314001e0090000080400010407800e2ff07007b
:104324001e4fe8004e4090009e4f1000f6ff3900eb
:104334000080fa00000006000200fa00004f780036
:10434400c0c7b300d8ff07001e407800d6ff07009f
:104354000080fa00000006000000fa00c0c7b300a5
:10436400d1ff07000040eb00cfff07000080fa00f8
:10437400000006000200fa00000f7800c0c7b30076
:10438400c9ff070010c0b300c7ff07001e00780074
:10439400c5ff07000080fa00000006000200fa00d2
:1043a400000f7800c0c7b300bfff070020c0b300f0
:1043b400bdff07001e007800bbff07000080fa0065
:1043c400000006000800fa00000f780011079800aa
:1043d4002207980033079800c0c7b300b2ff070054
:1043e40030c0b300b0ff07001e007800aeff070026
:1043f4001e009000acff07002e009000aaff0700eb
:104404003e009000a8ff07000080fa0000000600ac
:104414000000fa00c0c7b300a3ff070040c0b30008
:10442400a1ff07000080fa00000006000800fa005f
:10443400000f7800110798002207980033079800ae
:10444400c0c7b30098ff070050c0b30096ff070031
:104454001e00780094ff07001e00900092ff0700e2
:104464002e00900090ff07003e0090008eff070092
:104474000080fa00000006000000fa00c0c7b30084
:1044840089ff070060c0b30087ff07000080fa00bf
:10449400000006000200fa00000f78001e00e00091
:1044a40002003c0010002000000f78006000200093
:1044b4009e0f10000200340060002000000f7800fe
:1044c400c0c7b30078ff070070c0b30076ff0700d1
:1044d4001e00780074ff07000080fa000000060048
:1044e4000000fa00c0c7b3006fff070080c0b3002c
:1044f4006dff07000080fa00000006000200fa00c9
:10450400000f7800c0c7b30067ff0700a0c0b30066
:1045140065ff07001e00780063ff07000080fa00b3
:10452400000006000800fa00000f78001107980048
:104534002207980033079800c0c7b3005aff07004a
:10454400b0c0b30058ff07001e00780056ff0700f4
:104554001e00900054ff07002e00900052ff070039
:104564003e00900050ff07000080fa0000000600a3
:104574000a00fa00000f780011079800220798003b
:104584003307980044079800c0c7b30046ff0700ec
:10459400c0c0b30044ff07001e00780042ff0700bc
:1045a4001e00900040ff07002e0090003eff070011
:1045b4003e0090003cff07004e0090003aff0700c9
:1045c4000080fa00000006000a00fa0010079800b4
:1045d400210798003207980043079800c0c7b3002a
:1045e40031ff0700d0c0b3002fff07001e0090006a
:1045f4002dff07002e0090002bff07003e009000c7
:1046040029ff07000000eb00000f780007003700c7
:104614001e007800800078004e009000008040006a
:104624001040780020ff07001e0fe800f001200072
:104634009e0f1000f6ff34000080fa000000060010
:104644000a00fa00000f780011079800220798006a
:104654003307980044079800c0c7b30012ff07004f
:10466400f0c0b30010ff07001e0078000eff070023
:104674001e0090000cff07002e0090000aff0700a8
:104684003e00900008ff07004e00900006ff070060
:104694000080fa00000006000600fa00000f78000f
:1046a4001107980022079800c0c7b300fefe070058
:1046b40000c1b300fcfe0700000820009e0f10009c
:1046c4000300340000c8b300f7fe070007003700fa
:1046d4001e00e00003003d000040eb00f2fe070076
:1046e400020037001e007800effe07009e009000d5
:1046f40000042000808f50000300340000c4b30085
:10470400e9fe0700080037001e0090000000e000ea
:1047140003003d000040eb00e3fe07000200370009
:104724001e009000e0fe07002e009000e10f5000f4
:10473400060032002e0090000000e000030032006a
:1047440010c0b300d8fe0700020037002e0090000e
:10475400d5fe07000080fa00000006000a00fa00f7
:10476400000f78001107980022079800330798007b
:10477400044f9800c0c7b300cbfe070020c1b300ac
:10478400c9fe07001e007800c7fe07001e00900047
:10479400c5fe07002e009000c3fe07003e009000f7
:1047a400c1fe07000e489000bffe07000080fa001b
:1047b400000006000000fa00c0c7b300bafe0700fc
:1047c40040c1b300b8fe07000080fa0000000600f4
:1047d4000000fa00c0c7b300b3fe070050c1b30025
:1047e400b1fe07000080fa00000006000e00fa0087
:1047f4001007980021079800320798004307980093
:104804005407980065079800c0c7b300a6fe0700c8
:1048140060c1b300a4fe07001e009000a2fe0700c2
:104824002e009000a0fe07003e0090009efe0700b0
:104834004e0090009cfe07005e0090009afe070068
:10484400ce0090005e0090000088b9008200200035
:10485400110009000200d800000f78000000eb00ee
:1048640010079800090037001e00900080007800af
:104874006e00900000804000104078008afe07001f
:104884001e0090000000e800100798001e00900031
:104894009e0f5000f4ff35000080fa00000006006f
:1048a4000400fa00000f780011079800c0c7b30095
:1048b4007dfe070080c1b3007bfe07001e00780068
:1048c40079fe0700c0c7b30077fe070090c1b300ac
:1048d40075fe07001e00900073fe07000080fa00ba
:1048e400000006000400fa00100798001e00900063
:1048f400e80f5000030034008000200010079800e7
:104904000c0037001e0090000000e00003003c0093
:104914001000200010079800060037001e009000c9
:104924004300dd00680f50009e0078001000200056
:10493400dbff07000080fa00000006000200fa0016
:104944001400200014548800c082a9000000000054
:10495400c0a2a90000000000c122a90000000000bc
:10496400c142a90000000000c002a900000000002c
:1049740043fe07000040eb006ffe07003d02070006
:1049840011c0b30020c3b300a50207008040eb00b0
:1049940040c1b300c7020700e9020700420120003a
:1049a4003033230031ff2300fd02070000027800aa
:1049b40004007800f20207000040eb004c020700fc
:1049c4000002eb00040f7800843821009e02780076
:1049d400848f520026003a0080c1b30056fe0700bf
:1049e4000040eb0030fe070090c1b30052fe070008
:1049f4000040eb002cfe0700c0408000d140800046
:104a0400464080005740800064408000754080002c
:104a140082408000809fbe00869fbe00849fbe00af
:104a2400821f780004642000841f780074712b00b6
:104a3400158d2300849fbe0004002000852c2400d3
:104a4400849fbe00a499290095e92300849fbe0099
:104a5400640d2a00841f7800f6f40700fe875700cf
:104a640020a52000faf407000002eb00040f7800f0
:104a74001e0fe800d4ff37000400fa00000f78008e
:104a8400110798001e027800940278001e0290001c
:104a94001402780004825200040078000080fa00b6
:104aa400000006001400fa00881f780040079800f0
:104ab400510798006207980073079800040f980044
:104ac400150f980018c0b3000e0990009e099000bd
:104ad4006e009000fe00900050ef07000002780086
:104ae400e00f5200010035000044eb00e04f540099
:104af400030032006e029000fe02900011003700a5
:104b040018c0b3000e0990009e0990004e0090005a
:104b1400de00900043ef070000027800e00f52002f
:104b240001003c000044eb00e04f5400030032005d
:104b34004e029000de029000020037000e0a900040
:104b44009e0a9000040f9800150f98004e019000e3
:104b5400de0190006e009000fe00900033ef07002d
:104b64000002be00048fbe004e019000de019000e2
:104b74000e0890009e0890002cef07000002be0073
:104b840024079800350798001e01be002e009000ef
:104b9400be00900083ef07000002be009299290036
:104ba40093f923000400be00c7ee07000002be0014
:104bb4006266260063f623000400be001cef0700b3
:104bc4000002be000400be004f0478000080fa001a
:104bd400000006000c00fa000002eb00040f78004d
:104be40008003700e0010700800278001e02780008
:104bf40004024200040247000482e800050a780027
:104c04001e0fe8001e027800e40f5200f5ff340086
:104c1400e55322000e82e80085017800220020007e
:104c24005100200004007800b3f407003e02900015
:104c3400844088000080fa00000006003600f80076
:104c4400809fbe00829fbe00849fbe00869fbe00e0
:104c5400889fbe003400f80000002000a0018800f6
:104c64000400fa00141680004522de00614262004e
:104c74000404a200614262000482fb00610262003b
:104c84004522dd0016168000f5fd2f008502630025
:104c94000482720014168800ceff0700040020006e
:104ca40085242400048fbe00844080000500200079
:104cb4000400be007def07000002be000401be0038
:104cc40000002000814c2400d8ee07000002be0042
:104cd400044088001540880004408000154080008e
:104ce4001e01be000400be0077ee07000002be00f5
:104cf4000403be0044408000554080000401be000f
:104d04000600be00caee07000002be004440880050
:104d140055408800064080001740800024408000f1
:104d2400354080000401be000600be00bfee07004f
:104d34000002be001e01be000400be0019ef070001
:104d44000002be0064408800754088000440800072
:104d540015408000a299290093e923000400be00b5
:104d640059ee07000002be000404be004440800067
:104d74005540800072712b00138d23000400be0087
:104d840051ee07000002be000401be000800be0090
:104d9400a7ee07000002be000404be0064408000c9
:104da4007540800002002000832c24000400be0013
:104db40045ee07000002be000401be000800be006c
:104dc4009bee07000002be00a4408800b5408800a6
:104dd400044080001540800024408800354088004d
:104de400a4408000b540800002002000a3472400b6
:104df40000002000a1472c002aff07000002be008b
:104e0400c4408800d5408800c4408000d54080005c
:104e1400420120000400be00e10107000002780006
:104e240004007800ce0107008460a9000080fa0025
:104e34003400f9004f04be004f03be004f02be0011
:104e44004f01be004f00be003600f90000400600ce
:020000040000fa
:104e54000008000010000000020000000000000034
:104e6400000000000000000000000000000000003e
:104e740000000000100800000c000000000000000a
:104e8400820a00000200000002000000010000008d
:104e94007c0a00000600000000000000460a000032
:104ea40026000000020000007d0a0000007d0a00c8
:104eb40009000000000200007f0a0000007f0a00d1
:104ec4000e020100000000000000000000000000cd
:104ed4000602020000000000460a00001c0a00004e
:104ee4002a00000002000000303132003334350063
:104ef400363738003941420043444500460030000b
:104f0400313233003435360037383900616263009a
:104f14006465660000286e00756c6c002900000052
:104f24007c090000a0000000020000000100000055
:104f34000000000000000a00000000000000000063
:104f4400006400000000000000000000e80300000e
:104f54000000000000001000270000000000000016
:104f640000a08600010000000000000040420f0085
:104f7400000000000000800096980000000000007f
:104f84000000e100f50500000000000000ca9a00de
:104f94003b00000000000000e40b5400020000008d
:104fa4000000e80076481700000000000010a5008b
:104fb400d4e8000000000000a0724e0018090000b0
:104fc400000040007a10f3005a0000000080c60080
:104fd400a47e8d000300000000c16f00f286230050
:104fe400000000008a5d7800456301000000640051
:104ff400a7b3b600e00d000000e889000423c70051
:105004008a0000006c0a000010000000000000008c
:105014001c08000060010000020000000000000005
:1050240000000000f03f0000000000000000240029
:105034004000000000000000005940000000000093
:10504400000040008f400000000000000088c30002
:1050540040000000000000006af84000000000006a
:10506400008084002e41000000000000d012630084
:105074004100000000008400d797410000000000b8
:105084000065cd00cd410000000020005fa00200bb
:105094004200000000801d00af1544000000000025
:1050a40040593e0029460000000000000000f000c6
:1050b4007f0000000000000000f07f0000000000fe
:1050c40000000000f07f0000000000000000f0007d
:1050d4007f0000000000000000f07f0000000000de
:1050e40000000000f07f0000000000000000f0005d
:1050f4007f0000000000000000f07f0000000000be
:1051040000000000f07f0000000000000000f0003c
:105114003f00000000a0990099b93f000000000082
:1051240040e17a00843f00000000e0004d6250003e
:105134003f00000000e0e200361a3f0000000000db
:1051440080b5f800e43e00000000a000f7c6b000ff
:105154003e00000000a0f200d77a3e0000000000ec
:10516400e08e7900453e00000000e0000b2e1100a7
:105174003e00000000e0df007cdb3d00000000009a
:1051840000a19c00c73b0000000000004c48b40094
:1051940039000000000020006ca13700000000006e
:1051a40000000000000000000000000000000000fb
:1051b40000000000000000000000000000000000eb
:1051c40000000000000000000000000000000000db
:1051d40000000000000000000000000000000000cb
:1051e40000000000000000000000000000000000bb
:1051f40000000000840a000002000000000000001b
:0452040000000000a6
:020000040000fa
:105208000000fa0061e3a900d902a8006c83a80095
:105218006ca3a8006143a900041b80000480a100be
:105228000490a100041b8800041b80000450a00007
:105238000460a0000470a000041b88000002eb00ba
:10524800141b880065e3a900251b800004f02100d9
:1052580004827200241b880024c0b3000400780074
:1052680064e3b70061e3a8000080fa0000000600cc
:105278000000fa0021e3a900d902a8002de3a90043
:105288002d23a9002143a800041980000480a1004f
:105298000490a10004198800041980000450a0009b
:1052a8000460a0000470a000041988000002eb004c
:1052b8001419880025e3a9002519800004f02100ad
:1052c800048272002419880024c0b3000400780006
:1052d80024e3b70021e3a800d822a900d842a900f6
:1052e800d862a9000080fa00000006000200fa0057
:1052f800004f78001e427800e04f520009003a0043
:10530800dc22a900dc42a800dc62a8004519800064
:1053180004fe2f0004826200f400b30044198800e0
:105328000b0037001e427800e14f520008003a0097
:10533800dc22a800dc42a900dc62a9004519800033
:1053480004fe2f00048262009400b3004419880010
:1053580000402f001100200042ec07000080fa00f6
:10536800000006000000fa002023a800000000004a
:105378000419800061026200e00f5200fcff320055
:105388002003a90004188000040078000080fa00b7
:10539800000006000000fa00451b800004fe2f00f4
:1053a800048262000420a000441b88006023a80037
:1053b80000000000041b800061026200e00f520040
:1053c800fcff32006003a900041a80000400780082
:1053d8000080fa00000006000000fa00451b80006b
:1053e80004fe2f00048262005400b300441b8800ae
:1053f8006023a80000000000041b80006102620016
:10540800e00f5200fcff32006003a900041a80007c
:10541800040078000080fa00000006000200fa008c
:10542800004f78001147980005e1a9000421a90060
:105438000441a9002405800004c0a00004d0a100f4
:1054480004e0a100240588008460a9001e429000a1
:10545800614262000482fb00610262004322dd00b7
:10546800a604800075ff2f00850263000482720085
:10547800a4048800240880000440a1000450a0006f
:10548800240888000002eb00040888001e42780007
:105498008482fb00840c200004aab900040278006e
:1054a8001408880005e1a8000080fa000000060042
:1054b8000200fa00004f78001147980011e1a90096
:1054c8001021a90010c1a9003405800004c0a00063
:1054d80004d0a10004e0a1003405880084e0a900fc
:1054e8001e429000614262000482fb006102620079
:1054f8004722dd00a6048000f5f72f00850263002f
:1055080004827200a4048800840880000440a1007a
:105518000450a000840888001e4278008482fb00a2
:10552800840c200004aab9000402780064088800ea
:1055380011e1a8000080fa00000006000000fa004f
:10554800d2e2a90064002000740d880064002000e5
:10555800440d88000080fa00000006000200fa00ee
:10556800000f78001e027800640d88001e02780083
:10557800540d88000080fa00000006000200fa00be
:10558800000f78001e027800340d88001e02780093
:10559800240d88000080fa00000006000a00fa00c6
:1055a800200798003107980042079800840c2000d3
:1055b800040f78001e027800cfa2de000400be00af
:1055c8003dec07000002be002e019000be019000d5
:1055d8000400be003bec07000002be000400be0051
:1055e8006cec07000002be0014079800ce02900081
:1055f800840c200004aab900840278001e029000de
:1056080004825200040078000080fa0000000600be
:020000040000fa
:0200000401f009
:04000800ffff0000f6
:020000040000fa
:0200000401f009
:04000c00fbff0000f6
:020000040000fa
:0200000401f009
:04001000fdff0000f0
:020000040000fa
:0200000401f009
:040014007fff00006a
:00000001FF
