:020000040000fa
:080000000002040000000000f2
:020000040000fa
:10000800ac020000ac020000ac020000ac02000030
:10001800ac020000ac020000ac020000ac02000020
:10002800ac020000ac020000ac020000ac02000010
:10003800ac020000ac020000ac020000ce2d0000b3
:10004800ac020000ac020000ac020000ac020000f0
:10005800ac020000ac020000ac020000ac020000e0
:10006800ac020000ac020000ac020000ac020000d0
:10007800ac020000ac020000ac020000ac020000c0
:10008800ac020000ac020000ac020000ac020000b0
:10009800ac020000ac020000ac020000ac020000a0
:1000a800ac020000ac020000ac020000ac02000090
:1000b800ac020000ac020000ac020000ac02000080
:1000c800ac020000ac020000ac020000ac02000070
:1000d800ac020000ac020000ac020000ac02000060
:1000e800ac020000ac020000ac020000ac02000050
:1000f800ac020000ac020000ac020000ac02000040
:10010800ac020000ac020000ac020000ac0200002f
:10011800ac020000ac020000ac020000ac0200001f
:10012800ac020000ac020000ac020000ac0200000f
:10013800ac020000ac020000ac020000ac020000ff
:10014800ac020000ac020000ac020000ac020000ef
:10015800ac020000ac020000ac020000ac020000df
:10016800ac020000ac020000ac020000ac020000cf
:10017800ac020000ac020000ac020000ac020000bf
:10018800ac020000ac020000ac020000ac020000af
:10019800ac020000ac020000ac020000ac0200009f
:1001a800ac020000ac020000ac020000ac0200008f
:1001b800ac020000ac020000ac020000ac0200007f
:1001c800ac020000ac020000ac020000ac0200006f
:1001d800ac020000ac020000ac020000ac0200005f
:1001e800ac020000ac020000ac020000ac0200004f
:0801f800ac020000ac020000a3
:020000040000fa
:10020800ac020000ac020000ac020000ac0200002e
:10021800ac020000ac020000ac020000ac0200001e
:10022800ac020000ac020000ac020000ac0200000e
:10023800ac020000ac020000ac020000ce2d0000b1
:10024800ac020000ac020000ac020000ac020000ee
:10025800ac020000ac020000ac020000ac020000de
:10026800ac020000ac020000ac020000ac020000ce
:10027800ac020000ac020000ac020000ac020000be
:10028800ac020000ac020000ac020000ac020000ae
:10029800ac020000ac020000ac020000ac0200009e
:1002a800ac020000ac020000ac020000ac0200008e
:1002b800ac020000ac020000ac020000ac0200007e
:1002c800ac020000ac020000ac020000ac0200006e
:1002d800ac020000ac020000ac020000ac0200005e
:1002e800ac020000ac020000ac020000ac0200004e
:1002f800ac020000ac020000ac020000ac0200003e
:10030800ac020000ac020000ac020000ac0200002d
:10031800ac020000ac020000ac020000ac0200001d
:10032800ac020000ac020000ac020000ac0200000d
:10033800ac020000ac020000ac020000ac020000fd
:10034800ac020000ac020000ac020000ac020000ed
:10035800ac020000ac020000ac020000ac020000dd
:10036800ac020000ac020000ac020000ac020000cd
:10037800ac020000ac020000ac020000ac020000bd
:10038800ac020000ac020000ac020000ac020000ad
:10039800ac020000ac020000ac020000ac0200009d
:1003a800ac020000ac020000ac020000ac0200008d
:1003b800ac020000ac020000ac020000ac0200007d
:1003c800ac020000ac020000ac020000ac0200006d
:1003d800ac020000ac020000ac020000ac0200005d
:1003e800ac020000ac020000ac020000ac0200004d
:0803f800ac020000ac020000a1
:020000040000fa
:100400008fe520000eff27000e018800000000008d
:100410000c00070000e02200010020001f00070080
:10042000000020000000e000020032000000020096
:10043000000000002c2b0200000000000040da0049
:100440000000fe004440a900000620000000e0007b
:100450000300320000002000a00188004440a800f2
:1004600000000600f03fb1000180b1000600350039
:10047000ee03090000000000403fb1000180b10020
:10048000fbff3d001000b000203fb000020035002f
:1004900000800900000000000000060091018800b3
:1004a000800078000000eb0015003700e28040007b
:1004b00032a0b4009101ba00e280400032a0b40042
:1004c0009102ba00e280400032a0b4000002eb00ca
:1004d000472bde00f507b200602ce10004003a0073
:1004e0000059eb008301e900fdff3e0004003700e6
:1004f0006128e100010032000082eb0004000700e7
:100500001101ba000200e000e8ff3a000000060016
:100510003159ba008301e9000c0032002159ba00b8
:100520008301e900080032000400e00003003a0003
:10053000e280400032a0b400f5ff370011d9ba00c4
:100540008301e900faff3a008100e800e180400001
:1005500032a0b400000006000040da000000fe00f7
:1005600000c0da00000006000a00fa00e20f5000a6
:1005700021003e00b0528000e10f50000600320022
:100580008523200044232000232320000023200073
:10059000e08f520004003a0085222000442220000f
:1005a0002322200000222000060028009003630080
:1005b00002003a00870a780010087300004020000b
:1005c0001300600001003a0013a0a00002007800b0
:1005d00006003700930278000510b200fdff3200dc
:1005e000b102fb00050a78000000e900e00f5000ae
:1005f000f8ff3a000800370033002000b3bf9f0027
:10060000c0bf9f00d1bf9f00e2bf9f006a8057001c
:10061000d3ff07006fb99700020078000080fa004e
:10062000000006006011b800f8003700889fbe0087
:100630008a9fbe008c1f7800230107002a01330027
:1006400003866c006450e1002e0032006420e1005b
:10065000330032006150e1002f0032006120e100e0
:100660003100320085855500eb07b00009002000fd
:1006700008042000050037000804440089844c0069
:100680000a0031000603430087834b00000153003a
:1006900081815b00f8ff33000203be000800a00068
:1006a0000804440089844c00f6ff3900c639dd0097
:1006b0008301730001003200130020008904d1007f
:1006c0000884d3000998a300050032000800a700a1
:1006d0000300a0008904d1000884d3008b05e80042
:1006e0008904d1000884d3000001eb000281d2000c
:1006f0000d01070001f0a1000cf0a70001f0a0001f
:10070000020137006420e100040132000801be004c
:100710000200be00f7ff37006120e100ff00320059
:100720006000b800f3ff37000000200001f8270048
:10073000f0ff3700889fbe008a9fbe008c1f7800a4
:10074000e1000700e800330003866c006450e1001c
:10075000240032006420e100270032006150e100f3
:10076000220032006120e100210032008b8542002e
:10077000eb07b1000134b800003ab80008044200a9
:1007800089844a00013ab8000030b80088804000ef
:1007900009014a0004003300000040008180480045
:1007a000020149008b05e900c909dd0083017000e1
:1007b0000100320013002000c814de004814dd00e0
:1007c0004709de001200b200c808de00088470008d
:1007d000d500070001f0a1000cf0a70001f0a00077
:1007e000ca0037006120e100cc0032000801be00e1
:1007f0000200be00f7ff37006150e100fcff3a0045
:10080000c600370003f0a200889fbe008a9fbe008a
:100810008c1f7800ac000700b30033006450e10087
:100820004f0032006420e1005200320003826c006d
:1008300007003b000905d0000306d000820f5400da
:100840000c065d00020039000200320089017800c8
:10085000030678008582550004003d000003fd007a
:100860008103fd008502ea008b854200840f72003f
:1008700002003b0060001000e08018006011b8002a
:100880000005eb007a28e1000a0039000600780034
:10089000c75ddd00f707b200878075002d003700c7
:1008a000828171000a017800610560008180d100b9
:1008b0000080d3008502e900f9ff3b0006044000f8
:1008c0008784480002003b0060041400e0841c00a0
:1008d0000988a300070032008a81710082817100bb
:1008e000610164008904d1000884d3008b05e8000d
:1008f000170037000978a30013003a000b00e0004e
:10090000130034008b05e9000804440089844c007e
:100910000a4474000978a3000d003a000b00e000bf
:10092000070034008b05e9000804440089844c006a
:1009300001003a000b0020000978a300f7ff320005
:100940000001eb0002003700828171000a0178008b
:10095000750007000cf0a70001f0a0006b00370045
:100960006420e10002003a00838f6c006b003300ca
:100970000801be000200be00640037004f89de009f
:10098000820178008e0037000001be009c00070045
:100990000470a70003f0a1006509b1001600320041
:1009a0000d0035006828e10006003500f0ff2f003b
:1009b000f1ff27000300e00013003b0001002800c6
:1009c0000000050000004000818048008502e90029
:1009d000fcff3a0008003700f88f420002003c009c
:1009e0008000eb00000005008100d1000080d300f2
:1009f0008502e800fcff3a000300e00002003b0033
:100a000060001000e080180000000600889fbe0013
:100a10008a9fbe000082700004027100048271008f
:100a2000260032000004be000200be006011b800c3
:100a30006b092000950220000182cf000a003900d6
:100a40000541b1000082cf00070039000541b10027
:100a50000982cf00040039000541b1000882cf00af
:100a6000010039000541b100054252001200320078
:100a70000a003b0082817100610164008100d100a5
:100a80000080d3008984d3000884d3008b05e8005c
:100a90000442e800f7ff3a0007003700080444006a
:100aa00089844c0000004800818048008b05e900e3
:100ab0000442e900f9ff3a001b0007004f05be00a1
:100ac0004f04be00000006000004be004c000700fa
:100ad0000003be000405be000200be00480007007f
:100ae000844f7500000006000200be006450e10063
:100af000050036006420e100020036000968a3000a
:100b000001003a000800be000160a0004f06780016
:100b10004f05be004f04be0000000600f0ff2f008e
:100b2000f1ff2700f9ff37008100200061805500a8
:100b30000b003d000b00200061fe2f000100e100d2
:100b40001d00340082817100610164008904d100bc
:100b50000884d3000000e800faff3a00710020008a
:100b600061006400030070000200600009003200b0
:100b700061044400e0844c000988a50005003200af
:100b80008b05e8006808e10002003a008904d10002
:100b90000884d300f20f20000258e10005003d0058
:100ba000c75ddd00f907b200898075000800780094
:100bb000000006000bf827008b00780000000500fd
:100bc000881f7800030478000300e00007003d0060
:100bd00060001000e080180060011900e081190039
:100be00002003b0001f02d000300370087ff0700e3
:100bf00008f0a70001f0a0004f04780000000600f4
:100c0000c70ade00f107b200f50fb200080032009b
:100c1000e1cf4200020032000170a0002400050074
:100c2000810f700001003200040805004400050037
:100c3000810f700002003a00140005008502e900ef
:100c40000000400081c04800fcff3b000170a00094
:100c5000240005002800fa00889fbe008a9fbe007d
:100c60008c9fbe0003866b004f0307000028a30083
:100c700064003a000128a30067003a000008a300be
:100c800062003a000108a30065003a001e009000cf
:100c9000be08900081064000ed3fb100f48057008f
:100ca000ee019000111ab8008e099000311bb800b7
:100cb0009e099000311cb800511db800f485570002
:100cc00046000700fe0190003a0007008b85e8000f
:100cd0003e0007008e09900040000700ee019000e2
:100ce000340007008b85e800380007008e0990006b
:100cf000400007009e0990001b18b80089044000be
:100d00000a854800fe019000340007008b85e8004a
:100d100038000700ee019000300007008e099000b7
:100d20001b18b800890440000a8548000a98a300ef
:100d300008003a000402420085824a0006034b0084
:100d400087834b0008044c0089844c000a054d0041
:100d50008d06e90084827200850273004c3add0042
:100d6000850272000100320015002000443ade00c6
:100d70001400b2004538de00cb45dd000b007000ea
:100d8000c540de00cb4ddd008b8070004549de00a4
:100d9000cb55dd000b017100c551de000d0378005d
:100da0001a03070003f0a1000cf0a70003f0a00055
:100db000110337001b18b800850240000683480065
:100dc000e0834b0060044c00070037001b18b8009c
:100dd0000603400087834800faff37001b18b8005d
:100de0008703400008844800e0844c0060054d0003
:100df000000006001b18b800080440008984480061
:100e0000faff37000108a300f8023a005800be00bc
:100e10005801be00e3ff37000008a300f3023a00c8
:100e200009047800f9ff37008103780074ff070098
:100e30000001be006000b8000478a30013003a006f
:100e40006220e10015003e000d0039008301d10051
:100e50000281d3008180d3008301d1000281d300bd
:100e60008180d3008301d1000281d3008180d3002f
:100e70000538b000c42add00f300b200838172009f
:100e800007f0a70003f0a00000000600f3ff270012
:100e9000f2ff2f006110b900fbff370003ff2700ae
:100ea000f7ff37008f1fd100040307008f87e90089
:100eb0000000e00000000600801feb00ff020700ba
:100ec0008f87e9000000e000000006001400fa002f
:100ed000889fbe008a9fbe008c9fbe000005be009a
:100ee0000206be00680047000c90be000a90be00db
:100ef0001b0307006400e1001a00320016003e00e8
:100f00006100e1001a0032006e049000fe049000bf
:100f10000e0b90009e0b90006011b8009e05900093
:100f20000b38b100d501200082817100610164009d
:100f30008703d1000683d3008984d3000884d300bb
:100f40008502e900f8ff3a00f7fe07000df0a70060
:100f500001f0a000a8023700f1ff2700f0ff2f00ea
:100f6000a502370001f8270000002000f7ff370036
:100f70006000b800f5ff370020030700050978007e
:100f800000000600809feb00cc0207008f87e9007d
:100f90000000e000000006002800fa00889fbe0064
:100fa0008a9fbe008c9fbe0003866b007e020700f6
:100fb0006400e100440032006408e1004a003200ad
:100fc0006100e100460032006108e10049003200a2
:100fd000ec0647006000b8003d02be003d03be00c5
:100fe000f48657006011b8003d04be003d05be0008
:100ff0007d0320000b0037000000a0008d06e900f3
:10100000130032000402420085824a0006034b00ae
:1010100087834b00000040008180480002014900a6
:10102000838149000802520089825a000a035b004a
:101030008b835b00f0ff3b000802420089824a007c
:101040000a034b008b834b008d06e900edff3a004d
:101050008482720086827200f707b2008782720073
:1010600001003200150020001e0490003e0b90008d
:1010700006035400e63fb0000368a30007003200f7
:101080000000a7000500a0008301d1000281d30069
:101090008180d3000080d3000603e8008301d100e3
:1010a0000281d3008180d3000080d3000002eb00d6
:1010b0000482d2005502070003f0a1000cf0a70043
:1010c00003f0a0004c023700640247006408e1000e
:1010d000460232003400be003401be00f6ff370085
:1010e0006108e100410232006011b8006000b80000
:1010f000f1ff370003ff270002002000fbff37004d
:101100001400fa00889fbe008a9fbe008c9fbe001c
:101110000004be000205be00680047000a90be0041
:101120000890be008e0207000070a7000bf0a1001f
:101130000bf8a30016003a009e02900030432000f6
:1011400080825200b0fe2f000028e1000d003c001c
:10115000b0fc2f000028e1000d0034001e099000b3
:101160008e0890007e0090000501b0000201d100c1
:101170008180d3000080d3008502e800fbff3a00a5
:101180001d02370001002800000020001a0237006d
:101190006000b800180237006011b80098013700ed
:1011a00007f0a200000037002800fa00889fbe0068
:1011b0008a9fbe008c9fbe00070678008786690064
:1011c0000c003b00030478008704780008f0a100bd
:1011d00009f0a100840f5000858f5800860f590038
:1011e000890f5c00030033000cf0a20001003a00fc
:1011f0000cf0a100ec0107006400e1005f00320088
:10120000780147006408e100610032006c0147008a
:10121000748557003200be001201be003a04be00c1
:101220001a05be001e039000be0a900085035300fd
:1012300006003d000004fd008104fd000205fd00e4
:101240008305fd008703ea00050378000df8a3007d
:101250000400320060041400e0841c0060051d00de
:10126000e0851d006022b8007d0320000d38e100fc
:101270008006eb000b0039004433dd00f300b200c0
:101280008301730039003700848272000d027800f8
:10129000e10664008b85d1000a85d3008984d300e0
:1012a0000884d3008703e900f7ff3b0008004000f3
:1012b000898048000a0149008b81490004003b00f5
:1012c00060001000e080180060011900e081190042
:1012d0000358a300090032008d82720084827200dc
:1012e000610260008301d1000281d3008180d300bc
:1012f0000080d3000603e8001b0037000348a3006a
:1013000017003a000600e000170034000603e90069
:101310000d00a30000004800818048000201490040
:10132000838149000348a3000f003a000600e00053
:10133000090034000603e9000000400081804800f5
:10134000020149008381490001003a000003eb00db
:101350000348a300f5ff32006022b8000200370006
:101360008482720061826600a801070003f0a10078
:101370000cf0a70003f0a0009f01370064014700b4
:101380006408e10002003a000df8a30097013a005a
:101390003200be001201be0097013700889fbe00d8
:1013a0008a9fbe003004be002005be000404440035
:1013b00085844c0006054d0087854d000898be00c9
:1013c0000a90be009500070002003100680040004e
:1013d0001008e8004f05be004f04be0000000600e4
:1013e000889fbe008a9fbe008c1f78000006780090
:1013f0003c04be002c05be000400540085805c0047
:1014000006015d0087815d00009ebe00029ebe0059
:101410001000200081000700010039000000eb00ef
:101420001c0e10004f0678004f05be004f04be0092
:10143000000006001200fa00889fbe008a9fbe00ce
:101440008c9fbe000205be000004be00e4b79f00f2
:10145000f5b79f0086bf9f0097bf9f000000eb007d
:10146000d0b79f00c0b79f00b0b79f00a0b79f0044
:1014700090b79f0000067800fd032000dfb19700c1
:101480004fb0970003814100bfb09700e08f51003b
:1014900004003d00660007007e805700bfff070084
:1014a00003003700620007007e805700ccff070072
:1014b000dfb09700e08f50000700350014002000d7
:1014c000050020006033b8000804720089847200af
:1014d0000a0573008b8573000c06e8008d0f56001b
:1014e000e6ff3400e08f500006003d006fb2970029
:1014f000ffb297000fbb97009fbb97007e805700fd
:10150000a6ff07005fa89700e00f500004003a0014
:101510001fb49700afb497003fb59700cfb59700c1
:101520000800be000a01be004f06be004f05be0007
:101530004f04be000080fa0000000600881f7800fb
:1015400018002000881f7800baff07008f87e90085
:101550004f04780000000600801feb00b5ff070075
:101560008f87e90000000600889fbe008a9fbe00aa
:101570008c1f78004e00070005003d005100070059
:1015800009003d005b0007000006eb000600370085
:101590005d00070004003d006044b8006055b800dd
:1015a000540007001c002000e4ff0700e00f560075
:1015b000010032005a0007004f0678004f05be00b8
:1015c0004f04be0000000600889fbe008a9fbe0038
:1015d0008c1f78003600070003003d00390007002b
:1015e00006003d00040037004700070003003d00ef
:1015f0006044b8006055b8003e000700d6ff070001
:10160000e00f560001003200450007004f06780049
:101610004f05be004f04be00000006000440e1007c
:1016200005c8e10006d0e10007d8e100000006008f
:10163000cf01de0002817100b2b79f004f09de00ca
:101640000000400000007100a0b79f000fb097009d
:101650004f01de00818040008100710091b79f0042
:101660007faa9700cf20de000000400000807000bd
:1016700080b79f000800be000a01be004f18de00c0
:101680000402420000027200f4af9f00080444000c
:1016900089844c000a054d008b854d004fb29700a0
:1016a000dfb297006fb39700ffb39700000006000a
:1016b000e00f5000e08f5800e00f5900e08f590014
:1016c000000006006044b8006055b80000005400f7
:1016d00081805c0002015d0083815d001c002000b0
:1016e0000820e10009a8e1000ab0e1000bb8e10020
:1016f000000006000402540085825c0006035d00c1
:1017000087835d00000006000006eb00e00f52003a
:10171000e08f5a00e00f5b00e08f5b0000000600e6
:101720006022b8006033b8000000520081805a0087
:1017300002015b0083815b00000006001400fa00d8
:10174000889fbe008a9fbe008c9fbe000004be0022
:101750000205be00680047000a90be000890be0067
:10176000ff0007000070a7000bf0a1000bf8a3001a
:1017700020003a009e0990000e099000fe009000a3
:101780006e0090009e02900034432000848252003c
:10179000990032000a003c00b4fc2f000428e1004c
:1017a000140034008301d1000281d3008180d30072
:1017b0000080d3008502e800faff3a008e0037006f
:1017c000b40020000428e10007003c0000004000b5
:1017d0008180480002014900838149008502e900b7
:1017e000faff3a00840037000300280002002000be
:1017f000010037006011b8006000b8007e003700bb
:10180000889fbe0000827000040271000482710093
:101810002400320036432000c50020008383cf001f
:101820000a0039000541b1008283cf00070039006a
:101830000541b1008183cf00040039000541b100aa
:101840008083cf00010039000541b10085c35300fa
:101850006022b800120032000a003b00848272004d
:10186000610260008301d1000281d3008180d30036
:101870000080d3000603e8008743e800f7ff3a0042
:101880000700370000004000818048000201490045
:10189000838149000603e9008743e900f9ff3a0024
:1018a0005a0007004f04be0000000600889fbe00db
:1018b0008a9fbe008c1f78000006eb00e00f5000ee
:1018c000e08f5800e00f5900e08f590007003d00fd
:1018d0006044b8006055b8000000540081805c008e
:1018e00002015d0083815d001c002000e00f5200ba
:1018f000e08f5a00e00f5b00e08f5b0007003d00c7
:101900006044b8006055b8000402540085825c0051
:1019100006035d0087835d000c00a200c400070081
:10192000e00f5600060032006022b8006033b800b5
:101930000000520081805a0002015b0083815b003d
:101940004f0678004f05be004f04be0000000600a1
:101950006022b800060220000000d0008180d20082
:101960000482d2008582d2000000a0000202520050
:1019700083825a00030031000202420083824a003f
:101980000000a1000603e900f3ff3a000000060092
:10199000020ab900001bb9000200b8008100420031
:1019a0008100430000000600680447000294be0066
:1019b0000094be00fc0447008694be008494be00e0
:1019c000090078006600070008007800640007003e
:1019d00099007800814f70000b003b000800be00aa
:1019e000b50007004f00b10003003700f3ff2700e8
:1019f000f2ff2f006110b9004f06be004f05be0078
:101a00004f04be000080fa0000000600180020000d
:101a100057002000080453000d003d000600200080
:101a200097fc2f000740e1001e0034008482720002
:101a3000610260008301d1000281d3008180d30064
:101a40000080d3000804e800f8ff3a0047002000b7
:101a50006104600005047400040464000d00320099
:101a600061004000e080480060014900e0814900d9
:101a700003b8a500070032000603e8006538e1005e
:101a800004003a008301d1000281d3008180d30099
:101a90000080d300f87f20000830e100030035000b
:101aa000080378006000b8006011b8004433dd001e
:101ab000f300b2008301730000000600889fbe009f
:101ac0008a9fbe008c9fbe000404be000605be00b7
:101ad000809fbe00829fbe0085000700040678003c
:101ae0000800be000a01be008100070084067800dd
:101af0004f03be004f02be008d4f76007fb09700af
:101b000013003300f0ff2f008b8f6b0006003b00ab
:101b10000d0666000c00a7000a00370007f0a600bb
:101b2000100020000a003700880f5200898f5a00e9
:101b30008a0f5b008b8f5b000300390010002000d0
:101b400001003e000000200007f0a7000000ea00ae
:101b50004f06be004f05be004f04be000000060049
:101b6000800078005002be005003be004439de0001
:101b7000f700b200f37f200003016100090032008a
:101b80000218e10016003a0085017200830173001b
:101b9000838173000008200015003a0040002000f7
:101ba0001300370085017200830173008381730085
:101bb00005003a0004a8be0006a8be0010002000e0
:101bc0000b0037000201e9000402420085824a004e
:101bd00006034b0087834b000748a300f9ff320040
:101be0000740a00004a8be0006a8be0020002000f8
:101bf0008000980092009800000006000003be00dc
:101c0000fffb07006220e100020032000600be0078
:101c100005000500e507b100f107b20004f023005c
:101c20008480700007f0a70001f0a00024000500e8
:101c3000889fbe008a9fbe008c9fbe000404b8002f
:101c40000506b8008904460060854e000606b80007
:101c50000a054600e0854e000706b8008b054600e1
:101c6000040eb800890446000a854e00e0854d0048
:101c7000050eb8000a0546008b854e00060eb8001a
:101c80008b0546000416b8000a0546008b854e00f9
:101c90000516b8008b054600041eb8008b054600eb
:101ca0000800be000a01be004f06be004f05be0080
:101cb0004f04be0000000600e48240001078a3003c
:101cc00007003200640240001178a3003400be0017
:101cd0001401be00040032000330a700000006001b
:101ce0003500be001501be000330a0000000060054
:101cf00005ff270005826100070032000428e1008b
:101d000001003200240005000600070001003a002f
:101d1000440005000408050002000700f9ff3a002e
:101d2000140005006f82610081027000850271005d
:101d30008502720000000600421188000011880030
:101d400011118800000006000000fa0068815700a9
:101d5000cfb8970060a32000d00007000080fa00f1
:101d600000000600881f780000047800380090000a
:101d7000800078001120b200e18f500005003a0089
:101d80008000eb0011049800a8009000010c78007e
:101d900019003700000178002220b2000000eb009b
:101da00021202000810f510016003a00a800900069
:101db000808f50001300320018019000800f5100f6
:101dc0001000320048009000e7f9070098009000ea
:101dd000810f500003003200380090000003b30070
:101de000300498000000eb001004980028009000d8
:101df000000c7800380090000002b20001003200b0
:101e00000080eb004f04780000000600889fbe00b1
:101e10008a9fbe000084fb00d1c6b300814f5000f2
:101e2000210036004b062000110009000b84d80069
:101e300081057800720040004300dd00098b20001e
:101e4000008044006022b8000600200007fe230046
:101e50005001be004000be007efb0700aa0020002b
:101e600000027800811f7800110009008a85d800df
:101e70000002fd00cf007800690242004322dd002d
:101e8000048244005403be004402be0071fb0700fc
:101e9000809fbe00110009000a84d8000104780068
:101ea0004f00be0010003700ea4f5000130036000c
:101eb000a9002000110009000984d800010478005d
:101ec000690040004300dd00098b200000804400d1
:101ed0006022b8000600200007fe23005001be006b
:101ee0004000be005bfb07004344dd0088844400e3
:101ef0003902be002903be00080037004344dd005c
:101f0000008b2000080440006022b800060020007a
:101f100007fe23003800be002801be004dfb07006d
:101f20004f05be004f04be0000000600889fbe00a3
:101f30008a9fbe00d1c6b300e04f500025003d008f
:101f40000040ea000004fb00814f50000b00340009
:101f500042062000110009000204d80001007800a8
:101f6000a9002000110009000900d8006900400004
:101f70004300dd000a8b200023003700ea4f5000a9
:101f800011003400a2002000110009000204d80052
:101f90000104780080007800e9804000c308dd007b
:101fa000008b2000810040004344dd000800400019
:101fb0003002be002003be005101be004100be0041
:101fc00024fb0700320037004344dd00008b200073
:101fd0002c0037000004fb00814f50001c0034002f
:101fe00042062000110009000204d8000100780018
:101ff000a9002000110009000900d8006900400074
:102000004300dd000a802000000045003002be00d1
:102010002003be008b0920008a8545003b00be00de
:102020002b01be000bfb0700809fbe0011000900c2
:102030000904d800010478004f00be004344dd00cd
:10204000080545003a02be002a03be00dcff370047
:10205000ea4f500009003400a200200011000900de
:102060000204d8000104780080007800e980400074
:10207000c308dd0000802000caff37004344dd00b4
:1020800000802000080440003800be002801be0087
:102090004f05be004f04be00000006008f06b000d2
:1020a000889fbe008a9fbe008c9fbe008e1f780056
:1020b00080bf9f00f1a79f0082af9f000000eb0050
:1020c000f0b79f00f40a3700ffa097008100e800f6
:1020d000f1a79f0052c2b30082cf520007003a001e
:1020e0008002eb00d7c2b30006c3b30003c2b30043
:1020f00031c2b3007fa09700140037008fb997005a
:10210000330190000204b20005003200030278009f
:102110009401780085497800030ae8000700370039
:102120000501fb008fb8970002007800e60a07005f
:1021300000017800e10f4100d70a3200ffb297009a
:102140008502e800f5b79f00d30a370010447800f5
:10215000b9c2b300894f5400110032000001e800f9
:10216000894f540005003c00834f54000a003200a0
:10217000814f540012003a000c003700874f540082
:1021800003003200864f54000d003a00090037006a
:102190000530a000080037000500a0000600370049
:1021a0000510a0000000e800e8ff370005b0a0001f
:1021b000010037000520a00002007800e3ff37008f
:1021c000f0a79f00e2816200010032000500a1003b
:1021d000e8816200010032000520a1008801fb00b7
:1021e0000303b100e98f51000c003e000000200005
:1021f0007fa197006a00b9000003b1009200fb00c4
:1022000001004000d200fb000103b100e98f500043
:10221000f8ff360090af9f000b0037008005eb0001
:102220009baf9f00a3c2b300834f540007003a0046
:102230000fa89700c000780080af9f0091af9f006b
:102240007fa197000201e800f2a79f00e3c2b3005c
:102250007fa2970094cf11001f003a0005e0a00074
:10226000e5b79f00e4c151000402e800f4a79f0015
:102270009442780083cf5200030032000000200017
:10228000840178000c0037008fab9700470478007a
:1022900087af9f00e8af9f00ffa497008904e80084
:1022a000f9a79f00100037006a00b9000003b100d1
:1022b000020040008301e8001301fb0001fd2f0034
:1022c00082804000e98f5000f7ff3600e0af9f00aa
:1022d000f3a79f000400370005c0a000e5b79f00ea
:1022e0000005eb00eaaf9f007cc6b30001c7b30056
:1022f000cdc6b300efb197007fa29700b44278003b
:10230000c54f9f008ccf52004900320019003c009d
:10231000e3b79f00f4a79f0038c6b30088cf5200f0
:10232000d50032000e003c007c44540088cf52009f
:102330003b00320006003c00e0cf52005b0a320056
:1023400053c4b30083cf5200f0003a002d00370091
:1023500083c5b30083cf5200ec003a004000370041
:1023600058c6b30088cf52002900320021003c003b
:10237000ef00370081cf5200370032000b003c00e5
:102380008dcf520015003200e3b79f00f4a79f00e5
:10239000f3c6b30083cf52002b003200e6c15100d8
:1023a00083cf5200d9003a00e1003700e3b79f0025
:1023b000f4a79f0053c7b30083cf5200d900320067
:1023c000e3c1410083cf520028003200e5c1510033
:1023d00083cf5200cd003a002800370070806100a2
:1023e0000200280001003a000201200082817100f1
:1023f000c2ff3700efb597000ba0a000ebb79f001e
:10240000cb0037006fb097000050a000e0b79f00ee
:10241000efb097000180a000e1b79f00c400370033
:102420006fb197000250a000e2b79f000200370092
:10243000e3b79f00f4a79f00efb197000390a000bf
:10244000e3b79f00ba0037006fb297000460a000a6
:10245000e4b79f00b6003700e3b79f00f4a79f00e2
:10246000efb297000550a000e5b79f006fb397004b
:102470000670a000e6b79f00ad0037008fab970055
:102480004704780087af9f00a8b79f00e00f540073
:1024900002003a002aa22000aab79f008005eb00a4
:1024a000bbb79f002fb09700bfb097004fb1970008
:1024b000dfb19700010037008500e8008102780055
:1024c00061427800e04f5200fbff3a00a0b79f0046
:1024d000b1b79f00c2b79f00d3b79f00efaa970084
:1024e000e08f5200050032003fb39700868f520004
:1024f0000200310085037800b7b79f003fb4970012
:102500000006eb009fac9700888f54000100360056
:10251000088654006fb59700e80665002f003a0062
:102520008c01780008c2b3000fbf9700100037007d
:102530003e0090000004b200040032001e0078004b
:1025400008487800000fe800050037008e0078008a
:1025500000022000dc090700e10f40000300320008
:10256000ffb597008b05e800fbb79f008c01780052
:102570000c06e900e08f5100edff3a00170037002c
:102580003e0090000004b200090032009e01780075
:10259000080178003240780080497800030fe80095
:1025a00002047800e04f500008003a0010003700a5
:1025b000080178003200fb00020478008e007800e9
:1025c000c1090700e10f4000090032007fb0970009
:1025d0000000e800f0b79f00050037002fb4970017
:1025e000bfb497004fb59700dfb597000fbf9700b6
:1025f000090078008004e900e00f5000e0ff3a0095
:10260000a8b79f00b9b79f00cab79f00dbb79f006c
:10261000e08f5600a009320011003700380090000a
:102620000004b20004003200180078000d48780061
:10263000000ce80005003700880078000002200048
:10264000a1090700e10f400003003200ffb297002c
:102650008502e800f5b79f000e06780002003700fb
:102660000dc2b3000fbc97000c07e900e00f560045
:10267000eaff3a00880937000fab9700460478005c
:1026800086af9f0008007800cf80de00010178004f
:1026900082017800a0af9f00b1af9f00c2af9f0042
:1026a000d3af9f000205be000004be004844de0018
:1026b000c848dd0008847000c84f9f006fb19700c4
:1026c0007006610009003200e04f5400070032003c
:1026d000e14f440005003200d84f9f00e04f9f00bb
:1026e00023002000b3b79f00040037004fd29700ab
:1026f000d44f9f0015002000b5b79f00d6f82f00db
:1027000006834700a6b79f0074ff3700c7f82f0065
:1027100087834700a7b79f0018002000b8b79f0025
:102720006eff3700efb49700090cb300e9b79f00c4
:10273000087020006fb59700080465004d06320050
:102740000800210008046500020032006b00200030
:10275000ebaf9f006fb0970070046000050032007f
:102760000fac97004803be004802be0088af9f0030
:10277000060037008fac97004900be0089af9f006c
:10278000a9f907000002be000203be00a4af9f002b
:10279000b5af9f00c6af9f00d7af9f006022b800c3
:1027a0006033b8002fa89700bfa897004fa99700e3
:1027b000dfa99700bbf9070080027800e08f520084
:1027c0000c003d002fac9700bfac97004fad9700b9
:1027d000dfad97000bf0a200a8af9f00b9af9f003c
:1027e000caaf9f00dbaf9f00efb497003900b30082
:1027f000e9b79f000004eb00888f9f006022b800bb
:102800006033b8002fa89700bfa897004fa9970082
:10281000dfa99700a8f9070080027800888f52008e
:102820003b0032002fa89700bfa897004fa9970040
:10283000dfa99700a5f9070002f92f000f01410059
:10284000cdf907000f8a97000402e9006322b9005e
:10285000a8002000809fbe00110009000802d800d7
:10286000000278004f00be00848f9f00e00f5200ee
:1028700002003d000402e900848f9f000f8e970044
:102880008c41ea0003407800a8fd07002faa9700ba
:10289000bfaa97004fab9700dfab9700edf807009a
:1028a0000002be000203be00f49f9f0085a79f00a8
:1028b00096a79f00a7a79f006022b80006002000ef
:1028c00007ff230077f9070080027800e08f5200ad
:1028d00002003d000c04e9000c0037006022b80043
:1028e00006002000470224007f9897008fa09700e1
:1028f0001fa19700afa19700a2f9070080027800fe
:10290000e08f5200020035000c04e800888f9f0021
:102910008f8a9700a5b79f006fb697000c10b20082
:1029200009003a006fb697000c20b2009a033200fb
:1029300005037800e40f430003003500efab970078
:10294000870f5300230335006fac9700e00f54004e
:10295000050032006fb697000c20b2000200320072
:102960000804e900e8af9f00efac9700f28f540035
:102970000300360023c1b300c34f9f00020037009d
:102980004fdd9700ca4f9f006022b8006033b80047
:102990002fa89700bfa897004fa99700dfa997001d
:1029a00045f9070080027800e08f52007b0032007a
:1029b0004f4e9700cfe597008cc15500034078003b
:1029c0005afd07000002be000203be002fa89700b8
:1029d000bfa897004fa99700dfa997006ef90700dd
:1029e0000002be000203be00a4af9f00b5af9f006f
:1029f000c6af9f00d7af9f00c1f90700e6f90700f7
:102a00000002be000203be002fa89700bfa89700d7
:102a10004fa99700dfa99700e1f907006022b800ed
:102a20000600200007fe230056f907008002780008
:102a3000e08f52000e0035006022b8000600200032
:102a400007fe23002fa89700bfa897004fa9970063
:102a5000dfa99700d4f907000004be000205be00fc
:102a6000a8af9f00b9af9f00caaf9f00dbaf9f0028
:102a70002fa89700bfa897004fa99700dfa997003c
:102a80009ff90700b09f9f00c19f9f008005eb004a
:102a9000db9f9f000000eb00e09f9f000c06fb0007
:102aa0008c06e800c36edd000e9620008d06470000
:102ab0003d04be002d05be003f9a9700cf9a9700b7
:102ac0005f9b9700ef9b97000820e10009a8e100b9
:102ad0000ab0e1000bb8e100120039000400200048
:102ae00005002a009699290097fb23002fa897003c
:102af000bfa897004fa99700dfa9970055f80700d6
:102b00000004be000205be00a8af9f00b9af9f0041
:102b1000caaf9f00dbaf9f00afb497000904e80085
:102b20001d0037004366dd000c0647003c04be0074
:102b30002c05be003f989700cf9897005f999700ab
:102b4000ef9997000800e1000988e1000a90e10090
:102b50000b98e100110031006022b800060020004f
:102b6000470224002fa89700bfa897004fa99700fd
:102b7000dfa9970037f807000002be000203be007d
:102b8000a4af9f00b5af9f00c6af9f00d7af9f0017
:102b9000afb297000504e900888f9f0008a02000cd
:102ba0006fb397000806630008202000880f5600c6
:102bb00051003a00efab9700f48f5300020034004d
:102bc00048012000e8af9f002fa89700bfa89700fa
:102bd0004fa99700dfa9970049f90700f0979f00d8
:102be000819f9f008005eb009b9f9f000000eb00f2
:102bf000a09f9f007f9297008f9a97001f9b97003e
:102c0000af9b9700a4b79f00b5b79f00c6b79f00c2
:102c1000d7b79f006fac97000d0037000804e9009c
:102c2000a4002000050020006033b8002fb09700fa
:102c3000bfb097004fb19700dfb197003ffa070090
:102c4000a0b79f00b1b79f00c2b79f00d3b79f0046
:102c50002fb09700bfb097004fb19700dfb197003a
:102c6000e00f5000e08f5800e00f5900e08f59004e
:102c700009003200a4002000050020006033b800e5
:102c800035fa0700e00f5000e08f5800e00f5900c0
:102c9000e08f5900e1ff3200e8af9f004f4e9700f0
:102ca0000c04fb00efa89700888f500012003d0035
:102cb00081415600034078009cfc07000002be00e2
:102cc0000203be002fa89700bfa897004fa9970046
:102cd000dfa99700b0f807000002be000203be00a3
:102ce000a4af9f00b5af9f00c6af9f00d7af9f00b6
:102cf000cfda9700c54f9f001fab9700e503530045
:102d00006fac97008883530097af9f00e00f54008b
:102d100004003a0008802000efb4970008846400a3
:102d2000030032001fad97000a05e9009aaf9f002b
:102d3000efb5970063846500030032001fa8970079
:102d40000000e90090af9f00efb09700648460003e
:102d50004c003200628660000fb997003204900088
:102d6000e1866000e00f5600190032000804b2004e
:102d70000900320012067800b8c2b300e08f560096
:102d80000100320008c4e800084e78008fb99700af
:102d90008c09e8000a003700d8022000e08f5600b6
:102da00001003a000884e9008fb897000800780015
:102db000c507070080027800e18f4200270032003b
:102dc0007fb297000402e800f4b79f0023003700a9
:102dd000e08f5600210032000804b20006003200e5
:102de0008fba97001504780003c2b300034c780033
:102df000880ae800060037008fb89700000220001c
:102e0000b107070080027800e18f42001300320012
:102e10007fb397000603e800f6b79f000f00370066
:102e2000380090000004b20004003200180078005e
:102e30000c487800000ce800050037008800780096
:102e400000032000a0070700e10f4000010032004e
:102e50000e07e8008d06e900040037000cc3b3003c
:102e60009fae97007fb797000fbc9700e08f56008a
:102e7000ebff3c009daf9f008e037800f7b79f00eb
:102e800050003700efb497006884640019003a00de
:102e90000f003700380090000004b2000400320038
:102ea000180078000c487800000ce8000500370096
:102eb000880078000002200083070700e10f40002f
:102ec000010032000e07e8008d06e900040037001b
:102ed0000cc2b3009fae97007fb797000fbc97005e
:102ee000e08f5600ebff3c009daf9f000e05780081
:102ef000fab79f00efb59700628665000fb897009c
:102f000030049000e1866500e00f560019003200a1
:102f10000804b2000900320010067800b8c2b300fd
:102f2000e08f56000100320008c4e800084e780027
:102f30008fb897008c08e8000a003700d8022000fc
:102f4000e08f560001003a000884e9008fb897002e
:102f5000080078005c07070080027800e18f4200db
:102f6000180032007fb197000201e800f2b79f001d
:102f700014003700e08f5600120032000804b2003f
:102f8000070032008fb997001304780003c2b30022
:102f9000034c78000fba9700080ae80006003700d3
:102fa0008fb89700000220004707070080027800d2
:102fb000e18f420003003200ffb297008502e80073
:102fc000f5b79f002fa89700bfa897004fa99700bb
:102fd000dfa997004af80700b0a79f00c1a79f008c
:102fe0008003eb00d7a79f000004eb00e8a79f0039
:102ff0008fbc9700390690000c04b2004f4d97002b
:103000000a04fb00870f560014003200990678006e
:103010004344dd000c962000080446003802be0040
:103020002803be003fa09700cfa097005fa19700a4
:10303000efa1970041f907000205be000004be00a1
:103040000843b000884e78008fbd97008d0de800d2
:10305000e04f540014003a00160037004344dd00ee
:103060000c962000080446003802be002803be006b
:103070003fa09700cfa097005fa19700efa1970016
:103080002ef907000205be000004be000803b000d0
:103090008fb89700080078000b07070080027800bf
:1030a000e18f4200030032007fb097000000e8008b
:1030b000f0b79f00cf4897000104fb004344dd00b8
:1030c0000c962000080446003802be002803be000b
:1030d0003fa09700cfa097005fa19700efa19700b6
:1030e0001df90700a0b79f00b1b79f00c2b79f00ae
:1030f000d3b79f00efaa9700e08f520004003a0078
:10310000088020006fb3970008046300810032003c
:103110008fbb9700370490000804b200050032000e
:1031200017047800e3c2b300034c7800880be80072
:10313000060037008fb89700e0022000e206070083
:1031400080027800e18f4200030032007fb49700d4
:103150000804e800f8b79f004f4f9700efb49700be
:103160000920b2000d9620000fbe97004a003700dc
:10317000e08f54000d0032002fb09700bfb09700d1
:103180004fb19700dfb19700e00f5000e08f58007b
:10319000e00f5900e08f590004003a008040eb0036
:1031a000c14f9f000004eb0053003700bc019000aa
:1031b0000304b2000401fb00e08f51001200320052
:1031c0001c0478004311dd00028146003202be007b
:1031d0002203be002fb09700bfb097004fb19700f9
:1031e000dfb19700d5f807000203be000002be0061
:1031f0000443b000044c7800080ee800e04f520091
:1032000013003a00150037004311dd00028146002b
:103210003202be002203be002fb09700bfb097005d
:103220004fb19700dfb19700c4f807000203be005a
:103230000002be000403b0008c0078000400780097
:10324000a106070000017800e10f410003003200f1
:103250007fb197000201e800f2b79f00cf499700c5
:103260000301fb004311dd00028146003202be0073
:103270002203be002fb09700bfb097004fb1970058
:10328000dfb19700b4f80700a0b79f00b1b79f0067
:10329000c2b79f00d3b79f004f4997000242e90091
:1032a000c44f9f00e04f5100b1ff3a000e03fb00f6
:1032b000efaa9700068452000f0037003d009000ef
:1032c0000004b200040032001d0078000c487800b1
:1032d000800ee800050037008d0078000003200014
:1032e00079060700e10f4000010032000e07e800f8
:1032f0000804e900030037000cc3b3007fb7970050
:103300008fbe9700e00f5400ecff3a000e037800e8
:10331000f6b79f006fb497000802b2008fbb97000a
:1033200037039000110032000604b200050032009d
:103330001703780053c4b300034b7800860be800f2
:10334000060037008fb89700500420005e06070083
:1033500080027800e18f4200150032007fb49700b0
:103360000804e800f8b79f00110037000604b20017
:10337000060032008fbc97001903780053c6b300d3
:10338000034b7800860ce800060037008fb89700e2
:10339000500620004c06070080027800e18f4200b2
:1033a000030032007fb597000a05e800fab79f00d6
:1033b0000f8c97008fbd97003b039000e00f5400e7
:1033c00013003d000804ea00888f9f000604b20045
:1033d000050032001b037800d3c2b300034b780012
:1033e000860de800060037008fb89700d002200055
:1033f0003506070080027800e18f42001500320098
:103400007fb097000000e800f0b79f001100370080
:103410000604b200060032008fb89700110378004e
:10342000b2c2b300024b78008608e80006003700fd
:103430008fb89700b00220002306070080027800b2
:10344000e18f420003003200ffb197008301e800e2
:10345000f3b79f000fba9700b40690000d04b200b6
:103460000f8b97000f00320014047800ac0020008e
:1034700080027800811f7800110009000c03d80039
:103480008002fd00cf00780007c3b30007c34200ed
:10349000064c7800080ae800e04f53000c003a00a0
:1034a0000e003700a8002000110009000803d80012
:1034b000000378000603b0008fb89700060078007c
:1034c0000106070080027800e18f4200030032000d
:1034d0007fb497000804e800f8b79f008fbc9700fe
:1034e000b90690000d04b2000f8b97000f00320058
:1034f00019047800ac002000801f78008102780059
:10350000110009000c03d8008102fd004f00780073
:103510000ac3b3000ac34200064c7800880ce800d6
:10352000e04f53000c003a000e003700a8002000c6
:10353000110009000803d800010378000603b00059
:103540008fb8970006007800df050700800278003a
:10355000e18f420003003200ffb597008b05e800c1
:10356000fbb79f006fb09700e8026000ca05320009
:103570009fa89700e08f5000c705340008c2b30031
:10358000810678007fb797000fbe97003c0090003f
:103590000004b200040032001c00780008487800e3
:1035a000000ee800050037008c00780000022000c3
:1035b000c5050700e10f4000010032000e07e800da
:1035c0008d06e900f1ff3a000e017800f2b79f0086
:1035d000b1053700afb19700e08f510004003d0006
:1035e0000384ea006faa970008024200e4af9f003c
:1035f0002fa89700bfa897004fa99700dfa99700b1
:103600004ef80700a0b79f00b1b79f00c2b79f0058
:10361000d3b79f008044eb00c94f9f000196200064
:10362000100037000c00fb004300dd00008040006c
:103630003002be002003be002fb49700bfb4970035
:103640004fb59700dfb597000440e10005c8e100e1
:1036500006d0e10007d8e100050039000c46e8007b
:10366000cc4f9f004f4e9700f44f5600edff3a00ad
:103670000c04fb00efac970088845400e9af9f0076
:10368000f88f54000f003c0009407800dff9070074
:103690000002be000203be002fa89700bfa897003b
:1036a0004fa99700dfa99700bff607000002be00f0
:1036b0000203be00a4af9f00b5af9f00c6af9f003e
:1036c000d7af9f004fd8970018fa07000004be003c
:1036d0000205be002fb09700bfb097004fb1970012
:1036e000dfb1970046f807000002be000203be00eb
:1036f0002fa89700bfa897004fa99700dfa99700b0
:10370000a7f607000002be000203be000800be00cc
:103710000a01be004ff5070008f807000205be00c9
:103720000004be00a0b79f00b1b79f00c2b79f00c2
:10373000d3b79f006fae970009003700a4002000a8
:10374000050020006033b8000800be000a01be007a
:103750007af707000205be000004be000c06e9006f
:10376000e00f56001f003200a400200005002000da
:103770006033b8000800be000a01be0076f70700fb
:10378000e00f5000e08f5800e00f5900e08f590023
:10379000eaff320013003700efac9700f88f5400b7
:1037a00011003c000940780098f907000002be00b3
:1037b0000203be002fa89700bfa897004fa997004b
:1037c000dfa9970078f607000002be000203be00e2
:1037d000a4af9f00b5af9f00c6af9f00d7af9f00bb
:1037e00001003700ecaf9f000f8c9700e90f5400e9
:1037f00016003c006022b8006033b8002fa8970084
:10380000bfa897004fa99700dfa99700aaf5070066
:1038100080027800e08f5200370032002fa8970016
:10382000bfa897004fa99700dfa99700c3f707002b
:10383000e00f5000e08f5800e00f5900e08f590072
:103840002d003a00e10f54002b003400040020004a
:1038500005002e00b6e02200170124007f98970093
:103860008fa097001fa19700afa197008df50700cb
:1038700000027800e00f520002003d007302540085
:103880000100370072025400848f9f000f50970090
:10389000a6f907000004be000205be00f89f9f00c5
:1038a00089a79f009aa79f00aba79f000002be00b8
:1038b0000203be002fa89700bfa897004fa997004a
:1038c000dfa99700b4f507009cf70700a0b79f0099
:1038d000b1b79f00c2b79f00d3b79f006044b80044
:1038e0006055b800a8af9f00b9af9f00caaf9f0056
:1038f000dbaf9f00190037002fa89700bfa89700e3
:103900004fa99700dfa997008cf70700a0b79f0089
:10391000b1b79f00c2b79f00d3b79f00b8f70700a9
:103920000002be000203be002fa89700bfa89700a8
:103930004fa99700dfa9970019f607000004be0001
:103940000205be00a8af9f00b9af9f00caaf9f009d
:10395000dbaf9f000004eb00888f9f0013c0b30013
:10396000c34f9f0001962000100037000200fb00ab
:103970004300dd00008040003002be002003be0096
:103980002fb49700bfb497004fb59700dfb59700ed
:103990000440e10005c8e10006d0e10007d8e100dd
:1039a000050039000241e800c24f9f004f499700cf
:1039b000f44f5100edff3a00024378000f8c97005e
:1039c0009fac9700888354006fad97008a835300a3
:1039d0000603fb000687530006802000efb5970022
:1039e0000683650096af9f0002003a00e00f550085
:1039f000010032000e07e9006fb09700630360001a
:103a0000010032000e07e900efb097006483600008
:103a10004a0032006284600061866000e00f54005a
:103a20001b0032000fb99700320390000604b20069
:103a30000900320092067800b8c2b300e00f5600c9
:103a40000100320008c4e800884e78008fb9970062
:103a50008d09e8000a003700d8022000e00f560068
:103a600001003a000884e9008fb897000800780048
:103a70009504070080027800e18f420028003200a0
:103a80007fb297000402e800f4b79f0024003700db
:103a9000e00f5600220032008fba970035039000e5
:103aa0000604b200050032001504780003c2b3001a
:103ab000034c7800880ae800060037008fb89700aa
:103ac000000220008004070080027800e18f42009d
:103ad000130032007fb397000603e800f6b79f009b
:103ae0000f003700380090000004b20004003200dc
:103af000180078000c487800000ce800050037003a
:103b000088007800000320006f040700e10f4000e8
:103b1000010032008d06e8000e07e90003003700bf
:103b20000cc3b300ffb697000fbc9700e00f57001f
:103b3000ecff3c00fdb79f007c003700efb397001f
:103b40006883630016003a000f00370038009000c9
:103b50000004b20004003200180078000c4878001d
:103b6000000ce80005003700880078000002200003
:103b700055040700e10f4000010032008d06e80007
:103b80000e07e900030037000cc2b300ffb6970030
:103b90000fbc9700e00f5700ecff3c00fdb79f0003
:103ba000efb497006284640061866400e00f540003
:103bb0001b0032000fbd97003a0390000604b200cc
:103bc000090032009a067800b8c2b300e00f560030
:103bd0000100320008c4e800884e78008fbd9700cd
:103be0008d0de8000a003700d8022000e00f5600d3
:103bf00001003a000884e9008fb8970008007800b7
:103c00003104070080027800e18f42004700320053
:103c10007fb097000000e800f0b79f004300370036
:103c2000e00f5600410032008fb89700310390003a
:103c30000604b200050032001104780003c2b3008c
:103c4000034c78008808e800060037008fb897001a
:103c5000000220001c04070080027800e18f42006f
:103c6000320032007fb197000201e800f2b79f00f6
:103c70002e0037003e0190000204b2000300fb005a
:103c8000e00f5100120032001e0678004300dd00f4
:103c9000008046003002be002003be000800be00c7
:103ca0000a01be0025f60700a40020000500200040
:103cb0006033b80028f607000203be000002be0011
:103cc00003c3b300034e42000c0fe800130037009b
:103cd0004300dd00008046003002be002003be002d
:103ce0000800be000a01be0014f60700a400200070
:103cf000050020006033b80017f607000203be007d
:103d00000002be000403b0008e00780004007800ba
:103d1000ed030700e10f40000c0032007fb2970076
:103d20000402e800f4b79f00080037000d96200059
:103d30008e027800a58f9f002fb49700bfb4970024
:103d40004fb59700dfb597000fbf97004f4897001a
:103d50008041e900c34f9f00e04f5000c5ff3a008b
:103d600011003700380090000004b2000400320057
:103d7000180078000c487800000ce80005003700b7
:103d80008800780000032000cf030700e10f400007
:103d9000010032008d06e8000f8897000000e9005e
:103da000808f9f00040037002f8f97000cc3b30053
:103db000ffb697000fbc97000f889700e00f5000e8
:103dc000e8ff3c00fdb79f006fab9700f20f530078
:103dd0000300340023c1b300c34f9f00020037002b
:103de000cfdb9700c74f9f004f4c97008802fb0026
:103df000efac970085825400e5af9f00e04f540080
:103e000003003a001fad9700e00f5500120032008a
:103e10008fbd9700bb0290000504b2000500320080
:103e20001b047800e3c2b300034c7800880de8005f
:103e3000060037008fb89700e0022000a2030700b9
:103e400080027800e18f4200030032007fb09700cb
:103e50000000e800f0b79f004f48970033f80700d4
:103e60000002be000203be002fa89700bfa8970063
:103e70004fa99700dfa9970076f307002ff60700f8
:103e8000a0b79f00b1b79f00c2b79f00d3b79f00f4
:103e90000d9620008e027800a5af9f000fbf9700ff
:103ea0003f003700be0190000304b2000401fb0094
:103eb000e08f5100120032001e0678004311dd0031
:103ec000028146003202be002203be002fb09700de
:103ed000bfb097004fb19700dfb1970097f507008b
:103ee000a4002000050020006033b8009af5070008
:103ef00008c3b300084e40000c0fe800160037005e
:103f00004311dd00028146003202be002203be00e2
:103f10002fb09700bfb097004fb19700dfb1970067
:103f200086f50700a4002000050020006033b800db
:103f300089f507000203be000002be000403b000c2
:103f40008e007800040078005f030700000178000d
:103f5000e10f410003003200ffb497008904e8003c
:103f6000f9b79f004f4d97000a01fb004311dd0098
:103f7000028146003202be002203be002fb097002d
:103f8000bfb097004fb19700dfb1970072f50700ff
:103f9000a0b79f00b1b79f00c2b79f00d3b79f00e3
:103fa0004f4997000242e900c44f9f00e04f510083
:103fb000bcff3a0011003700380090000004b20046
:103fc00004003200180078000c487800000ce8006b
:103fd0000500370088007800000320003a0307003e
:103fe000e10f400003003200ffb297008502e800b5
:103ff000f5b79f008d06e900040037002faf97004a
:104000000cc3b300efae97000fbc9700e08f5600d3
:10401000e9ff3a006fb39700680163001e033200a6
:10402000e00f57001c03340008c2b300ffb697002e
:104030000fbe97003c0090000004b2000400320064
:104040001c00780008487800000ee80005003700e2
:104050008c007800000220001b030700e10f4000e5
:10406000010032008d06e8000e07e900f1ff3a007a
:1040700008033700efb29700050cb20043003a0086
:10408000efb39700e08f530005003d000fa89700a5
:104090004005be004004be0080af9f001000370006
:1040a000efb09700f0826000120032000faa970074
:1040b0004401be0084af9f00f28f9f0083979f0052
:1040c000140490004fc4de0098979f00a8979f00ab
:1040d0007f8c97008f9497001f959700af9597005e
:1040e000a8b79f00b9b79f00cab79f00dbb79f0072
:1040f0000b0037008fac9700c902780089af9f0092
:1041000005007800cf80de00010178008201780090
:10411000a0b79f00b1b79f00c2b79f00d3b79f0061
:104120002fb29700bfb297004fb39700dfb397004d
:10413000e00f5200e08f5a00e00f5b00e08f5b0061
:1041400038003d00efb297003500b300e5b79f009f
:104150006044b8006055b8002fb09700bfb097001a
:104160004fb19700dfb197000000540081805c00e0
:1041700002015d0083815d00a0b79f00b1b79f0081
:10418000c2b79f00d3b79f0026003700efb097005b
:10419000e08f500005003d000fac97004803be00c3
:1041a0004802be0088af9f000e003700efb49700b2
:1041b000f0826400100032000fa897004005be0096
:1041c00080af9f00ba8f9f00cb8f9f00d88f9f003a
:1041d000e88f9f003f8a9700cf8a97005f8b9700f8
:1041e000ef8b9700a4b79f00b5b79f00c6b79f009d
:1041f000d7b79f000b0037000fab9700c6027800bf
:1042000086af9f0005047800090020000a00200006
:104210000b002000a8b79f00b9b79f00cab79f0046
:10422000dbb79f00efac9700e08f54000d003a0021
:104230001a002000eaaf9f002fb09700bfb0970090
:104240004fb19700dfb19700e00f5000e08f5800aa
:10425000e00f5900e08f5900020032008000eb00af
:10426000e1af9f006fb19700020cb200a2af9f00b8
:1042700008042000880f51003f00320003003c007a
:10428000e00f5100080032005600370005082000fa
:10429000afa99700858f51001b003200050c20004c
:1042a000858f51004f003a0013c0b300c34f9f00e9
:1042b00001962000100037000200fb004300dd00e3
:1042c000008040003002be002003be002fb49700e3
:1042d000bfb497004fb59700dfb597000440e100e9
:1042e00005c8e10006d0e10007d8e1003d00390033
:1042f0000241e800c24f9f004f499700f44f510020
:10430000edff3a003700370013c0b300c34f9f00e2
:1043100008012000090020006055b8001200370095
:104320002fb29700bfb297004fb39700dfb397004b
:104330000820e10009a8e1000ab0e1000bb8e100a3
:1043400028003900450020000804d0008984d200ec
:104350000a85d2008b85d2008502e900faff3a0077
:104360000040e800c04f9f004f489700f04f5000ba
:10437000ebff3a001b00370013c0b300c34f9f0090
:1043800088002000090020006055b80012003700a6
:104390002fb29700bfb297004fb39700dfb39700db
:1043a0000820e10009a8e1000ab0e1000bb8e10033
:1043b0000c003900350020000804d0008984d200a8
:1043c0000a85d2008b85d2008502e900faff3a0007
:1043d0000040e800c04f9f004f489700f54f500045
:1043e000ebff3a004f4b97000604fb00efab970042
:1043f000870f540002003d00c74f9f0004003700a4
:10440000efac9700888f540001003d00e8af9f009b
:104410001fad9700e00f550005003200efb5970083
:10442000e3826500020032000a05e9009aaf9f00ae
:10443000050024006fb0970085026000090032007b
:104440009fa897006fa99700828f50000300340047
:104450008280500091af9f00020037008001eb0086
:1044600093af9f00458c20006fb297000504620057
:104470004508b100850f540006003a009faa970036
:10448000e08f5200110032008502e90095af9f00d5
:104490000e003700058c20006fb397000504630001
:1044a0000504b100850f540008003a009fab970047
:1044b000e28f5300030034008783e90097af9f0029
:1044c000020037000004eb0098af9f00cf4c97002c
:1044d0000904fb000007eb001fad9700880f550093
:1044e0000100340008075500efb59700e48265002d
:1044f00081003200e283650061846500e08f530033
:104500001b0032000fb89700b00290000504b20003
:104510000900320010067800b7c2b300e00f540063
:104520000100320087c3e800074e78008fb897007b
:104530008c08e8000a003700d7022000e00f540082
:1045400001003a008783e9008fb8970007007800e0
:10455000dd01070080027800e18f42005000320048
:104560007fb197000201e800f2b79f004c003700ce
:10457000e00f5400140032008fb99700b30290008e
:104580000504b200060032009303780003c2b300b2
:10459000834b78000fba9700070ae800060037003f
:1045a0008fb8970000022000c70107008002780042
:1045b000e18f42003a003200ffb297008502e80026
:1045c000f5b79f0036003700058c20006fb39700c9
:1045d000850363000504b100858f530030003a0065
:1045e0008fbb9700b70290000504b20006003200ae
:1045f000070478009803780003c3b300834b780066
:10460000070ce800060037008fb897000003200071
:10461000ad01070080027800e18f42000300320004
:10462000ffb497008904e800f9b79f000fbd970019
:10463000ba0390000704b2006fb697000c02b200f4
:10464000e08f5300090032001a04780087c5b300d8
:10465000e00f560001003a0087c7b300074c78000e
:104660008fbd9700880de8000a00370087052000fd
:10467000e00f560001003a00870720008fb897002e
:10468000070078009001070080027800e18f420067
:10469000030032007fb097000000e800f0b79f00f1
:1046a000e00f5700580132000cc3b300ffb697006b
:1046b0000fbc9700380090000004b20004003200e4
:1046c000180078000c487800000ce800050037005e
:1046d00088007800000320007b010700e10f400004
:1046e000010032008d06e8000e07e900f1ff3a00f4
:1046f000fdb79f0044013700e00f5700160032005d
:10470000efb09700e882600013003a000cc2b300db
:10471000ffb697000fbc9700380090000004b2006d
:1047200004003200180078000c487800000ce80003
:1047300005003700880078000002200062010700b1
:10474000e10f4000010032008d06e8000e07e9008d
:10475000f1ff3a00fdb79f006fb19700e2036100df
:1047600061046100e08f53001b0032008fb9970095
:10477000b30290000504b20009003200130678006d
:10478000b7c2b300e00f54000100320087c3e80055
:10479000074e78000fba97000c0ae8000a003700ad
:1047a000d7022000e00f540001003a008783e9009f
:1047b0008fb8970007007800430107008002780057
:1047c000e18f420018003200ffb297008502e80036
:1047d000f5b79f0014003700e00f540012003200bc
:1047e0000fbb9700b60290000504b200050032002e
:1047f0009603780003c2b300834b7800070be800f0
:10480000060037008fb89700000220002e01070035
:1048100080027800e18f420003003200ffb397006e
:104820008703e800f7b79f00058c20006fb497005e
:10483000850364000508b100858f530013003a001a
:104840008fbc9700b90290000504b2000500320049
:104850009903780003c3b300834b7800870ce8000a
:10486000060037008fb897000003200016010700ec
:1048700080027800e18f4200e30032007fb59700ac
:104880000a05e800fab79f00df003700058820001e
:10489000858f5300dc003a008fbd9700bb0290006b
:1048a0000504b200050032009b03780003c3b30087
:1048b000834b7800870de800060037008fb897001b
:1048c000000320000001070080027800e18f420011
:1048d000030032007fb097000000e800f0b79f00af
:1048e0008fb89700b10390000704b2006fb697002d
:1048f0000c02b200e08f530009003200110478006e
:1049000087c5b300e00f560001003a0087c7b30027
:10491000074c78000fb997000809e8000a00370033
:1049200087052000e00f560001003a0087072000ad
:104930008fb8970007007800e30007008002780036
:10494000e18f4200b0003200ffb197008301e80020
:10495000f3b79f00ac0037000e07e9000004200009
:104960002faa9700800f52008200320003003c0003
:10497000e00f5200080032008e00370000082000cf
:10498000afaa9700808f520065003200000c200013
:10499000808f520087003a004370dd006fb39700ac
:1049a000e00f53002a003d000796200000804300de
:1049b0003004be002005be00e8af9f00f9af9f00a5
:1049c0008ab79f009bb79f000802be000a03be0083
:1049d0002fb09700bfb097004fb19700dfb197009d
:1049e000d6f20700c04f9f000004fb00cfc4de00da
:1049f000090578008a0578006faa9700ffaa97003a
:104a00000fb397009fb397000800be000a01be00d5
:104a1000a6f307000203be000002be002fb09700fd
:104a2000bfb097004fb19700dfb19700040050006e
:104a3000858058000601590087815900a0b79f0062
:104a4000b1b79f00c2b79f00d3b79f0030003700b7
:104a50009fa89700e08f50001f0032002fb69700ec
:104a6000bfb6970002962000000041003004be004f
:104a70002005be000801be000c00be00b4f3070014
:104a8000c04f9f000000fb00cf80de000801be0089
:104a9000bff307000002560081825e00b4979f00ba
:104aa000c5979f008002eb00d5979f000003eb00a5
:104ab000e6979f003f949700cf9497005f959700eb
:104ac000ef959700a8b79f00b9b79f00cab79f009e
:104ad000dbb79f000e0037000996200069017800bf
:104ae0002fb59700811f7800110009000285d800ba
:104af000cf007800a2002000811f7800110009007b
:104b00000280d80001007800cf007800c04f9f00dd
:104b1000cf4d97000b43b000cb4f9f0025003700cf
:104b200004a020002f889700e00f500001003a00f9
:104b300014a120004270dd002fb49700bfb497008d
:104b40004fb59700dfb59700800278008502e90035
:104b5000050033008b05d1000a85d3008984d3007a
:104b60000884d300f9ff37006f00640064407800c8
:104b70000f0037006370b9002fb49700bfb49700df
:104b80004fb59700dfb59700000278000402e900f6
:104b9000050033008b05d1000a85d3008984d3003a
:104ba0000884d300f9ff3700674064000043b00079
:104bb000c04f9f008fba9700350090000004b200ec
:104bc00007003200150178004f489700004978002f
:104bd000820ae800e04f500007003a001300370057
:104be0004f4b97000600fb008fb897003600070078
:104bf000e10f40000d003200ffb397008703e8008b
:104c0000f7b79f00090037006fb497007004640085
:104c100098af9f00efb497000902b200a98f9f00e0
:104c20000e0578009a8f9f006faf9700e00f570036
:104c300049ff3a001f8f9700efb597006881650024
:104c400015003200e00f57001300340008c2b30013
:104c5000ffb697000fbe97003c0090000004b20022
:104c6000040032001c00780008487800000ee800bc
:104c7000050037008c0078000002200012000700b9
:104c8000e10f4000010032008d06e8000e07e90048
:104c9000f1ff3a00fdb79f007fa097009042780097
:104ca000c54f9f00e0cf520007f53a007fb0970054
:104cb0004f0778004f06be004f05be004f04be00f0
:104cc0008f06b10000000600889fbe000104780036
:104cd000b8009000628160008084eb003c003200ec
:104ce000810178000320b2001801900002003a0010
:104cf000e00f510036003a000190a0003104980006
:104d000080047800f90fb200e00f510002003a0071
:104d100028009000000c7800ea8f540006003a004a
:104d2000010078000008b20003003a008800780013
:104d3000d0002000e4ff070018009000d800900089
:104d4000810f50000b0032000000e80010049800b2
:104d50001800780009487800000ce80010c0b30083
:104d600001a5200080487800ea8f540018003a001e
:104d70000500370088007800094078001700070018
:104d80008004780012003700380090000010b20054
:104d90000f00320018019000a80090004800900019
:104da000f1ed070098009000810f500004003200e0
:104db000380090000003b300300498008084eb00ba
:104dc0000000eb001004980028009000000c780010
:104dd000090078004f04be00000006000200fa003f
:104de000889fbe00a0ff9f0001047800380090005b
:104df000800078000104b20033003a00e200600055
:104e000005003a000003b300300498001104980034
:104e10000080eb002e003700d8049000e08f540093
:104e200006003a0012002000e6805700480090007b
:104e3000cded07001904980023003700a80090006a
:104e4000e08f500008003a0031a5200021049800ae
:104e5000010c7800210020005104980011049800f2
:104e60000030a0003004980018019000a8009000c5
:104e700048009000bced0700280090008080eb0007
:104e800011049800aff8970001487800000ce80082
:104e90002ff89700ea4f50000b003a0038009000be
:104ea0000010b2000800320018019000a800900025
:104eb00048009000aced07000000eb0010049800e3
:104ec000a8009000010c7800aff897000100fb00eb
:0c4ed0004f04be000080fa000000060045
:020000040000fa
:104edc004d6900006e200000583a000020250000ab
:104eec0075200000202000000a0d0000004d00007d
:104efc0061780000205800003a2000002575000061
:104f0c0020200000200a00000d0000004d69000068
:104f1c006e200000593a000020250000752000008a
:104f2c00202000000a0d0000004d000061780000f8
:104f3c00205900003a2000002575000020200000b8
:104f4c00200a00000d000000507500006c200000cd
:104f5c00583a000020250000662000006d73000008
:104f6c0020200000200a00000d00000050750000f9
:104f7c006c200000593a000020250000662000003b
:104f8c006d73000020200000200a00000d000000be
:020000040000fa
:104f9c000000fa0062002000014020000000280000
:104fac0062f3070000802e00310020002aed07007c
:104fbc000080fa00000006000200fa00004f7800a2
:104fcc00010037000000000023c2bf0062406000f7
:104fdc000004e000fbff3a001e80fb00201188005b
:104fec00010037000000000023c2bf0061406000d8
:104ffc000004e000fbff32000080fa000000060015
:10500c000600fa0010079800414798000040eb009a
:10501c00004f7800070037001e80fb0080007800ee
:10502c001e0090000080400010407800e2ff070056
:10503c001e4fe8004e4090009e4f1000f6ff3900c6
:10504c000080fa00000006000200fa00004f780011
:10505c00c0c7b300d8ff07001e407800d6ff07007a
:10506c000080fa00000006000000fa00c0c7b30080
:10507c00d1ff07000040eb00cfff07000080fa00d3
:10508c00000006000200fa00000f7800c0c7b30051
:10509c00c9ff070010c0b300c7ff07001e0078004f
:1050ac00c5ff07000080fa00000006000200fa00ad
:1050bc00000f7800c0c7b300bfff070020c0b300cb
:1050cc00bdff07001e007800bbff07000080fa0040
:1050dc00000006000800fa00000f78001107980085
:1050ec002207980033079800c0c7b300b2ff07002f
:1050fc0030c0b300b0ff07001e007800aeff070001
:10510c001e009000acff07002e009000aaff0700c5
:10511c003e009000a8ff07000080fa000000060087
:10512c000000fa00c0c7b300a3ff070040c0b300e3
:10513c00a1ff07000080fa00000006000800fa003a
:10514c00000f780011079800220798003307980089
:10515c00c0c7b30098ff070050c0b30096ff07000c
:10516c001e00780094ff07001e00900092ff0700bd
:10517c002e00900090ff07003e0090008eff07006d
:10518c000080fa00000006000000fa00c0c7b3005f
:10519c0089ff070060c0b30087ff07000080fa009a
:1051ac00000006000200fa00000f78001e00e0006c
:1051bc0002003c0010002000000f7800600020006e
:1051cc009e0f10000200340060002000000f7800d9
:1051dc00c0c7b30078ff070070c0b30076ff0700ac
:1051ec001e00780074ff07000080fa000000060023
:1051fc000000fa00c0c7b3006fff070080c0b30007
:10520c006dff07000080fa00000006000200fa00a3
:10521c00000f7800c0c7b30067ff0700a0c0b30041
:10522c0065ff07001e00780063ff07000080fa008e
:10523c00000006000800fa00000f78001107980023
:10524c002207980033079800c0c7b3005aff070025
:10525c00b0c0b30058ff07001e00780056ff0700cf
:10526c001e00900054ff07002e00900052ff070014
:10527c003e00900050ff07000080fa00000006007e
:10528c000a00fa00000f7800110798002207980016
:10529c003307980044079800c0c7b30046ff0700c7
:1052ac00c0c0b30044ff07001e00780042ff070097
:1052bc001e00900040ff07002e0090003eff0700ec
:1052cc003e0090003cff07004e0090003aff0700a4
:1052dc000080fa00000006000a00fa00100798008f
:1052ec00210798003207980043079800c0c7b30005
:1052fc0031ff0700d0c0b3002fff07001e00900045
:10530c002dff07002e0090002bff07003e009000a1
:10531c0029ff07000000eb00000f780007003700a2
:10532c001e007800800078004e0090000080400045
:10533c001040780020ff07001e0fe800f00120004d
:10534c009e0f1000f6ff34000080fa0000000600eb
:10535c000a00fa00000f7800110798002207980045
:10536c003307980044079800c0c7b30012ff07002a
:10537c00f0c0b30010ff07001e0078000eff0700fe
:10538c001e0090000cff07002e0090000aff070083
:10539c003e00900008ff07004e00900006ff07003b
:1053ac000080fa00000006000600fa00000f7800ea
:1053bc001107980022079800c0c7b300fefe070033
:1053cc0000c1b300fcfe0700000820009e0f100077
:1053dc000300340000c8b300f7fe070007003700d5
:1053ec001e00e00003003d000040eb00f2fe070051
:1053fc00020037001e007800effe07009e009000b0
:10540c0000042000808f50000300340000c4b3005f
:10541c00e9fe0700080037001e0090000000e000c5
:10542c0003003d000040eb00e3fe070002003700e4
:10543c001e009000e0fe07002e009000e10f5000cf
:10544c00060032002e0090000000e0000300320045
:10545c0010c0b300d8fe0700020037002e009000e9
:10546c00d5fe07000080fa00000006000a00fa00d2
:10547c00000f780011079800220798003307980056
:10548c00044f9800c0c7b300cbfe070020c1b30087
:10549c00c9fe07001e007800c7fe07001e00900022
:1054ac00c5fe07002e009000c3fe07003e009000d2
:1054bc00c1fe07000e489000bffe07000080fa00f6
:1054cc00000006000000fa00c0c7b300bafe0700d7
:1054dc0040c1b300b8fe07000080fa0000000600cf
:1054ec000000fa00c0c7b300b3fe070050c1b30000
:1054fc00b1fe07000080fa00000006000e00fa0062
:10550c00100798002107980032079800430798006d
:10551c005407980065079800c0c7b300a6fe0700a3
:10552c0060c1b300a4fe07001e009000a2fe07009d
:10553c002e009000a0fe07003e0090009efe07008b
:10554c004e0090009cfe07005e0090009afe070043
:10555c00ce0090005e0090000088b9008200200010
:10556c00110009000200d800000f78000000eb00c9
:10557c0010079800090037001e009000800078008a
:10558c006e00900000804000104078008afe0700fa
:10559c001e0090000000e800100798001e0090000c
:1055ac009e0f5000f4ff35000080fa00000006004a
:1055bc000400fa00000f780011079800c0c7b30070
:1055cc007dfe070080c1b3007bfe07001e00780043
:1055dc0079fe0700c0c7b30077fe070090c1b30087
:1055ec0075fe07001e00900073fe07000080fa0095
:1055fc00000006000400fa00100798001e0090003e
:10560c00e80f5000030034008000200010079800c1
:10561c000c0037001e0090000000e00003003c006e
:10562c001000200010079800060037001e009000a4
:10563c004300dd00680f50009e0078001000200031
:10564c00dbff07000080fa00000006003800fa00bb
:10565c00881f780010002000b05288004cfe070014
:10566c00c082a90000000000c0a2a9000000000038
:10567c00c122a90000000000c142a90000000000e6
:10568c00c002a900000000000040eb006efe070005
:10569c002a83a8000040eb00004f78000040eb008c
:1056ac00206798002e020700e0762a006017980009
:1056bc00d0772a0070179800c0782a00001f980035
:1056cc00b0792a00101f9800a07a2a00201f980099
:1056dc00c07b2a00301f98000040eb001047980058
:1056ec000000eb00100798008040eb0040c1b300b5
:1056fc00830207005402070010c0b3004047980013
:10570c00ff003700d01680004800de0061406000ca
:10571c000080fb00210220008e8040001e4178009a
:10572c00fb000700504798005e409000e04f50008f
:10573c00090032005e4090009e4f5000060032007f
:10574c001e409000e54f500003003e001e409000ac
:10575c000040e800104798001e409000e54f5000b4
:10576c00020036000040eb00404798001e409000bd
:10577c00e04f5000030032001e409000e14f5000fb
:10578c0008003a001e4090000084fb000e02070047
:10579c0088004400810047004102b0008008780076
:1057ac003f0037001e409000e24f500003003200d3
:1057bc001e409000e34f500008003a001e4090003d
:1057cc000084fb00100207008800440081004700a1
:1057dc004102b00080087800310037001e40900074
:1057ec00e44f500016003a003e149000f6010700fa
:1057fc00800f5400020031003e109000070037006b
:10580c002e149000f0010700800f540002003600a7
:10581c002e10900001003700eb01070030079800b4
:10582c001e4090000080fb0000004000000047007c
:10583c004002b000be00900001087800180037004c
:10584c001e409000e54f500015003a005e14900089
:10585c00ed010700800f5400020031005e10900033
:10586c00070037004e149000e7010700800f54002a
:10587c00020036004e10900001003700e2010700d4
:10588c00400798001e4090000080fb000000400084
:10589c00000047004002b000ce00900001087800e4
:1058ac001e0090000000e800100798009e00900079
:1058bc0080382100808f50008f003a0080c1b300e7
:1058cc00e1fd07000040eb00bbfd070090c1b300f9
:1058dc00ddfd07001e409000310020000100dd00be
:1058ec00b5fd07001e409000e34f500013003e0032
:1058fc001e4090000080fb00000040004102200090
:10590c008e80400000804000900078001e40900087
:10591c000080fb0000004000000047006010900079
:10592c00811f7800801f780004f10700e48757007e
:10593c0060a3200008f107006d0037001e409000a6
:10594c00e44f500034003a00be1090002e1090002e
:10595c0000805000010020002feb0700500798003a
:10596c00610798001e4090000080fb000000400082
:10597c00410220008e8040000080400090007800a2
:10598c002e109000008050000100200022eb070038
:10599c0070079800010f98005e019000ee019000d6
:1059ac007e0090008e0890001deb07009299290054
:1059bc0093f923005ceb07006266260063f6230074
:1059cc008eeb0700100f9800210f98001e409000de
:1059dc000080fb00000040000000470060119000b8
:1059ec001e089000ae089000809fbe00821f7800b9
:1059fc00d2f00700e687570060a32000d6f007001e
:105a0c00420120001e089000ae089000a60107007d
:105a1c0095010700360037001e409000e54f5000fe
:105a2c0033003a00de1090004e10900000805000c1
:105a3c0001002000f8ea0700300f9800410f980091
:105a4c001e4090000080fb0000004000410220003e
:105a5c008e80400000804000900078004e10900036
:105a6c000080500001002000ebea0700500f980066
:105a7c00610f98003e099000ce0990005e089000de
:105a8c00ee089000e6ea07009299290093f92300aa
:105a9c0025eb07006266260063f6230057eb070030
:105aac00700f9800011798001e4090000080fb00ba
